{
  "_format": "hh-sol-artifact-1",
  "contractName": "InvestorManagement",
  "sourceName": "src/register/investors/InvestorManagement.sol",
  "abi": [
    {
      "inputs": [],
      "name": "EnumerableSet__IndexOutOfBounds",
      "type": "error"
    },
    {
      "inputs": [],
      "name": "UintUtils__InsufficientHexLength",
      "type": "error"
    },
    {
      "anonymous": false,
      "inputs": [
        {
          "indexed": true,
          "internalType": "address",
          "name": "_addressForNewAdmin",
          "type": "address"
        }
      ],
      "name": "AdminChanged",
      "type": "event"
    },
    {
      "anonymous": false,
      "inputs": [
        {
          "indexed": false,
          "internalType": "address",
          "name": "investor",
          "type": "address"
        }
      ],
      "name": "DisableInvestor",
      "type": "event"
    },
    {
      "anonymous": false,
      "inputs": [
        {
          "indexed": false,
          "internalType": "address",
          "name": "investor",
          "type": "address"
        }
      ],
      "name": "EnableInvestor",
      "type": "event"
    },
    {
      "anonymous": false,
      "inputs": [
        {
          "indexed": false,
          "internalType": "uint64",
          "name": "version",
          "type": "uint64"
        }
      ],
      "name": "Initialized",
      "type": "event"
    },
    {
      "anonymous": false,
      "inputs": [
        {
          "indexed": true,
          "internalType": "bytes32",
          "name": "role",
          "type": "bytes32"
        },
        {
          "indexed": true,
          "internalType": "bytes32",
          "name": "previousAdminRole",
          "type": "bytes32"
        },
        {
          "indexed": true,
          "internalType": "bytes32",
          "name": "newAdminRole",
          "type": "bytes32"
        }
      ],
      "name": "RoleAdminChanged",
      "type": "event"
    },
    {
      "anonymous": false,
      "inputs": [
        {
          "indexed": true,
          "internalType": "bytes32",
          "name": "role",
          "type": "bytes32"
        },
        {
          "indexed": true,
          "internalType": "address",
          "name": "account",
          "type": "address"
        },
        {
          "indexed": true,
          "internalType": "address",
          "name": "sender",
          "type": "address"
        }
      ],
      "name": "RoleGranted",
      "type": "event"
    },
    {
      "anonymous": false,
      "inputs": [
        {
          "indexed": true,
          "internalType": "bytes32",
          "name": "role",
          "type": "bytes32"
        },
        {
          "indexed": true,
          "internalType": "address",
          "name": "account",
          "type": "address"
        },
        {
          "indexed": true,
          "internalType": "address",
          "name": "sender",
          "type": "address"
        }
      ],
      "name": "RoleRevoked",
      "type": "event"
    },
    {
      "anonymous": false,
      "inputs": [
        {
          "indexed": true,
          "internalType": "address",
          "name": "toBeAdded",
          "type": "address"
        }
      ],
      "name": "WalletAddedToWhitelist",
      "type": "event"
    },
    {
      "anonymous": false,
      "inputs": [
        {
          "indexed": true,
          "internalType": "address",
          "name": "toBeDeleted",
          "type": "address"
        }
      ],
      "name": "WalletDeletedFromWhitelist",
      "type": "event"
    },
    {
      "inputs": [],
      "name": "BND_ROLE",
      "outputs": [
        {
          "internalType": "bytes32",
          "name": "",
          "type": "bytes32"
        }
      ],
      "stateMutability": "view",
      "type": "function"
    },
    {
      "inputs": [],
      "name": "CAK_ROLE",
      "outputs": [
        {
          "internalType": "bytes32",
          "name": "",
          "type": "bytes32"
        }
      ],
      "stateMutability": "view",
      "type": "function"
    },
    {
      "inputs": [],
      "name": "CST_ROLE",
      "outputs": [
        {
          "internalType": "bytes32",
          "name": "",
          "type": "bytes32"
        }
      ],
      "stateMutability": "view",
      "type": "function"
    },
    {
      "inputs": [],
      "name": "PAY_ROLE",
      "outputs": [
        {
          "internalType": "bytes32",
          "name": "",
          "type": "bytes32"
        }
      ],
      "stateMutability": "view",
      "type": "function"
    },
    {
      "inputs": [
        {
          "internalType": "address",
          "name": "investor_",
          "type": "address"
        }
      ],
      "name": "disableInvestorFromWhitelist",
      "outputs": [],
      "stateMutability": "nonpayable",
      "type": "function"
    },
    {
      "inputs": [
        {
          "internalType": "address",
          "name": "investor_",
          "type": "address"
        }
      ],
      "name": "enableInvestorToWhitelist",
      "outputs": [],
      "stateMutability": "nonpayable",
      "type": "function"
    },
    {
      "inputs": [],
      "name": "getAllInvestors",
      "outputs": [
        {
          "internalType": "address[]",
          "name": "",
          "type": "address[]"
        }
      ],
      "stateMutability": "view",
      "type": "function"
    },
    {
      "inputs": [
        {
          "internalType": "bytes32",
          "name": "role",
          "type": "bytes32"
        }
      ],
      "name": "getRoleAdmin",
      "outputs": [
        {
          "internalType": "bytes32",
          "name": "",
          "type": "bytes32"
        }
      ],
      "stateMutability": "view",
      "type": "function"
    },
    {
      "inputs": [
        {
          "internalType": "bytes32",
          "name": "role",
          "type": "bytes32"
        },
        {
          "internalType": "uint256",
          "name": "index",
          "type": "uint256"
        }
      ],
      "name": "getRoleMember",
      "outputs": [
        {
          "internalType": "address",
          "name": "",
          "type": "address"
        }
      ],
      "stateMutability": "view",
      "type": "function"
    },
    {
      "inputs": [
        {
          "internalType": "bytes32",
          "name": "role",
          "type": "bytes32"
        }
      ],
      "name": "getRoleMemberCount",
      "outputs": [
        {
          "internalType": "uint256",
          "name": "",
          "type": "uint256"
        }
      ],
      "stateMutability": "view",
      "type": "function"
    },
    {
      "inputs": [
        {
          "internalType": "bytes32",
          "name": "role",
          "type": "bytes32"
        },
        {
          "internalType": "address",
          "name": "account",
          "type": "address"
        }
      ],
      "name": "grantRole",
      "outputs": [],
      "stateMutability": "nonpayable",
      "type": "function"
    },
    {
      "inputs": [
        {
          "internalType": "bytes32",
          "name": "role",
          "type": "bytes32"
        },
        {
          "internalType": "address",
          "name": "account",
          "type": "address"
        }
      ],
      "name": "hasRole",
      "outputs": [
        {
          "internalType": "bool",
          "name": "",
          "type": "bool"
        }
      ],
      "stateMutability": "view",
      "type": "function"
    },
    {
      "inputs": [
        {
          "internalType": "address",
          "name": "investor",
          "type": "address"
        }
      ],
      "name": "investorCustodian",
      "outputs": [
        {
          "internalType": "address",
          "name": "",
          "type": "address"
        }
      ],
      "stateMutability": "view",
      "type": "function"
    },
    {
      "inputs": [
        {
          "internalType": "address",
          "name": "investor",
          "type": "address"
        }
      ],
      "name": "investorsAllowed",
      "outputs": [
        {
          "internalType": "bool",
          "name": "",
          "type": "bool"
        }
      ],
      "stateMutability": "view",
      "type": "function"
    },
    {
      "inputs": [
        {
          "internalType": "bytes32",
          "name": "role",
          "type": "bytes32"
        }
      ],
      "name": "renounceRole",
      "outputs": [],
      "stateMutability": "nonpayable",
      "type": "function"
    },
    {
      "inputs": [
        {
          "internalType": "bytes32",
          "name": "role",
          "type": "bytes32"
        },
        {
          "internalType": "address",
          "name": "account",
          "type": "address"
        }
      ],
      "name": "revokeRole",
      "outputs": [],
      "stateMutability": "nonpayable",
      "type": "function"
    }
  ],
  "bytecode": "0x60808060405234610016576112ce908161001c8239f35b600080fdfe608060409080825260048036101561001657600080fd5b600092833560e01c9283631c67a3631461071457508263248a9ca3146106dc5782632682ac91146106a15782632f2ff15d146104545782633bf2a9f4146104195782638865f1e2146103de5782638bb9c5bf146103bf5782638f92f4901461038a5782639010d07c1461032157826391d14854146102be578263c41251a114610284578263ca15c8731461024f578263d0a2f2c41461016c578263d1ec6de81461014a578263d547741f146100fd57505063d5c0beeb146100d657600080fd5b346100fa5760203660031901126100fa576100f76100f2610769565b610ec6565b80f35b80fd5b909150346101465780600319360112610146576100f79135610141600261012261074e565b938387526000805160206112798339815191526020528620015461077f565b61103c565b8280fd5b83346100fa5760203660031901126100fa576100f7610167610769565b610beb565b83346100fa57806003193601126100fa579080519182907f332cf6b129284e49df93f4be38bb1959bb5fa7d7d0ce3d4ad668f566f35f6fd4918254808652602080960190819484527f3b5a704516de56a4fa30eb29b0bf899a47de4e07d715ffde30cee9d593da441690845b81811061023257505050816101ee910382610a73565b83519485948186019282875251809352850193925b82811061021257505050500390f35b83516001600160a01b031685528695509381019392810192600101610203565b82546001600160a01b0316845292880192600192830192016101d8565b915034610146576020366003190112610146576020928291358152600080516020611279833981519152845220549051908152f35b8390346102ba5760203660031901126102ba5760209060ff6102ac6102a7610769565b610ad9565b5460a01c1690519015158152f35b5080fd5b91503461014657816003193601126101465761031890826020946102e061074e565b923581526000805160206112798339815191528652206001600160a01b03909116600090815260019091016020526040902054151590565b90519015158152f35b9150346101465781600319360112610146578160243593823581526000805160206112798339815191526020522090815484101561037c575060209261036691610aab565b905491519160018060a01b039160031b1c168152f35b825163e637bf3b60e01b8152fd5b8390346102ba5760203660031901126102ba576020906001600160a01b0360026103b56102a7610769565b0154169051908152f35b8382346102ba5760203660031901126102ba576100f79033903561103c565b8390346102ba57816003193601126102ba57602090517fa75205b8583660bdad375c0ccde11af17668d76a408a9a5e739251b0f7c598708152f35b8390346102ba57816003193601126102ba57602090517fd7aa2ddfa4e381128202bf365b7e0a176f2fca6cdf2f23c2b0a6f439376958908152f35b91503461014657816003193601126101465780359161047161074e565b908385526000805160206112798339815191526020908082526104996002848920015461077f565b8515600003610feb577fa75205b8583660bdad375c0ccde11af17668d76a408a9a5e739251b0f7c5987086810361063b5787528082526104eb3384892060019160005201602052604060002054151590565b8015610613575b156105b9575b85875281528186206001600160a01b03909316600081815260018501602052604090205490949015610552575b5050505033917f2f8788117e7eff1d82e926ec794901d17c78024a50270940304540a733656f0d8480a480f35b835490600160401b8210156105a6575061058d610576826001889401875586610aab565b819391549060031b91821b91600019901b19161790565b9055600183549385885201905284205538808080610525565b634e487b7160e01b885260419052602487fd5b825162461bcd60e51b8152808601839052602e60248201527f43616c6c6572206d7573742062652043414b206f722041444d494e20746f207360448201526d657420616e6f746865722043414b60901b6064820152608490fd5b508680528082526106363384892060019160005201602052604060002054151590565b6104f2565b875280825261065c3384892060019160005201602052604060002054151590565b6104f857606485838086519262461bcd60e51b845283015260248201527f43616c6c6572206d7573742062652043414b20746f20736574206120726f6c656044820152fd5b8390346102ba57816003193601126102ba57602090517ff698af62c65280e4949bceec64b760f3b7738217cbc536cdfc4c9463676b05c28152f35b915034610146576020366003190112610146578160209360029235815260008051602061127983398151915285522001549051908152f35b8490346102ba57816003193601126102ba57807f6ba6f588bcdc2df8426603a466c98ab15e79f7fb7f37b53581ce39c1d01b724960209252f35b602435906001600160a01b038216820361076457565b600080fd5b600435906001600160a01b038216820361076457565b6000908082526000805160206112798339815191526020526040906107b63383852060019160005201602052604060002054151590565b156107c057505050565b81519267ffffffffffffffff336060860182811187821017610a3c578552602a8652602086019385368637865115610a285760308553865191600192831015610a14576078602189015360295b8381116109c457506109b3579085519260808401908482109082111761099f578652604283526020830193606036863783511561098b5760308553835182101561098b5790607860218501536041915b8183116109375750505061092657926108f260486108e394610918979460449785519788936108ba60208601997f416363657373436f6e74726f6c3a206163636f756e74200000000000000000008b525180926037880190610a50565b8401917001034b99036b4b9b9b4b733903937b6329607d1b603784015251809386840190610a50565b01036028810186520184610a73565b5193849262461bcd60e51b84526020600485015251809281602486015285850190610a50565b601f01601f19168101030190fd5b835163c913478560e01b8152600490fd5b909192600f81166010811015610977576f181899199a1a9b1b9c1cb0b131b232b360811b901a6109678587611267565b5360041c9260001901919061085d565b634e487b7160e01b83526032600452602483fd5b634e487b7160e01b81526032600452602490fd5b634e487b7160e01b85526041600452602485fd5b855163c913478560e01b8152600490fd5b90600f81166010811015610a00576f181899199a1a9b1b9c1cb0b131b232b360811b901a6109f2838b611267565b5360041c906000190161080d565b634e487b7160e01b87526032600452602487fd5b634e487b7160e01b85526032600452602485fd5b634e487b7160e01b84526032600452602484fd5b634e487b7160e01b84526041600452602484fd5b60005b838110610a635750506000910152565b8181015183820152602001610a53565b90601f8019910116810190811067ffffffffffffffff821117610a9557604052565b634e487b7160e01b600052604160045260246000fd5b8054821015610ac35760005260206000200190600090565b634e487b7160e01b600052603260045260246000fd5b6001600160a01b031660009081527f332cf6b129284e49df93f4be38bb1959bb5fa7d7d0ce3d4ad668f566f35f6fd56020526040902090565b15610b1957565b60405162461bcd60e51b815260206004820152601f60248201527f696e766573746f7220616464726573732063616e6e6f74206265207a65726f006044820152606490fd5b15610b6557565b60405162461bcd60e51b815260206004820152601d60248201527f696e766573746f72206d757374206265207365742075702066697273740000006044820152606490fd5b15610bb157565b60405162461bcd60e51b815260206004820152601260248201527110d85b1b195c881b5d5cdd0818994810d4d560721b6044820152606490fd5b6001600160a01b03610c008282161515610b12565b6002610c0b83610ad9565b01543360009081527f50b3f923c5a6856525e4c909aeb0ca298445e09ab2763b3edcaf4569b7b61a2b6020526040902054911615919060008051602061127983398151915290610cb057610cae92507f6ba6f588bcdc2df8426603a466c98ab15e79f7fb7f37b53581ce39c1d01b7249600052602052610ca7610ca233604060002060019160005201602052604060002054151590565b610baa565b3390610d32565b565b506102a7610cbe9215610b5e565b805460ff60a01b1916600160a01b179055565b15610cd857565b60405162461bcd60e51b815260206004820152602c60248201527f6f6e6c792074686520637573746f6469616e2063616e20646973616c6c6f772060448201526b3a34329034b73b32b9ba37b960a11b6064820152608490fd5b60ff610d3d82610ad9565b5460a01c16610ec2576001600160a01b0390816002610d5b83610ad9565b015416610e63577f332cf6b129284e49df93f4be38bb1959bb5fa7d7d0ce3d4ad668f566f35f6fd491825493600160401b851015610a955760018501808555851015610ac3577ff96a35a7272aecca4e6ac04b9ecbc33e3c2655f1fa104a4604d8f50370e6beb394602094600052807f3b5a704516de56a4fa30eb29b0bf899a47de4e07d715ffde30cee9d593da44160190838516906bffffffffffffffffffffffff60a01b9282848254161790556001610e1587610ad9565b0155610e2085610ad9565b9082825416179055826002610e3486610ad9565b01921690825416179055610e4782610ad9565b805460ff60a01b1916600160a01b1790555b60405191168152a1565b81610ea37ff96a35a7272aecca4e6ac04b9ecbc33e3c2655f1fa104a4604d8f50370e6beb394826020956002610e9887610ad9565b015416911614610cd1565b610eac82610ad9565b805460ff60a01b1916600160a01b179055610e59565b5050565b6001600160a01b038181169190610ede831515610b12565b3360009081527f50b3f923c5a6856525e4c909aeb0ca298445e09ab2763b3edcaf4569b7b61a2b602052604090205460008051602061127983398151915290610fbf576020926102a77ffeae65559f65b7c3f804001ac3371fbb83cf05e8344bc2b66588084bfe9250a89593610fab937f6ba6f588bcdc2df8426603a466c98ab15e79f7fb7f37b53581ce39c1d01b72496000528652610f95610ca233604060002060019160005201602052604060002054151590565b33906002610fa285610ad9565b01541614610cd1565b805460ff60a01b19169055604051908152a1565b50610fde92506102a7906002610fd484610ad9565b0154161515610b5e565b805460ff60a01b19169055565b60405162461bcd60e51b8152602060048201526024808201527f5573652066756e6374696f6e206368616e676541646d696e526f6c6520696e736044820152631d19585960e21b6064820152608490fd5b908115611262577fa75205b8583660bdad375c0ccde11af17668d76a408a9a5e739251b0f7c598708281036111da57503360009081527f49954ab00355d427d0ed155d763a8dbf20297b7dde63ccd80a8bd10bb555baef602052604090205415611189575b600091808352600080516020611279833981519152602052604083209160018060a01b03169160018101908385528160205260408520549081611109575b5050507ff6391f5c32d9c69d2a47ea670b442974b53935d1edc7fd64eb21e047a839171b339380a4565b6000199161111a8383540183610aab565b90549060031b1c8061113161057686850186610aab565b9055875283602052604087205580548015611175578201916111538383610aab565b909182549160031b1b19169055558284526020528260408120553880806110df565b634e487b7160e01b87526031600452602487fd5b60405162461bcd60e51b8152602060048201526024808201527f43616c6c6572206d7573742062652041444d494e20746f2072656d6f766520616044820152632043414b60e01b6064820152608490fd5b60005260008051602061127983398151915260205261120d33604060002060019160005201602052604060002054151590565b6110a15760405162461bcd60e51b815260206004820152602360248201527f43616c6c6572206d7573742062652043414b20746f2072656d6f7665206120726044820152626f6c6560e81b6064820152608490fd5b610feb565b908151811015610ac357016020019056fe2e59e4c2e927cdddbb64e181e0668d9a0fa70dd88f94d999cd87d5496a20da62a2646970667358221220bd9a39eebfcab00c5fc92fb2932d648d7ebad826113175ba8fc9f850872aedf864736f6c63430008140033",
  "linkReferences": {},
  "deployedLinkReferences": {}
}