{
  "_format": "hh-sol-artifact-1",
  "contractName": "EnumerableSetBytes32Mock",
  "sourceName": "src/data/EnumerableSetBytes32Mock.sol",
  "abi": [
    {
      "inputs": [],
      "name": "EnumerableSet__IndexOutOfBounds",
      "type": "error"
    },
    {
      "inputs": [
        {
          "internalType": "bytes32",
          "name": "value",
          "type": "bytes32"
        }
      ],
      "name": "add",
      "outputs": [
        {
          "internalType": "bool",
          "name": "",
          "type": "bool"
        }
      ],
      "stateMutability": "nonpayable",
      "type": "function"
    },
    {
      "inputs": [
        {
          "internalType": "uint256",
          "name": "index",
          "type": "uint256"
        }
      ],
      "name": "at",
      "outputs": [
        {
          "internalType": "bytes32",
          "name": "",
          "type": "bytes32"
        }
      ],
      "stateMutability": "view",
      "type": "function"
    },
    {
      "inputs": [
        {
          "internalType": "bytes32",
          "name": "value",
          "type": "bytes32"
        }
      ],
      "name": "contains",
      "outputs": [
        {
          "internalType": "bool",
          "name": "",
          "type": "bool"
        }
      ],
      "stateMutability": "view",
      "type": "function"
    },
    {
      "inputs": [
        {
          "internalType": "bytes32",
          "name": "value",
          "type": "bytes32"
        }
      ],
      "name": "indexOf",
      "outputs": [
        {
          "internalType": "uint256",
          "name": "",
          "type": "uint256"
        }
      ],
      "stateMutability": "view",
      "type": "function"
    },
    {
      "inputs": [],
      "name": "length",
      "outputs": [
        {
          "internalType": "uint256",
          "name": "",
          "type": "uint256"
        }
      ],
      "stateMutability": "view",
      "type": "function"
    },
    {
      "inputs": [
        {
          "internalType": "bytes32",
          "name": "value",
          "type": "bytes32"
        }
      ],
      "name": "remove",
      "outputs": [
        {
          "internalType": "bool",
          "name": "",
          "type": "bool"
        }
      ],
      "stateMutability": "nonpayable",
      "type": "function"
    },
    {
      "inputs": [],
      "name": "toArray",
      "outputs": [
        {
          "internalType": "bytes32[]",
          "name": "",
          "type": "bytes32[]"
        }
      ],
      "stateMutability": "view",
      "type": "function"
    }
  ],
  "bytecode": "0x6080806040523461001657610408908161001c8239f35b600080fdfe6040608081526004908136101561001557600080fd5b600091823560e01c80631d1a696d146103515780631f7b6d3214610334578063446bffba1461029a5780636f4ce56a1461026e578063908ff3031461018f57806395bc2673146100b65763e0886f901461006e57600080fd5b346100b25760203660031901126100b257803592548310156100a45750610096602092610388565b91905490519160031b1c8152f35b905163e637bf3b60e01b8152fd5b8280fd5b5091903461018b57602036600319011261018b578235918092808252600160205282822054806100ed575b60208585519015158152f35b90919293506000199061010282855401610388565b90549060031b1c8061012f610118858501610388565b819391549060031b91821b91600019901b19161790565b9055845260016020528484205582548015610178576020955081019061015482610388565b909182549160031b1b191690558255815260018352818120556001903880806100e1565b634e487b7160e01b845260318652602484fd5b5080fd5b50913461026b578060031936011261026b5781518091805493848352602080930180958380527f290decd9548b62a8d60345a988386fc84ba6bc95484008f6362f93160ef3e56390845b868282106102575750505050849003601f01601f191684019567ffffffffffffffff871185881017610244575085815282865292518583018190528594938501939290915b82811061022d57505050500390f35b83518552869550938101939281019260010161021e565b634e487b7160e01b835260419052602482fd5b8354855290930192600192830192016101d9565b80fd5b50346100b25760203660031901126100b257916020923581526001835281600019912054019051908152f35b5091903461018b57602036600319011261018b578235826102c8826000526001602052604060002054151590565b156102da575b60208484519015158152f35b809192935054680100000000000000008110156103215760209450908261030a6101188460018896018555610388565b9055805492815260018552205560019038806102ce565b634e487b7160e01b825260418552602482fd5b50503461018b578160031936011261018b57602091549051908152f35b50913461026b57602036600319011261026b575061037f602092356000526001602052604060002054151590565b90519015158152f35b9060009182548110156103be578280527f290decd9548b62a8d60345a988386fc84ba6bc95484008f6362f93160ef3e563019190565b634e487b7160e01b83526032600452602483fdfea264697066735822122020c6bc0fb342d49b8d74c33d4ea84c452c8c5a7f3fb9cd587f404cccbf17932c64736f6c63430008140033",
  "linkReferences": {},
  "deployedLinkReferences": {}
}