{
  "_format": "hh-sol-artifact-1",
  "contractName": "BinaryHeapAddressMock",
  "sourceName": "src/data/BinaryHeapAddressMock.sol",
  "abi": [
    {
      "inputs": [
        {
          "internalType": "address",
          "name": "value",
          "type": "address"
        }
      ],
      "name": "add",
      "outputs": [
        {
          "internalType": "bool",
          "name": "",
          "type": "bool"
        }
      ],
      "stateMutability": "nonpayable",
      "type": "function"
    },
    {
      "inputs": [
        {
          "internalType": "uint256",
          "name": "index",
          "type": "uint256"
        }
      ],
      "name": "at",
      "outputs": [
        {
          "internalType": "address",
          "name": "",
          "type": "address"
        }
      ],
      "stateMutability": "view",
      "type": "function"
    },
    {
      "inputs": [
        {
          "internalType": "address",
          "name": "value",
          "type": "address"
        }
      ],
      "name": "contains",
      "outputs": [
        {
          "internalType": "bool",
          "name": "",
          "type": "bool"
        }
      ],
      "stateMutability": "view",
      "type": "function"
    },
    {
      "inputs": [
        {
          "internalType": "address",
          "name": "value",
          "type": "address"
        }
      ],
      "name": "indexOf",
      "outputs": [
        {
          "internalType": "uint256",
          "name": "",
          "type": "uint256"
        }
      ],
      "stateMutability": "view",
      "type": "function"
    },
    {
      "inputs": [],
      "name": "length",
      "outputs": [
        {
          "internalType": "uint256",
          "name": "",
          "type": "uint256"
        }
      ],
      "stateMutability": "view",
      "type": "function"
    },
    {
      "inputs": [
        {
          "internalType": "address",
          "name": "value",
          "type": "address"
        }
      ],
      "name": "remove",
      "outputs": [
        {
          "internalType": "bool",
          "name": "",
          "type": "bool"
        }
      ],
      "stateMutability": "nonpayable",
      "type": "function"
    },
    {
      "inputs": [],
      "name": "root",
      "outputs": [
        {
          "internalType": "address",
          "name": "",
          "type": "address"
        }
      ],
      "stateMutability": "view",
      "type": "function"
    },
    {
      "inputs": [],
      "name": "toArray",
      "outputs": [
        {
          "internalType": "address[]",
          "name": "",
          "type": "address[]"
        }
      ],
      "stateMutability": "view",
      "type": "function"
    }
  ],
  "bytecode": "0x6080806040523461001657610692908161001c8239f35b600080fdfe6040608081526004908136101561001557600080fd5b600091823560e01c80630a3b0a4f146103fa5780631f7b6d32146103dd57806329092d0e146102815780635dbe47e814610246578063908ff3031461016a578063e0886f9014610110578063ebf0c717146100ba5763fd6aad251461007957600080fd5b346100b65760203660031901126100b657356001600160a01b038116908190036100b6579160209281526001835281600019912054019051908152f35b8280fd5b50913461010d578060031936011261010d578054156100fa57805260008051602061063d8339815191525490516001600160a01b03909116815260209150f35b634e487b7160e01b815260328352602490fd5b80fd5b50913461010d57602036600319011261010d57823590805482101561015757805260008051602061063d833981519152015490516001600160a01b03909116815260209150f35b634e487b7160e01b815260328452602490fd5b50913461010d578060031936011261010d57815180918054938483526020809301809583805260008051602061063d83398151915290845b868282106102295750505050849003601f01601f191684019567ffffffffffffffff871185881017610216575085815282865292518583018190528594938501939290915b8281106101f657505050500390f35b83516001600160a01b0316855286955093810193928101926001016101e7565b634e487b7160e01b835260419052602482fd5b83546001600160a01b0316855290930192600192830192016101a2565b50346100b65760203660031901126100b657356001600160a01b038116908190036100b6578282916020945260018452205415159051908152f35b50823461010d57602036600319011261010d5781356001600160a01b03811692908390036103d957819280835260016020528483205491826102ca575b60208587519015158152f35b909192935060001980930161030f848654016103456102e8846104c0565b90549060031b1c936103178561032e610300866104c0565b90549060031b1c9687946104c0565b9390966104c0565b819391549060031b91821b91600019901b19161790565b905583549060031b91821b91600019901b19161790565b9055808652600160205286862054918652868620908154908752878720555583549081156103c657508201610379816104c0565b8482549160031b1b1916905583558252600160205281838120558154908160011c805b6103b35750505050602090600190918380806102be565b8101806103c1818587610526565b61039c565b634e487b7160e01b855260319052602484fd5b5080fd5b5050346103d957816003193601126103d957602091549051908152f35b50823461010d57602036600319011261010d5781356001600160a01b038116908190036103d957819281835260016020528483205415610441575b60208486519015158152f35b90918093505490680100000000000000008210156104ad575061046d61031782600185940186556104c0565b90558154908252600160205280838320558060011c805b610498575060019150602090508380610435565b60001901806104a8818486610526565b610484565b634e487b7160e01b845260419052602483fd5b9060009182548110156104e45782805260008051602061063d833981519152019190565b634e487b7160e01b83526032600452602483fd5b80548210156105105760005260206000200190600090565b634e487b7160e01b600052603260045260246000fd5b908291600184811b17600181019083811080610613575b61060b575b50828110806105e2575b6105da575b50838303610560575b50505050565b836105966105716105d196846104f8565b90549060031b1c916105a761058687866104f8565b90549060031b1c928392866104f8565b8561032e6103178b8a9795976104f8565b90556000908082526001840160205260408220549282526040808320928354928152205555610526565b3880808061055a565b925038610551565b506105ed84836104f8565b90546105f983856104f8565b90549060031b1c9160031b1c1061054c565b935038610542565b5061061e86846104f8565b905461062a83866104f8565b90549060031b1c9160031b1c1061053d56fe290decd9548b62a8d60345a988386fc84ba6bc95484008f6362f93160ef3e563a264697066735822122027dc09c30eecd806e44a31dc1db6b579fbfe238df392df7fec44259a07d5ecd964736f6c63430008140033",
  "linkReferences": {},
  "deployedLinkReferences": {}
}