{
  "_format": "hh-sol-artifact-1",
  "contractName": "EnumerableMapAddressToAddressMock",
  "sourceName": "src/data/EnumerableMapAddressToAddressMock.sol",
  "abi": [
    {
      "inputs": [],
      "name": "EnumerableMap__IndexOutOfBounds",
      "type": "error"
    },
    {
      "inputs": [],
      "name": "EnumerableMap__NonExistentKey",
      "type": "error"
    },
    {
      "inputs": [
        {
          "internalType": "uint256",
          "name": "index",
          "type": "uint256"
        }
      ],
      "name": "at",
      "outputs": [
        {
          "internalType": "address",
          "name": "",
          "type": "address"
        },
        {
          "internalType": "address",
          "name": "",
          "type": "address"
        }
      ],
      "stateMutability": "view",
      "type": "function"
    },
    {
      "inputs": [
        {
          "internalType": "address",
          "name": "key",
          "type": "address"
        }
      ],
      "name": "contains",
      "outputs": [
        {
          "internalType": "bool",
          "name": "",
          "type": "bool"
        }
      ],
      "stateMutability": "view",
      "type": "function"
    },
    {
      "inputs": [
        {
          "internalType": "address",
          "name": "key",
          "type": "address"
        }
      ],
      "name": "get",
      "outputs": [
        {
          "internalType": "address",
          "name": "",
          "type": "address"
        }
      ],
      "stateMutability": "view",
      "type": "function"
    },
    {
      "inputs": [],
      "name": "keys",
      "outputs": [
        {
          "internalType": "address[]",
          "name": "keysOut",
          "type": "address[]"
        }
      ],
      "stateMutability": "view",
      "type": "function"
    },
    {
      "inputs": [],
      "name": "length",
      "outputs": [
        {
          "internalType": "uint256",
          "name": "",
          "type": "uint256"
        }
      ],
      "stateMutability": "view",
      "type": "function"
    },
    {
      "inputs": [
        {
          "internalType": "address",
          "name": "key",
          "type": "address"
        }
      ],
      "name": "remove",
      "outputs": [
        {
          "internalType": "bool",
          "name": "",
          "type": "bool"
        }
      ],
      "stateMutability": "nonpayable",
      "type": "function"
    },
    {
      "inputs": [
        {
          "internalType": "address",
          "name": "key",
          "type": "address"
        },
        {
          "internalType": "address",
          "name": "value",
          "type": "address"
        }
      ],
      "name": "set",
      "outputs": [
        {
          "internalType": "bool",
          "name": "",
          "type": "bool"
        }
      ],
      "stateMutability": "nonpayable",
      "type": "function"
    },
    {
      "inputs": [],
      "name": "toArray",
      "outputs": [
        {
          "internalType": "address[]",
          "name": "keysOut",
          "type": "address[]"
        },
        {
          "internalType": "address[]",
          "name": "valuesOut",
          "type": "address[]"
        }
      ],
      "stateMutability": "view",
      "type": "function"
    },
    {
      "inputs": [],
      "name": "values",
      "outputs": [
        {
          "internalType": "address[]",
          "name": "valuesOut",
          "type": "address[]"
        }
      ],
      "stateMutability": "view",
      "type": "function"
    }
  ],
  "bytecode": "0x6080806040523461001657610676908161001c8239f35b600080fdfe6080604090808252600436101561001557600080fd5b600090813560e01c9081631f7b6d321461035f5750806329092d0e14610330578063307540f6146102cf5780635dbe47e81461029557806389675cac1461024a578063908ff303146101b1578063971217b71461014a578063c2bc2efc146100e15763e0886f901461008657600080fd5b346100de5760203660031901126100de5760043590548110156100cd576100ac906103d1565b50805460019091015482516001600160a01b03928316815291166020820152f35b815163022fd82760e31b8152600490fd5b80fd5b509034610146576020366003190112610146576001600160a01b0391819083610108610379565b1681526001602052205491821561013557600161012a602094600019016103d1565b500154169051908152f35b8151633d547ec560e21b8152600490fd5b5080fd5b50346100de57806003193601126100de578054610166816105d0565b915b8181106101885783516020808252819061018490820186610394565b0390f35b806101946001926103d1565b5082808060a01b03910154166101aa8286610616565b5201610168565b5090346101465781600319360112610146578154916101cf836105d0565b926101d9816105d0565b915b818110610209575050610184906101fb8351948486958652850190610394565b908382036020850152610394565b806102156001926103d1565b50828060a01b038091541661022a8389610616565b5282610235836103d1565b500154166102438286610616565b52016101db565b509034610146578060031936011261014657610264610379565b6024356001600160a01b03818116949092918590036100de57509261028c916020941661041e565b90519015158152f35b5090346101465760203660031901126101465760209181906001600160a01b036102bd610379565b16815260018452205415159051908152f35b50346100de57806003193601126100de5780546102eb816105d0565b915b8181106103095783516020808252819061018490820186610394565b806103156001926103d1565b50828060a01b039054166103298286610616565b52016102ed565b5090346101465760203660031901126101465760209061028c6001600160a01b03610359610379565b166104e3565b905034610146578160031936011261014657602091548152f35b600435906001600160a01b038216820361038f57565b600080fd5b90815180825260208080930193019160005b8281106103b4575050505090565b83516001600160a01b0316855293810193928101926001016103a6565b90600091825481101561040a5782805260011b7f290decd9548b62a8d60345a988386fc84ba6bc95484008f6362f93160ef3e563019190565b634e487b7160e01b83526032600452602483fd5b600081815260019283602052604082205480156000146104cb5750604051906040820182811067ffffffffffffffff8211176104b757604052838252602082019081528254680100000000000000008110156104b7578086610482920185556103d1565b9290926104a357518255519084015580549181526020839052604090205590565b634e487b7160e01b84526004849052602484fd5b634e487b7160e01b84526041600452602484fd5b6104dd919350600094929419016103d1565b50015590565b600081815260019182602052604082205480151560001461059b576000199061050e828554016103d1565b5061051a8383016103d1565b61058757818103610575575b50548452846020526040842055825480156105615701610545816103d1565b6104a35784818580935501558255815281602052604081205590565b634e487b7160e01b84526031600452602484fd5b81548155868083015491015538610526565b634e487b7160e01b86526004869052602486fd5b5050905090565b67ffffffffffffffff81116105ba5760051b60200190565b634e487b7160e01b600052604160045260246000fd5b906105da826105a2565b60405190601f1990601f018116820167ffffffffffffffff8111838210176105ba5760405283825261060c82946105a2565b0190602036910137565b805182101561062a5760209160051b010190565b634e487b7160e01b600052603260045260246000fdfea2646970667358221220845806750d0f2ed76136ab4dfb6e92ebf7c0644750608becb6d4cc77cdb09b8264736f6c63430008140033",
  "linkReferences": {},
  "deployedLinkReferences": {}
}