{
  "_format": "hh-sol-artifact-1",
  "contractName": "InvestorManagementInternal",
  "sourceName": "src/register/investors/InvestorManagementInternal.sol",
  "abi": [
    {
      "inputs": [],
      "name": "EnumerableSet__IndexOutOfBounds",
      "type": "error"
    },
    {
      "inputs": [],
      "name": "UintUtils__InsufficientHexLength",
      "type": "error"
    },
    {
      "anonymous": false,
      "inputs": [
        {
          "indexed": true,
          "internalType": "address",
          "name": "_addressForNewAdmin",
          "type": "address"
        }
      ],
      "name": "AdminChanged",
      "type": "event"
    },
    {
      "anonymous": false,
      "inputs": [
        {
          "indexed": false,
          "internalType": "address",
          "name": "investor",
          "type": "address"
        }
      ],
      "name": "DisableInvestor",
      "type": "event"
    },
    {
      "anonymous": false,
      "inputs": [
        {
          "indexed": false,
          "internalType": "address",
          "name": "investor",
          "type": "address"
        }
      ],
      "name": "EnableInvestor",
      "type": "event"
    },
    {
      "anonymous": false,
      "inputs": [
        {
          "indexed": false,
          "internalType": "uint64",
          "name": "version",
          "type": "uint64"
        }
      ],
      "name": "Initialized",
      "type": "event"
    },
    {
      "anonymous": false,
      "inputs": [
        {
          "indexed": true,
          "internalType": "bytes32",
          "name": "role",
          "type": "bytes32"
        },
        {
          "indexed": true,
          "internalType": "bytes32",
          "name": "previousAdminRole",
          "type": "bytes32"
        },
        {
          "indexed": true,
          "internalType": "bytes32",
          "name": "newAdminRole",
          "type": "bytes32"
        }
      ],
      "name": "RoleAdminChanged",
      "type": "event"
    },
    {
      "anonymous": false,
      "inputs": [
        {
          "indexed": true,
          "internalType": "bytes32",
          "name": "role",
          "type": "bytes32"
        },
        {
          "indexed": true,
          "internalType": "address",
          "name": "account",
          "type": "address"
        },
        {
          "indexed": true,
          "internalType": "address",
          "name": "sender",
          "type": "address"
        }
      ],
      "name": "RoleGranted",
      "type": "event"
    },
    {
      "anonymous": false,
      "inputs": [
        {
          "indexed": true,
          "internalType": "bytes32",
          "name": "role",
          "type": "bytes32"
        },
        {
          "indexed": true,
          "internalType": "address",
          "name": "account",
          "type": "address"
        },
        {
          "indexed": true,
          "internalType": "address",
          "name": "sender",
          "type": "address"
        }
      ],
      "name": "RoleRevoked",
      "type": "event"
    },
    {
      "anonymous": false,
      "inputs": [
        {
          "indexed": true,
          "internalType": "address",
          "name": "toBeAdded",
          "type": "address"
        }
      ],
      "name": "WalletAddedToWhitelist",
      "type": "event"
    },
    {
      "anonymous": false,
      "inputs": [
        {
          "indexed": true,
          "internalType": "address",
          "name": "toBeDeleted",
          "type": "address"
        }
      ],
      "name": "WalletDeletedFromWhitelist",
      "type": "event"
    },
    {
      "inputs": [],
      "name": "BND_ROLE",
      "outputs": [
        {
          "internalType": "bytes32",
          "name": "",
          "type": "bytes32"
        }
      ],
      "stateMutability": "view",
      "type": "function"
    },
    {
      "inputs": [],
      "name": "CAK_ROLE",
      "outputs": [
        {
          "internalType": "bytes32",
          "name": "",
          "type": "bytes32"
        }
      ],
      "stateMutability": "view",
      "type": "function"
    },
    {
      "inputs": [],
      "name": "CST_ROLE",
      "outputs": [
        {
          "internalType": "bytes32",
          "name": "",
          "type": "bytes32"
        }
      ],
      "stateMutability": "view",
      "type": "function"
    },
    {
      "inputs": [],
      "name": "PAY_ROLE",
      "outputs": [
        {
          "internalType": "bytes32",
          "name": "",
          "type": "bytes32"
        }
      ],
      "stateMutability": "view",
      "type": "function"
    },
    {
      "inputs": [
        {
          "internalType": "bytes32",
          "name": "role",
          "type": "bytes32"
        }
      ],
      "name": "getRoleAdmin",
      "outputs": [
        {
          "internalType": "bytes32",
          "name": "",
          "type": "bytes32"
        }
      ],
      "stateMutability": "view",
      "type": "function"
    },
    {
      "inputs": [
        {
          "internalType": "bytes32",
          "name": "role",
          "type": "bytes32"
        },
        {
          "internalType": "uint256",
          "name": "index",
          "type": "uint256"
        }
      ],
      "name": "getRoleMember",
      "outputs": [
        {
          "internalType": "address",
          "name": "",
          "type": "address"
        }
      ],
      "stateMutability": "view",
      "type": "function"
    },
    {
      "inputs": [
        {
          "internalType": "bytes32",
          "name": "role",
          "type": "bytes32"
        }
      ],
      "name": "getRoleMemberCount",
      "outputs": [
        {
          "internalType": "uint256",
          "name": "",
          "type": "uint256"
        }
      ],
      "stateMutability": "view",
      "type": "function"
    },
    {
      "inputs": [
        {
          "internalType": "bytes32",
          "name": "role",
          "type": "bytes32"
        },
        {
          "internalType": "address",
          "name": "account",
          "type": "address"
        }
      ],
      "name": "grantRole",
      "outputs": [],
      "stateMutability": "nonpayable",
      "type": "function"
    },
    {
      "inputs": [
        {
          "internalType": "bytes32",
          "name": "role",
          "type": "bytes32"
        },
        {
          "internalType": "address",
          "name": "account",
          "type": "address"
        }
      ],
      "name": "hasRole",
      "outputs": [
        {
          "internalType": "bool",
          "name": "",
          "type": "bool"
        }
      ],
      "stateMutability": "view",
      "type": "function"
    },
    {
      "inputs": [
        {
          "internalType": "bytes32",
          "name": "role",
          "type": "bytes32"
        }
      ],
      "name": "renounceRole",
      "outputs": [],
      "stateMutability": "nonpayable",
      "type": "function"
    },
    {
      "inputs": [
        {
          "internalType": "bytes32",
          "name": "role",
          "type": "bytes32"
        },
        {
          "internalType": "address",
          "name": "account",
          "type": "address"
        }
      ],
      "name": "revokeRole",
      "outputs": [],
      "stateMutability": "nonpayable",
      "type": "function"
    }
  ],
  "bytecode": "0x6080806040523461001657610ba1908161001c8239f35b600080fdfe608060408181526004918236101561001657600080fd5b600092833560e01c9182631c67a3631461052a57508163248a9ca3146104f25781632682ac91146104b75781632f2ff15d146102715781633bf2a9f4146102365781638865f1e2146101fb5781638bb9c5bf146101dc5781639010d07c1461017357816391d148541461011b578163ca15c873146100e2575063d547741f1461009e57600080fd5b346100de5760026100db916100d66100b536610564565b939092838752600080516020610b4c8339815191526020528620015461058f565b61090f565b80f35b5080fd5b905034610117576020366003190112610117576020928291358152600080516020610b4c833981519152845220549051908152f35b8280fd5b5050346100de5761016a6020928261013236610564565b908352600080516020610b4c833981519152865291206001600160a01b03909116600090815260019091016020526040902054151590565b90519015158152f35b905034610117578160031936011261011757816024359382358152600080516020610b4c833981519152602052209081548410156101ce57506020926101b891610890565b905491519160018060a01b039160031b1c168152f35b825163e637bf3b60e01b8152fd5b8390346100de5760203660031901126100de576100db9033903561090f565b5050346100de57816003193601126100de57602090517fa75205b8583660bdad375c0ccde11af17668d76a408a9a5e739251b0f7c598708152f35b5050346100de57816003193601126100de57602090517fd7aa2ddfa4e381128202bf365b7e0a176f2fca6cdf2f23c2b0a6f439376958908152f35b9050346101175761028136610564565b9092838552600080516020610b4c8339815191526020908082526102aa6002848920015461058f565b85156000036108be577fa75205b8583660bdad375c0ccde11af17668d76a408a9a5e739251b0f7c598708681036104515787528082526102fc3384892060019160005201602052604060002054151590565b8015610429575b156103cf575b85875281528186206001600160a01b03909316600081815260018501602052604090205490949015610363575b5050505033917f2f8788117e7eff1d82e926ec794901d17c78024a50270940304540a733656f0d8480a480f35b835490680100000000000000008210156103bc57506103a361038c826001889401875586610890565b819391549060031b91821b91600019901b19161790565b9055600183549385885201905284205538808080610336565b634e487b7160e01b885260419052602487fd5b825162461bcd60e51b8152808601839052602e60248201527f43616c6c6572206d7573742062652043414b206f722041444d494e20746f207360448201526d657420616e6f746865722043414b60901b6064820152608490fd5b5086805280825261044c3384892060019160005201602052604060002054151590565b610303565b87528082526104723384892060019160005201602052604060002054151590565b61030957606485838086519262461bcd60e51b845283015260248201527f43616c6c6572206d7573742062652043414b20746f20736574206120726f6c656044820152fd5b5050346100de57816003193601126100de57602090517ff698af62c65280e4949bceec64b760f3b7738217cbc536cdfc4c9463676b05c28152f35b9050346101175760203660031901126101175781602093600292358152600080516020610b4c83398151915285522001549051908152f35b8490346100de57816003193601126100de57807f6ba6f588bcdc2df8426603a466c98ab15e79f7fb7f37b53581ce39c1d01b724960209252f35b604090600319011261058a57600435906024356001600160a01b038116810361058a5790565b600080fd5b6000818152600080516020610b4c8339815191526020526040916105c53384842060019160005201602052604060002054151590565b156105cf57505050565b825167ffffffffffffffff929091336060840185811185821017610859578652602a84526020840191863684378451156108455760308353845191600192831015610831576078602187015360295b8381116107e157506107565786519060808201828110888211176107cd57885260428252602082019260603685378251156107b9576030845382518110156107b957607860218401536041905b80821161076757505061075657916106ea9391879360679798519586936106c060208601997f416363657373436f6e74726f6c3a206163636f756e74200000000000000000008b52518092603788019061086d565b8401917001034b99036b4b9b9b4b733903937b6329607d1b6037840152518093604884019061086d565b0103602881018452601f19958691011683019583871090871117610742575084926107396044959385601f945262461bcd60e51b8652602060048701525180928160248801528787019061086d565b01168101030190fd5b634e487b7160e01b81526041600452602490fd5b865163c913478560e01b8152600490fd5b9091600f811660108110156107a5576f181899199a1a9b1b9c1cb0b131b232b360811b901a6107968486610b3a565b5360041c91600019019061066b565b634e487b7160e01b88526032600452602488fd5b634e487b7160e01b86526032600452602486fd5b634e487b7160e01b86526041600452602486fd5b90600f8116601081101561081d576f181899199a1a9b1b9c1cb0b131b232b360811b901a61080f8389610b3a565b5360041c906000190161061e565b634e487b7160e01b87526032600452602487fd5b634e487b7160e01b85526032600452602485fd5b634e487b7160e01b84526032600452602484fd5b634e487b7160e01b84526041600452602484fd5b60005b8381106108805750506000910152565b8181015183820152602001610870565b80548210156108a85760005260206000200190600090565b634e487b7160e01b600052603260045260246000fd5b60405162461bcd60e51b8152602060048201526024808201527f5573652066756e6374696f6e206368616e676541646d696e526f6c6520696e736044820152631d19585960e21b6064820152608490fd5b908115610b35577fa75205b8583660bdad375c0ccde11af17668d76a408a9a5e739251b0f7c59870828103610aad57503360009081527f49954ab00355d427d0ed155d763a8dbf20297b7dde63ccd80a8bd10bb555baef602052604090205415610a5c575b600091808352600080516020610b4c833981519152602052604083209160018060a01b031691600181019083855281602052604085205490816109dc575b5050507ff6391f5c32d9c69d2a47ea670b442974b53935d1edc7fd64eb21e047a839171b339380a4565b600019916109ed8383540183610890565b90549060031b1c80610a0461038c86850186610890565b9055875283602052604087205580548015610a4857820191610a268383610890565b909182549160031b1b19169055558284526020528260408120553880806109b2565b634e487b7160e01b87526031600452602487fd5b60405162461bcd60e51b8152602060048201526024808201527f43616c6c6572206d7573742062652041444d494e20746f2072656d6f766520616044820152632043414b60e01b6064820152608490fd5b600052600080516020610b4c833981519152602052610ae033604060002060019160005201602052604060002054151590565b6109745760405162461bcd60e51b815260206004820152602360248201527f43616c6c6572206d7573742062652043414b20746f2072656d6f7665206120726044820152626f6c6560e81b6064820152608490fd5b6108be565b9081518110156108a857016020019056fe2e59e4c2e927cdddbb64e181e0668d9a0fa70dd88f94d999cd87d5496a20da62a264697066735822122086387b0fb1497ca28acea575fa1af7a3c68d449b55cda269fb88b58bc1b8fa4f64736f6c63430008140033",
  "linkReferences": {},
  "deployedLinkReferences": {}
}