{
  "_format": "hh-sol-artifact-1",
  "contractName": "ERC2771Context",
  "sourceName": "src/metatx/ERC2771Context.sol",
  "abi": [
    {
      "anonymous": false,
      "inputs": [
        {
          "indexed": false,
          "internalType": "uint64",
          "name": "version",
          "type": "uint64"
        }
      ],
      "name": "Initialized",
      "type": "event"
    },
    {
      "inputs": [
        {
          "internalType": "address",
          "name": "forwarder",
          "type": "address"
        }
      ],
      "name": "isTrustedForwarder",
      "outputs": [
        {
          "internalType": "bool",
          "name": "",
          "type": "bool"
        }
      ],
      "stateMutability": "view",
      "type": "function"
    },
    {
      "inputs": [],
      "name": "trustedForwarder",
      "outputs": [
        {
          "internalType": "address",
          "name": "",
          "type": "address"
        }
      ],
      "stateMutability": "view",
      "type": "function"
    }
  ],
  "bytecode": "0x608080604052346100155760c9908161001b8239f35b600080fdfe6080806040526004361015601257600080fd5b600090813560e01c908163572b6c0514605b5750637da0a87714603457600080fd5b3460585780600319360112605857546040516001600160a01b039091168152602090f35b80fd5b905034608f576020366003190112608f576004356001600160a01b0381811691829003608b576020935416148152f35b8380fd5b5080fdfea26469706673582212200ccf5b5e5ec7de5c0d0b0d038a3772a6b43e05dcc68e0560d36c3cd0967da94b64736f6c63430008140033",
  "linkReferences": {},
  "deployedLinkReferences": {}
}