{
  "_format": "hh-sol-artifact-1",
  "contractName": "IncrementalMerkleTreeMock",
  "sourceName": "src/data/IncrementalMerkleTreeMock.sol",
  "abi": [
    {
      "inputs": [
        {
          "internalType": "uint256",
          "name": "index",
          "type": "uint256"
        }
      ],
      "name": "at",
      "outputs": [
        {
          "internalType": "bytes32",
          "name": "",
          "type": "bytes32"
        }
      ],
      "stateMutability": "view",
      "type": "function"
    },
    {
      "inputs": [],
      "name": "height",
      "outputs": [
        {
          "internalType": "uint256",
          "name": "",
          "type": "uint256"
        }
      ],
      "stateMutability": "view",
      "type": "function"
    },
    {
      "inputs": [],
      "name": "pop",
      "outputs": [],
      "stateMutability": "nonpayable",
      "type": "function"
    },
    {
      "inputs": [
        {
          "internalType": "bytes32",
          "name": "hash",
          "type": "bytes32"
        }
      ],
      "name": "push",
      "outputs": [],
      "stateMutability": "nonpayable",
      "type": "function"
    },
    {
      "inputs": [],
      "name": "root",
      "outputs": [
        {
          "internalType": "bytes32",
          "name": "",
          "type": "bytes32"
        }
      ],
      "stateMutability": "view",
      "type": "function"
    },
    {
      "inputs": [
        {
          "internalType": "uint256",
          "name": "index",
          "type": "uint256"
        },
        {
          "internalType": "bytes32",
          "name": "hash",
          "type": "bytes32"
        }
      ],
      "name": "set",
      "outputs": [],
      "stateMutability": "nonpayable",
      "type": "function"
    },
    {
      "inputs": [],
      "name": "size",
      "outputs": [
        {
          "internalType": "uint256",
          "name": "",
          "type": "uint256"
        }
      ],
      "stateMutability": "view",
      "type": "function"
    }
  ],
  "bytecode": "0x6080806040523461001657610644908161001c8239f35b600080fdfe6080604052600436101561001257600080fd5b6000803560e01c9081630ef267431461008a5750806364c4ef1a14610085578063949d225d14610080578063a4ece52c1461007b578063b298e36b14610076578063e0886f90146100715763ebf0c7171461006c57600080fd5b6102be565b6102a0565b6101de565b6100fb565b6100d8565b6100a7565b346100a457806003193601126100a4575460805260206080f35b80fd5b346100d35760403660031901126100d3576100d1600019600054016024359060043560008061045a565b005b600080fd5b346100d35760003660031901126100d35760206100f361036d565b604051908152f35b346100d3576000806003193601126100a457805461011f61011a61036d565b61051b565b9060019081811b60021c83146101c8575b829084835b61016e575b5050505080610147575080f35b8061016561016061015a61016b9461051b565b9261051b565b6103ad565b90610443565b80f35b818110806101b5575b156101b0576101a361019d826101986101926101a99561031f565b506105c7565b6105f1565b93610600565b60011c90565b9183610135565b61013a565b50826101c08261031f565b505411610177565b6101d19061052f565b6101d9610552565b610130565b346100d35760203660031901126100d357600080546101fb61036d565b906001818180931b821c8414610270575b9291849383915b610225575b8561016b60043586610443565b8085108061025c575b1561025757828561024961024383979861031f565b50610422565b505001949391831c91610213565b610218565b50816102678661031f565b5054111561022e565b9050600160401b81101561029b578181018091818655101561029657819084805261020c565b610309565b61040c565b346100d35760203660031901126100d35760206100f36004356103ad565b346100d3576000806003193601126100a457808154806102e4575b602082604051908152f35b6102f291506000190161031f565b5080541561029657815260209081902054386102d9565b634e487b7160e01b600052603260045260246000fd5b60005481101561029657600080527f290decd9548b62a8d60345a988386fc84ba6bc95484008f6362f93160ef3e5630190600090565b80548210156102965760005260206000200190600090565b60009060005415801561037d5750565b90915061029657600080527f290decd9548b62a8d60345a988386fc84ba6bc95484008f6362f93160ef3e5635490565b6000541561029657600080527f290decd9548b62a8d60345a988386fc84ba6bc95484008f6362f93160ef3e5638054821015610296576000527f510e4e770828ddbf7f7b00ab00a9f6adaf81c0dc9cc85f1f8249c256942d61d9015490565b634e487b7160e01b600052604160045260246000fd5b8054600160401b81101561029b5761043f91600182018155610355565b9091565b9061045891600019600054019060008061045a565b565b9291926104678282610355565b506104728582610355565b969080549760031b600019988984831b921b19161790558484146104fc576104589660019287841684036104c3576000528660206000200101546000526020526040600020945b811c92019061045a565b80915096919654838301106104d9575b506104b9565b6000969196528186602060002001015490600052602052604060002094386104d3565b50505050505050565b634e487b7160e01b600052601160045260246000fd5b60001981019190821161052a57565b610505565b801561052a576000190190565b634e487b7160e01b600052603160045260246000fd5b600080549081156105c25760001982019180831015610296578180527f290decd9548b62a8d60345a988386fc84ba6bc95484008f6362f93160ef3e56201805482825590816105a057505055565b825260208220908101905b8181106105b757505055565b8281556001016105ab565b61053c565b80549081156105c257600019918201916105e18383610355565b909182549160031b1b1916905555565b600019811461052a5760010190565b906001820180921161052a5756fea26469706673582212209e482b3cc2733be5bcc8488017e495f545c5990817d4fb177ca476b358dff49b64736f6c63430008140033",
  "linkReferences": {},
  "deployedLinkReferences": {}
}