{
  "_format": "hh-sol-artifact-1",
  "contractName": "DoublyLinkedListBytes32Mock",
  "sourceName": "src/data/DoublyLinkedListBytes32Mock.sol",
  "abi": [
    {
      "inputs": [],
      "name": "DoublyLinkedList__InvalidInput",
      "type": "error"
    },
    {
      "inputs": [],
      "name": "DoublyLinkedList__NonExistentEntry",
      "type": "error"
    },
    {
      "inputs": [
        {
          "internalType": "bytes32",
          "name": "value",
          "type": "bytes32"
        }
      ],
      "name": "contains",
      "outputs": [
        {
          "internalType": "bool",
          "name": "",
          "type": "bool"
        }
      ],
      "stateMutability": "view",
      "type": "function"
    },
    {
      "inputs": [
        {
          "internalType": "bytes32",
          "name": "prevValue",
          "type": "bytes32"
        },
        {
          "internalType": "bytes32",
          "name": "newValue",
          "type": "bytes32"
        }
      ],
      "name": "insertAfter",
      "outputs": [
        {
          "internalType": "bool",
          "name": "",
          "type": "bool"
        }
      ],
      "stateMutability": "nonpayable",
      "type": "function"
    },
    {
      "inputs": [
        {
          "internalType": "bytes32",
          "name": "nextValue",
          "type": "bytes32"
        },
        {
          "internalType": "bytes32",
          "name": "newValue",
          "type": "bytes32"
        }
      ],
      "name": "insertBefore",
      "outputs": [
        {
          "internalType": "bool",
          "name": "",
          "type": "bool"
        }
      ],
      "stateMutability": "nonpayable",
      "type": "function"
    },
    {
      "inputs": [
        {
          "internalType": "bytes32",
          "name": "value",
          "type": "bytes32"
        }
      ],
      "name": "next",
      "outputs": [
        {
          "internalType": "bytes32",
          "name": "",
          "type": "bytes32"
        }
      ],
      "stateMutability": "view",
      "type": "function"
    },
    {
      "inputs": [],
      "name": "pop",
      "outputs": [
        {
          "internalType": "bytes32",
          "name": "",
          "type": "bytes32"
        }
      ],
      "stateMutability": "nonpayable",
      "type": "function"
    },
    {
      "inputs": [
        {
          "internalType": "bytes32",
          "name": "value",
          "type": "bytes32"
        }
      ],
      "name": "prev",
      "outputs": [
        {
          "internalType": "bytes32",
          "name": "",
          "type": "bytes32"
        }
      ],
      "stateMutability": "view",
      "type": "function"
    },
    {
      "inputs": [
        {
          "internalType": "bytes32",
          "name": "value",
          "type": "bytes32"
        }
      ],
      "name": "push",
      "outputs": [
        {
          "internalType": "bool",
          "name": "",
          "type": "bool"
        }
      ],
      "stateMutability": "nonpayable",
      "type": "function"
    },
    {
      "inputs": [
        {
          "internalType": "bytes32",
          "name": "value",
          "type": "bytes32"
        }
      ],
      "name": "remove",
      "outputs": [
        {
          "internalType": "bool",
          "name": "",
          "type": "bool"
        }
      ],
      "stateMutability": "nonpayable",
      "type": "function"
    },
    {
      "inputs": [
        {
          "internalType": "bytes32",
          "name": "oldValue",
          "type": "bytes32"
        },
        {
          "internalType": "bytes32",
          "name": "newValue",
          "type": "bytes32"
        }
      ],
      "name": "replace",
      "outputs": [
        {
          "internalType": "bool",
          "name": "",
          "type": "bool"
        }
      ],
      "stateMutability": "nonpayable",
      "type": "function"
    },
    {
      "inputs": [],
      "name": "shift",
      "outputs": [
        {
          "internalType": "bytes32",
          "name": "",
          "type": "bytes32"
        }
      ],
      "stateMutability": "nonpayable",
      "type": "function"
    },
    {
      "inputs": [
        {
          "internalType": "bytes32",
          "name": "value",
          "type": "bytes32"
        }
      ],
      "name": "unshift",
      "outputs": [
        {
          "internalType": "bool",
          "name": "",
          "type": "bool"
        }
      ],
      "stateMutability": "nonpayable",
      "type": "function"
    }
  ],
  "bytecode": "0x608080604052346100165761057b908161001c8239f35b600080fdfe60406080815260048036101561001457600080fd5b600091823560e01c806302d3af5b1461035f578063127189881461033757806312fc41ca14610319578063165c089f146102f75780631d1a696d146102d757806325a31125146102b057806395bc267314610287578063a4ece52c14610258578063b298e36b146101b7578063d1d09695146101155763efeb67ac1461009957600080fd5b34610111576100a736610380565b9390926100b38461039b565b1561010357506100d96020946100c985846103d8565b6100d38685610437565b90610476565b92836100ea575b5050519015158152f35b81526001845280828120558084528181205538806100e0565b8251630f71d89360e11b8152fd5b8280fd5b508290346101b35760203660031901126101b35782356101358380610437565b908381156101a3576020955061014a8261039b565b1561015b575b505050519015158152f35b6101989394508080528086528185822055818152600186528481205590816000526000602052806040600020556000526001602052604060002055565b600190838080610150565b83516305d4b02f60e31b81528690fd5b5080fd5b5082346102555760203660031901126102555782356101d682806103d8565b8290821561024557602095506101eb8361039b565b156101fd575b50505090519015158152f35b82859394506102279190816000526000602052806040600020556000526001602052604060002055565b828152808552808281205580805260018552205560018380806101f1565b84516305d4b02f60e31b81528690fd5b80fd5b8382346101b357816003193601126101b357610276826020936103d8565b90610280826104e6565b5051908152f35b50823461025557602036600319011261025557506102a7602092356104e6565b90519015158152f35b8382346101b3576102a76102d26020936102c936610380565b929080926103d8565b610476565b50823461025557602036600319011261025557506102a76020923561039b565b8382346101b3576102a76100d360209361031036610380565b92908092610437565b8382346101b357816003193601126101b35761027682602093610437565b509034610111576020366003190112610111576020926103589135906103d8565b9051908152f35b50903461011157602036600319011261011157602092610358913590610437565b6040906003190112610396576004359060243590565b600080fd5b80151590816103a8575090565b60008181526020819052604081205415801593506103c557505090565b6040919250808052600160205220541490565b91909182600052600181016020526040600020549283811515928361042e575b83610419575b50505061040757565b604051630f71d89360e11b8152600490fd5b610424929350610437565b14153883816103fe565b811593506103f8565b91909182600052806020526040600020549283811515928361046d575b836104625750505061040757565b6104249293506103d8565b81159350610454565b6000939291849183156104d45761048c8461039b565b15610498575b50505050565b60409394955080835282602052848484205584835260016020528383205581602052808383205581526001602052205560019038808080610492565b6040516305d4b02f60e31b8152600490fd5b906000916000906104f68161039b565b6104fe575050565b9091925061050c81836103d8565b6105168284610437565b81845283602052806040852055835260016020526040832055815280604081205580602052604081205560019056fea2646970667358221220ee59138588c9d91c037affd2cd7feb1409d8d73d93e102cb5cb3b7e4d7bfddf664736f6c63430008140033",
  "linkReferences": {},
  "deployedLinkReferences": {}
}