{
  "_format": "hh-sol-artifact-1",
  "contractName": "RegisterDiamondWritable",
  "sourceName": "src/register/RegisterDiamondWritable.sol",
  "abi": [
    {
      "inputs": [],
      "name": "DiamondWritable__InvalidInitializationParameters",
      "type": "error"
    },
    {
      "inputs": [],
      "name": "DiamondWritable__RemoveTargetNotZeroAddress",
      "type": "error"
    },
    {
      "inputs": [],
      "name": "DiamondWritable__ReplaceTargetIsIdentical",
      "type": "error"
    },
    {
      "inputs": [],
      "name": "DiamondWritable__SelectorAlreadyAdded",
      "type": "error"
    },
    {
      "inputs": [],
      "name": "DiamondWritable__SelectorIsImmutable",
      "type": "error"
    },
    {
      "inputs": [],
      "name": "DiamondWritable__SelectorNotFound",
      "type": "error"
    },
    {
      "inputs": [],
      "name": "DiamondWritable__SelectorNotSpecified",
      "type": "error"
    },
    {
      "inputs": [],
      "name": "DiamondWritable__TargetHasNoCode",
      "type": "error"
    },
    {
      "inputs": [],
      "name": "ERC20Base__ApproveFromZeroAddress",
      "type": "error"
    },
    {
      "inputs": [],
      "name": "ERC20Base__ApproveToZeroAddress",
      "type": "error"
    },
    {
      "inputs": [],
      "name": "ERC20Base__BurnExceedsBalance",
      "type": "error"
    },
    {
      "inputs": [],
      "name": "ERC20Base__BurnFromZeroAddress",
      "type": "error"
    },
    {
      "inputs": [],
      "name": "ERC20Base__InsufficientAllowance",
      "type": "error"
    },
    {
      "inputs": [],
      "name": "ERC20Base__MintToZeroAddress",
      "type": "error"
    },
    {
      "inputs": [],
      "name": "ERC20Base__TransferExceedsBalance",
      "type": "error"
    },
    {
      "inputs": [],
      "name": "ERC20Base__TransferFromZeroAddress",
      "type": "error"
    },
    {
      "inputs": [],
      "name": "ERC20Base__TransferToZeroAddress",
      "type": "error"
    },
    {
      "inputs": [],
      "name": "ERC20Snapshot__SnapshotIdDoesNotExists",
      "type": "error"
    },
    {
      "inputs": [],
      "name": "ERC20Snapshot__SnapshotIdIsZero",
      "type": "error"
    },
    {
      "inputs": [],
      "name": "EnumerableSet__IndexOutOfBounds",
      "type": "error"
    },
    {
      "inputs": [],
      "name": "ReentrancyGuard__ReentrantCall",
      "type": "error"
    },
    {
      "inputs": [],
      "name": "UintUtils__InsufficientHexLength",
      "type": "error"
    },
    {
      "anonymous": false,
      "inputs": [
        {
          "indexed": true,
          "internalType": "address",
          "name": "_addressForNewAdmin",
          "type": "address"
        }
      ],
      "name": "AdminChanged",
      "type": "event"
    },
    {
      "anonymous": false,
      "inputs": [
        {
          "indexed": true,
          "internalType": "address",
          "name": "owner",
          "type": "address"
        },
        {
          "indexed": true,
          "internalType": "address",
          "name": "spender",
          "type": "address"
        },
        {
          "indexed": false,
          "internalType": "uint256",
          "name": "value",
          "type": "uint256"
        }
      ],
      "name": "Approval",
      "type": "event"
    },
    {
      "anonymous": false,
      "inputs": [
        {
          "indexed": true,
          "internalType": "bytes32",
          "name": "txId",
          "type": "bytes32"
        },
        {
          "indexed": true,
          "internalType": "address",
          "name": "from",
          "type": "address"
        },
        {
          "indexed": true,
          "internalType": "address",
          "name": "to",
          "type": "address"
        },
        {
          "indexed": false,
          "internalType": "bytes32",
          "name": "hL",
          "type": "bytes32"
        },
        {
          "indexed": false,
          "internalType": "enum ICouponSnapshotManagementInternal.LStatus",
          "name": "status",
          "type": "uint8"
        }
      ],
      "name": "AssetHTLC",
      "type": "event"
    },
    {
      "anonymous": false,
      "inputs": [
        {
          "components": [
            {
              "internalType": "address",
              "name": "target",
              "type": "address"
            },
            {
              "internalType": "enum IDiamondWritableInternal.FacetCutAction",
              "name": "action",
              "type": "uint8"
            },
            {
              "internalType": "bytes4[]",
              "name": "selectors",
              "type": "bytes4[]"
            }
          ],
          "indexed": false,
          "internalType": "struct IDiamondWritableInternal.FacetCut[]",
          "name": "facetCuts",
          "type": "tuple[]"
        },
        {
          "indexed": false,
          "internalType": "address",
          "name": "target",
          "type": "address"
        },
        {
          "indexed": false,
          "internalType": "bytes",
          "name": "data",
          "type": "bytes"
        }
      ],
      "name": "DiamondCut",
      "type": "event"
    },
    {
      "anonymous": false,
      "inputs": [
        {
          "indexed": false,
          "internalType": "bytes32",
          "name": "contractHash",
          "type": "bytes32"
        }
      ],
      "name": "DisableContract",
      "type": "event"
    },
    {
      "anonymous": false,
      "inputs": [
        {
          "indexed": false,
          "internalType": "address",
          "name": "investor",
          "type": "address"
        }
      ],
      "name": "DisableInvestor",
      "type": "event"
    },
    {
      "anonymous": false,
      "inputs": [
        {
          "indexed": false,
          "internalType": "bytes32",
          "name": "contractHash",
          "type": "bytes32"
        }
      ],
      "name": "EnableContract",
      "type": "event"
    },
    {
      "anonymous": false,
      "inputs": [
        {
          "indexed": false,
          "internalType": "address",
          "name": "investor",
          "type": "address"
        }
      ],
      "name": "EnableInvestor",
      "type": "event"
    },
    {
      "anonymous": false,
      "inputs": [
        {
          "indexed": false,
          "internalType": "uint64",
          "name": "version",
          "type": "uint64"
        }
      ],
      "name": "Initialized",
      "type": "event"
    },
    {
      "anonymous": false,
      "inputs": [
        {
          "indexed": true,
          "internalType": "address",
          "name": "creator",
          "type": "address"
        },
        {
          "indexed": false,
          "internalType": "string",
          "name": "name",
          "type": "string"
        },
        {
          "indexed": false,
          "internalType": "string",
          "name": "isin",
          "type": "string"
        }
      ],
      "name": "NewBondDrafted",
      "type": "event"
    },
    {
      "anonymous": false,
      "inputs": [
        {
          "indexed": true,
          "internalType": "address",
          "name": "sender",
          "type": "address"
        },
        {
          "indexed": true,
          "internalType": "address",
          "name": "target",
          "type": "address"
        },
        {
          "indexed": false,
          "internalType": "string",
          "name": "message",
          "type": "string"
        }
      ],
      "name": "PublicMessage",
      "type": "event"
    },
    {
      "anonymous": false,
      "inputs": [
        {
          "indexed": true,
          "internalType": "address",
          "name": "emiter",
          "type": "address"
        },
        {
          "indexed": false,
          "internalType": "string",
          "name": "name",
          "type": "string"
        },
        {
          "indexed": false,
          "internalType": "string",
          "name": "isin",
          "type": "string"
        },
        {
          "indexed": false,
          "internalType": "enum IRegisterMetadataInternal.Status",
          "name": "status",
          "type": "uint8"
        }
      ],
      "name": "RegisterStatusChanged",
      "type": "event"
    },
    {
      "anonymous": false,
      "inputs": [
        {
          "indexed": true,
          "internalType": "bytes32",
          "name": "role",
          "type": "bytes32"
        },
        {
          "indexed": true,
          "internalType": "bytes32",
          "name": "previousAdminRole",
          "type": "bytes32"
        },
        {
          "indexed": true,
          "internalType": "bytes32",
          "name": "newAdminRole",
          "type": "bytes32"
        }
      ],
      "name": "RoleAdminChanged",
      "type": "event"
    },
    {
      "anonymous": false,
      "inputs": [
        {
          "indexed": true,
          "internalType": "bytes32",
          "name": "role",
          "type": "bytes32"
        },
        {
          "indexed": true,
          "internalType": "address",
          "name": "account",
          "type": "address"
        },
        {
          "indexed": true,
          "internalType": "address",
          "name": "sender",
          "type": "address"
        }
      ],
      "name": "RoleGranted",
      "type": "event"
    },
    {
      "anonymous": false,
      "inputs": [
        {
          "indexed": true,
          "internalType": "bytes32",
          "name": "role",
          "type": "bytes32"
        },
        {
          "indexed": true,
          "internalType": "address",
          "name": "account",
          "type": "address"
        },
        {
          "indexed": true,
          "internalType": "address",
          "name": "sender",
          "type": "address"
        }
      ],
      "name": "RoleRevoked",
      "type": "event"
    },
    {
      "anonymous": false,
      "inputs": [
        {
          "indexed": false,
          "internalType": "uint256",
          "name": "id",
          "type": "uint256"
        }
      ],
      "name": "Snapshot",
      "type": "event"
    },
    {
      "anonymous": false,
      "inputs": [
        {
          "indexed": true,
          "internalType": "uint256",
          "name": "couponDate",
          "type": "uint256"
        },
        {
          "indexed": true,
          "internalType": "uint256",
          "name": "currentTimestamp",
          "type": "uint256"
        },
        {
          "indexed": true,
          "internalType": "uint256",
          "name": "nextTimestamp",
          "type": "uint256"
        }
      ],
      "name": "SnapshotTimestampChange",
      "type": "event"
    },
    {
      "anonymous": false,
      "inputs": [
        {
          "indexed": true,
          "internalType": "address",
          "name": "from",
          "type": "address"
        },
        {
          "indexed": true,
          "internalType": "address",
          "name": "to",
          "type": "address"
        },
        {
          "indexed": false,
          "internalType": "uint256",
          "name": "value",
          "type": "uint256"
        }
      ],
      "name": "Transfer",
      "type": "event"
    },
    {
      "anonymous": false,
      "inputs": [
        {
          "indexed": true,
          "internalType": "address",
          "name": "toBeAdded",
          "type": "address"
        }
      ],
      "name": "WalletAddedToWhitelist",
      "type": "event"
    },
    {
      "anonymous": false,
      "inputs": [
        {
          "indexed": true,
          "internalType": "address",
          "name": "toBeDeleted",
          "type": "address"
        }
      ],
      "name": "WalletDeletedFromWhitelist",
      "type": "event"
    },
    {
      "inputs": [],
      "name": "BND_ROLE",
      "outputs": [
        {
          "internalType": "bytes32",
          "name": "",
          "type": "bytes32"
        }
      ],
      "stateMutability": "view",
      "type": "function"
    },
    {
      "inputs": [],
      "name": "CAK_ROLE",
      "outputs": [
        {
          "internalType": "bytes32",
          "name": "",
          "type": "bytes32"
        }
      ],
      "stateMutability": "view",
      "type": "function"
    },
    {
      "inputs": [],
      "name": "CST_ROLE",
      "outputs": [
        {
          "internalType": "bytes32",
          "name": "",
          "type": "bytes32"
        }
      ],
      "stateMutability": "view",
      "type": "function"
    },
    {
      "inputs": [],
      "name": "PAY_ROLE",
      "outputs": [
        {
          "internalType": "bytes32",
          "name": "",
          "type": "bytes32"
        }
      ],
      "stateMutability": "view",
      "type": "function"
    },
    {
      "inputs": [
        {
          "internalType": "uint256",
          "name": "_couponDate",
          "type": "uint256"
        }
      ],
      "name": "_totalSupplyAtCoupon",
      "outputs": [
        {
          "internalType": "uint256",
          "name": "",
          "type": "uint256"
        }
      ],
      "stateMutability": "view",
      "type": "function"
    },
    {
      "inputs": [
        {
          "internalType": "address",
          "name": "holder",
          "type": "address"
        },
        {
          "internalType": "address",
          "name": "spender",
          "type": "address"
        }
      ],
      "name": "allowance",
      "outputs": [
        {
          "internalType": "uint256",
          "name": "",
          "type": "uint256"
        }
      ],
      "stateMutability": "view",
      "type": "function"
    },
    {
      "inputs": [
        {
          "internalType": "address",
          "name": "spender",
          "type": "address"
        },
        {
          "internalType": "uint256",
          "name": "amount",
          "type": "uint256"
        }
      ],
      "name": "approve",
      "outputs": [
        {
          "internalType": "bool",
          "name": "",
          "type": "bool"
        }
      ],
      "stateMutability": "nonpayable",
      "type": "function"
    },
    {
      "inputs": [
        {
          "internalType": "address",
          "name": "account",
          "type": "address"
        }
      ],
      "name": "balanceOf",
      "outputs": [
        {
          "internalType": "uint256",
          "name": "",
          "type": "uint256"
        }
      ],
      "stateMutability": "view",
      "type": "function"
    },
    {
      "inputs": [
        {
          "internalType": "address",
          "name": "account",
          "type": "address"
        },
        {
          "internalType": "uint256",
          "name": "snapshotId",
          "type": "uint256"
        }
      ],
      "name": "balanceOfAt",
      "outputs": [
        {
          "internalType": "uint256",
          "name": "",
          "type": "uint256"
        }
      ],
      "stateMutability": "view",
      "type": "function"
    },
    {
      "inputs": [],
      "name": "decimals",
      "outputs": [
        {
          "internalType": "uint8",
          "name": "",
          "type": "uint8"
        }
      ],
      "stateMutability": "view",
      "type": "function"
    },
    {
      "inputs": [
        {
          "internalType": "address",
          "name": "spender",
          "type": "address"
        },
        {
          "internalType": "uint256",
          "name": "subtractedValue",
          "type": "uint256"
        }
      ],
      "name": "decreaseAllowance",
      "outputs": [
        {
          "internalType": "bool",
          "name": "",
          "type": "bool"
        }
      ],
      "stateMutability": "nonpayable",
      "type": "function"
    },
    {
      "inputs": [
        {
          "components": [
            {
              "internalType": "address",
              "name": "target",
              "type": "address"
            },
            {
              "internalType": "enum IDiamondWritableInternal.FacetCutAction",
              "name": "action",
              "type": "uint8"
            },
            {
              "internalType": "bytes4[]",
              "name": "selectors",
              "type": "bytes4[]"
            }
          ],
          "internalType": "struct IDiamondWritableInternal.FacetCut[]",
          "name": "facetCuts",
          "type": "tuple[]"
        },
        {
          "internalType": "address",
          "name": "target",
          "type": "address"
        },
        {
          "internalType": "bytes",
          "name": "data",
          "type": "bytes"
        }
      ],
      "name": "diamondCut",
      "outputs": [],
      "stateMutability": "nonpayable",
      "type": "function"
    },
    {
      "inputs": [
        {
          "internalType": "bytes32",
          "name": "role",
          "type": "bytes32"
        }
      ],
      "name": "getRoleAdmin",
      "outputs": [
        {
          "internalType": "bytes32",
          "name": "",
          "type": "bytes32"
        }
      ],
      "stateMutability": "view",
      "type": "function"
    },
    {
      "inputs": [
        {
          "internalType": "bytes32",
          "name": "role",
          "type": "bytes32"
        },
        {
          "internalType": "uint256",
          "name": "index",
          "type": "uint256"
        }
      ],
      "name": "getRoleMember",
      "outputs": [
        {
          "internalType": "address",
          "name": "",
          "type": "address"
        }
      ],
      "stateMutability": "view",
      "type": "function"
    },
    {
      "inputs": [
        {
          "internalType": "bytes32",
          "name": "role",
          "type": "bytes32"
        }
      ],
      "name": "getRoleMemberCount",
      "outputs": [
        {
          "internalType": "uint256",
          "name": "",
          "type": "uint256"
        }
      ],
      "stateMutability": "view",
      "type": "function"
    },
    {
      "inputs": [
        {
          "internalType": "bytes32",
          "name": "role",
          "type": "bytes32"
        },
        {
          "internalType": "address",
          "name": "account",
          "type": "address"
        }
      ],
      "name": "grantRole",
      "outputs": [],
      "stateMutability": "nonpayable",
      "type": "function"
    },
    {
      "inputs": [
        {
          "internalType": "bytes32",
          "name": "role",
          "type": "bytes32"
        },
        {
          "internalType": "address",
          "name": "account",
          "type": "address"
        }
      ],
      "name": "hasRole",
      "outputs": [
        {
          "internalType": "bool",
          "name": "",
          "type": "bool"
        }
      ],
      "stateMutability": "view",
      "type": "function"
    },
    {
      "inputs": [
        {
          "internalType": "address",
          "name": "spender",
          "type": "address"
        },
        {
          "internalType": "uint256",
          "name": "addedValue",
          "type": "uint256"
        }
      ],
      "name": "increaseAllowance",
      "outputs": [
        {
          "internalType": "bool",
          "name": "",
          "type": "bool"
        }
      ],
      "stateMutability": "nonpayable",
      "type": "function"
    },
    {
      "inputs": [
        {
          "internalType": "string",
          "name": "name_",
          "type": "string"
        },
        {
          "internalType": "string",
          "name": "isin_",
          "type": "string"
        },
        {
          "internalType": "uint256",
          "name": "expectedSupply_",
          "type": "uint256"
        },
        {
          "internalType": "bytes32",
          "name": "currency_",
          "type": "bytes32"
        },
        {
          "internalType": "uint256",
          "name": "unitVal_",
          "type": "uint256"
        },
        {
          "internalType": "uint256",
          "name": "couponRate_",
          "type": "uint256"
        },
        {
          "internalType": "uint256",
          "name": "creationDate_",
          "type": "uint256"
        },
        {
          "internalType": "uint256",
          "name": "issuanceDate_",
          "type": "uint256"
        },
        {
          "internalType": "uint256",
          "name": "maturityDate_",
          "type": "uint256"
        },
        {
          "internalType": "uint256[]",
          "name": "couponDates_",
          "type": "uint256[]"
        },
        {
          "internalType": "uint256",
          "name": "cutofftime_",
          "type": "uint256"
        }
      ],
      "name": "initialize",
      "outputs": [],
      "stateMutability": "nonpayable",
      "type": "function"
    },
    {
      "inputs": [],
      "name": "name",
      "outputs": [
        {
          "internalType": "string",
          "name": "",
          "type": "string"
        }
      ],
      "stateMutability": "view",
      "type": "function"
    },
    {
      "inputs": [
        {
          "internalType": "bytes32",
          "name": "role",
          "type": "bytes32"
        }
      ],
      "name": "renounceRole",
      "outputs": [],
      "stateMutability": "nonpayable",
      "type": "function"
    },
    {
      "inputs": [
        {
          "internalType": "bytes32",
          "name": "role",
          "type": "bytes32"
        },
        {
          "internalType": "address",
          "name": "account",
          "type": "address"
        }
      ],
      "name": "revokeRole",
      "outputs": [],
      "stateMutability": "nonpayable",
      "type": "function"
    },
    {
      "inputs": [],
      "name": "symbol",
      "outputs": [
        {
          "internalType": "string",
          "name": "",
          "type": "string"
        }
      ],
      "stateMutability": "view",
      "type": "function"
    },
    {
      "inputs": [],
      "name": "totalSupply",
      "outputs": [
        {
          "internalType": "uint256",
          "name": "",
          "type": "uint256"
        }
      ],
      "stateMutability": "view",
      "type": "function"
    },
    {
      "inputs": [
        {
          "internalType": "uint256",
          "name": "snapshotId",
          "type": "uint256"
        }
      ],
      "name": "totalSupplyAt",
      "outputs": [
        {
          "internalType": "uint256",
          "name": "",
          "type": "uint256"
        }
      ],
      "stateMutability": "view",
      "type": "function"
    },
    {
      "inputs": [
        {
          "internalType": "address",
          "name": "recipient",
          "type": "address"
        },
        {
          "internalType": "uint256",
          "name": "amount",
          "type": "uint256"
        }
      ],
      "name": "transfer",
      "outputs": [
        {
          "internalType": "bool",
          "name": "",
          "type": "bool"
        }
      ],
      "stateMutability": "nonpayable",
      "type": "function"
    },
    {
      "inputs": [
        {
          "internalType": "address",
          "name": "holder",
          "type": "address"
        },
        {
          "internalType": "address",
          "name": "recipient",
          "type": "address"
        },
        {
          "internalType": "uint256",
          "name": "amount",
          "type": "uint256"
        }
      ],
      "name": "transferFrom",
      "outputs": [
        {
          "internalType": "bool",
          "name": "",
          "type": "bool"
        }
      ],
      "stateMutability": "nonpayable",
      "type": "function"
    }
  ],
  "bytecode": "0x6080806040523461001657614602908161001c8239f35b600080fdfe6080604052600436101561001257600080fd5b60003560e01c806306fdde03146101c7578063095ea7b3146101c257806318160ddd146101bd5780631c67a363146101b85780631f931c1c146101b357806323b872dd146101ae578063248a9ca3146101a95780632682ac91146101a45780632dd547fc1461019f5780632f2ff15d1461019a578063313ce5671461019557806339509351146101905780633bf2a9f41461018b5780633e0abded146101865780634ee2cd7e1461018157806370a082311461017c5780638865f1e2146101775780638bb9c5bf146101725780639010d07c1461016d57806391d148541461016857806395d89b4114610163578063981b24d01461015e578063a457c2d714610159578063a9059cbb14610154578063ca15c8731461014f578063d547741f1461014a5763dd62ed3e1461014557600080fd5b610cd1565b610c85565b610c4c565b610c24565b610bc8565b610baa565b610af4565b610a9c565b610a2b565b610a0e565b6109e5565b6109b9565b61093b565b610915565b6108da565b610870565b610830565b6106d3565b610643565b610521565b6104e5565b6104b6565b61043b565b6103d3565b610396565b610364565b610228565b60005b8381106101df5750506000910152565b81810151838201526020016101cf565b90602091610208815180928185528580860191016101cc565b601f01601f1916010190565b9060206102259281815201906101ef565b90565b3461031f5760008060031936011261031c57604051908060008051602061452d8339815191529081549061025b826120fc565b808652926001928084169081156102ef5750600114610295575b61029186610285818803826105ad565b60405191829182610214565b0390f35b815292507fd57194acb5baf0f96f13d0ba472666d84b214d5a2f06884ca10e9b1f1d7bcf025b8284106102d75750505081016020016102858261029138610275565b805460208587018101919091529093019281016102bb565b90508695506102919693506020925061028594915060ff191682840152151560051b820101929338610275565b80fd5b600080fd5b600435906001600160a01b038216820361031f57565b602435906001600160a01b038216820361031f57565b35906001600160a01b038216820361031f57565b3461031f57604036600319011261031f57602061038c610382610324565b60243590336138f8565b6040519015158152f35b3461031f57600036600319011261031f5760207fbbbdc1476a0878f2ef9a893c81f5b6f6ea1b3acaf18ff47ccb69cd4267d50c8854604051908152f35b3461031f57600036600319011261031f5760206040517f6ba6f588bcdc2df8426603a466c98ab15e79f7fb7f37b53581ce39c1d01b72498152f35b9181601f8401121561031f578235916001600160401b03831161031f576020838186019501011161031f57565b3461031f57606036600319011261031f576004356001600160401b0380821161031f573660238301121561031f5781600401359181831161031f573660248460051b8301011161031f5761048d61033a565b60443592831161031f576104b4936104ab602494369060040161040e565b9490930161155e565b005b3461031f57606036600319011261031f57602061038c6104d4610324565b6104dc61033a565b60443591613587565b3461031f57602036600319011261031f576004356000526000805160206144cd8339815191526020526020600260406000200154604051908152f35b3461031f57600036600319011261031f5760206040517ff698af62c65280e4949bceec64b760f3b7738217cbc536cdfc4c9463676b05c28152f35b634e487b7160e01b600052604160045260246000fd5b606081019081106001600160401b0382111761058d57604052565b61055c565b608081019081106001600160401b0382111761058d57604052565b90601f801991011681019081106001600160401b0382111761058d57604052565b6001600160401b03811161058d5760051b60200190565b81601f8201121561031f578035916105fc836105ce565b9261060a60405194856105ad565b808452602092838086019260051b82010192831161031f578301905b828210610634575050505090565b81358152908301908301610626565b3461031f5761016036600319011261031f576001600160401b0360043581811161031f5761067590369060040161040e565b9060243583811161031f5761068e90369060040161040e565b926101243594851161031f576106ab6104b49536906004016105e5565b926101443594610104359360e4359360c4359360a43593608435936064359360443593610ffa565b3461031f57604036600319011261031f576004356106ef61033a565b906000918183526000805160206144cd833981519152806020526107196002604086200154610dd1565b8215600003612c005760008051602061454d8339815191528381036107bc5750506107829161076d3361074a610d00565b6001600160a01b0390911660009081526001919091016020526040902054151590565b8015610785575b61077d90612b9d565b612d40565b80f35b503360009081527f49954ab00355d427d0ed155d763a8dbf20297b7dde63ccd80a8bd10bb555baef60205260409020541515610774565b84526020526107de336040852060019160005201602052604060002054151590565b156107ec5761078291612d40565b606460405162461bcd60e51b815260206004820152602060248201527f43616c6c6572206d7573742062652043414b20746f20736574206120726f6c656044820152fd5b3461031f57600036600319011261031f57602060ff7f8c998f45074727a62053813302c526655913012298b223f931495bf68495bf685416604051908152f35b3461031f57604036600319011261031f57610889610324565b6108ad8161089633613784565b9060018060a01b0316600052602052604060002090565b5490600182016108c3575b602060405160018152f35b6108d2916024350190336138f8565b5038806108b8565b3461031f57600036600319011261031f5760206040517fd7aa2ddfa4e381128202bf365b7e0a176f2fca6cdf2f23c2b0a6f439376958908152f35b3461031f57602036600319011261031f576020610933600435612fd0565b604051908152f35b3461031f57604036600319011261031f576020610956610324565b6001600160a01b03811660009081527fcd7a55ef023eb5931cc022a9bdc64cb5b46c3a6e53bcaa84915eea6084f1c7b46020526040902061099990602435613ee2565b9190156109a95750604051908152f35b6109b391506137bd565b54610933565b3461031f57602036600319011261031f5760206109dc6109d7610324565b6137bd565b54604051908152f35b3461031f57600036600319011261031f57602060405160008051602061454d8339815191528152f35b3461031f57602036600319011261031f576104b433600435612dd9565b3461031f57604036600319011261031f576024356004356000526000805160206144cd83398151915260205260406000208054821015610a8a57602091610a7191610fe2565b905460405160039290921b1c6001600160a01b03168152f35b60405163e637bf3b60e01b8152600490fd5b3461031f57604036600319011261031f57602061038c610aba61033a565b60043560009081526000805160206144cd833981519152845260408082206001600160a01b03909316825260019092016020522054151590565b3461031f5760008060031936011261031c5760405190806000805160206144ed83398151915290815490610b27826120fc565b808652926001928084169081156102ef5750600114610b505761029186610285818803826105ad565b815292507fcc3d774b7bc1a58e8bd3903296d0f2a63069a7a4ea32e07e7f4ed8d805a9c2eb5b828410610b925750505081016020016102858261029138610275565b80546020858701810191909152909301928101610b76565b3461031f57602036600319011261031f57602061093360043561404f565b3461031f57604036600319011261031f57610be1610324565b60243590610bf28161089633613784565b5491828111610c1357610c07920390336138f8565b50602060405160018152f35b60405162e14ccf60e11b8152600490fd5b3461031f57604036600319011261031f57602061038c610c42610324565b6024359033613976565b3461031f57602036600319011261031f576004356000526000805160206144cd8339815191526020526020604060002054604051908152f35b3461031f57604036600319011261031f576104b4600435610ca461033a565b90806000526000805160206144cd833981519152602052610ccc600260406000200154610dd1565b612dd9565b3461031f57604036600319011261031f5760206109dc610cef610324565b610896610cfa61033a565b91613784565b60008051602061454d8339815191526000526000805160206144cd8339815191526020527f50b3f923c5a6856525e4c909aeb0ca298445e09ab2763b3edcaf4569b7b61a2a90565b6000527f208c70ce3ff0f2071151e1534b966d96504b04b4e1fbd394455c7a7db215e2d0602052604060002090565b7ff698af62c65280e4949bceec64b760f3b7738217cbc536cdfc4c9463676b05c26000526000805160206144cd8339815191526020527fabd61a76922391e052347881b66bf46d3dcbf17e7d4372fe4f5b73d5552bd1c190565b806000526000805160206144cd833981519152602052610e0533604060002060019160005201602052604060002054151590565b15610e0d5750565b33610e16614303565b906030610e228361431e565b536078610e2e8361432b565b5360295b60018111610eee5750610edc57610ec0610e9591610eb2610e55610ed89561434c565b610e8f604051958694610e8f602087016017907f416363657373436f6e74726f6c3a206163636f756e742000000000000000000081520190565b90610f2f565b7001034b99036b4b9b9b4b733903937b6329607d1b815260110190565b03601f1981018352826105ad565b60405162461bcd60e51b815291829160048301610214565b0390fd5b60405163c913478560e01b8152600490fd5b90600f81166010811015610f2a576f181899199a1a9b1b9c1cb0b131b232b360811b901a610f1c838561433b565b5360041c9060001901610e32565b610f46565b90610f42602092828151948592016101cc565b0190565b634e487b7160e01b600052603260045260246000fd5b60008051602061440d8339815191528054821015610f2a576000527f226149a3cef8f8257adde2603ff728efb20416199df5016f2e10e6696ab27a040190600090565b6000805160206145ad8339815191528054821015610f2a576000527ff5a3bcbc6b6d041d725e0cd57d56807470e3ad7b22c8030b45ce347aacbb094c0190600090565b8054821015610f2a5760005260206000200190600090565b9a9896949290916001600160401b039c9a9896949260008051602061458d8339815191525460ff8160401c16159e8f911680159182611155575b50600114908161114b575b159081611142575b506110ef5760008051602061458d833981519152805467ffffffffffffffff1916600117905561107b9c8e6110ca5761115d565b61108157565b60008051602061458d833981519152805460ff60401b19169055604051600181527fc7f505b2f371ae2175ee4913f4499e1f2633a7b5936321eed1cdaeb6115181d290602090a1565b60008051602061458d833981519152805460ff60401b1916600160401b17905561115d565b60405162461bcd60e51b815260206004820152602560248201527f496e697469616c697a61626c653a20496e76616c696420496e697469616c697a60448201526430ba34b7b760d91b6064820152608490fd5b90501538611047565b303b15915061103f565b91508f611034565b9b969a959199949098939792978c60008080526000805160206144cd833981519152602052604081206111a0338260019160005201602052604060002054151590565b15611436575b506113be98956113297f9c99cfc2b1740648876aee40ef245ae7527339df99966fd618b900e61bc76e759f8f8f986113eb9f9e9c988f906112bd6113719a61139a9f9a6112e1946113959f97611294611305996112999461134d9f339033907f2f8788117e7eff1d82e926ec794901d17c78024a50270940304540a733656f0d8180a4611231612a17565b7fe40b5d020f846aaa1a692b46598f2e6c6d0a32cf717c27c286e348cc2a7d304e80546001600160a01b0319163317905561126b33612c51565b611273612a5f565b61127b612ac9565b611283612b33565b61128f85858484613cee565b6122e4565b6123dd565b7fe02854d75ca0f6b56099fb1e1546a75ef76f441f4e6082f2e3cbb1e8dc5591a355565b7fe02854d75ca0f6b56099fb1e1546a75ef76f441f4e6082f2e3cbb1e8dc5591a455565b7fe02854d75ca0f6b56099fb1e1546a75ef76f441f4e6082f2e3cbb1e8dc5591a555565b7fe02854d75ca0f6b56099fb1e1546a75ef76f441f4e6082f2e3cbb1e8dc5591a655565b7fe02854d75ca0f6b56099fb1e1546a75ef76f441f4e6082f2e3cbb1e8dc5591a755565b7fe02854d75ca0f6b56099fb1e1546a75ef76f441f4e6082f2e3cbb1e8dc5591a855565b7fe02854d75ca0f6b56099fb1e1546a75ef76f441f4e6082f2e3cbb1e8dc5591a955565b612597565b7fe02854d75ca0f6b56099fb1e1546a75ef76f441f4e6082f2e3cbb1e8dc5591ab55565b6113c661285c565b60008051602061456d833981519152805460ff1916905560405193849333978561267d565b0390a260008051602061456d8339815191525460ff167fda2010acfda7a262372331cb3b57e3f648f63eb009a423a2b5602cfa4f9bff5160405180611431339482612766565b0390a2565b949092969150600160401b9d9a999793989585549e8f101561058d578f7f9c99cfc2b1740648876aee40ef245ae7527339df99966fd618b900e61bc76e759f9c8f8f946113eb9f8f9e6113be9f61139a9e6112996112bd926113959f976112946113719f9d6113299c61134d9f6113059c6114d76114bd8d60016112e19f01845583610fe2565b919091339083549060031b91821b91600019901b19161790565b905560018154913384520160205260408220559f509f9c5050505050509a5050999d9f9e50509850509f50975095989a6111a6565b6001600160401b03811161058d57601f01601f191660200190565b9291926115338261150c565b9161154160405193846105ad565b82948184528183011161031f578281602093846000960137010152565b3360009081527f50b3f923c5a6856525e4c909aeb0ca298445e09ab2763b3edcaf4569b7b61a2b60205260409020549395949193156116d0576115a0846105ce565b9360406115af815196876105ad565b81865260209283870190600593841b81019336851161031f5781925b8584106115f157505050505050506115ef93946115e9913691611527565b91611866565b565b6001600160401b03843581811161031f5784019060608236031261031f5786519161161b83610572565b61162481610350565b835289810135600381101561031f578a8401528781013591821161031f570136601f8201121561031f578035611659816105ce565b91611666895193846105ad565b8183528a80840192871b8201019036821161031f57908b80959396949201955b8187106116a1575050839450888201528152019301926115cb565b9395929450909282356001600160e01b03198116810361031f57818d92918392520192019492908b9492611686565b60405162461bcd60e51b815260206004820152602860248201527f43616c6c6572206d7573742062652043414b20746f2065786563757465206469604482015267185b5bdb9910dd5d60c21b6064820152608490fd5b8051821015610f2a5760209160051b010190565b634e487b7160e01b600052602160045260246000fd5b6003111561175a57565b61173a565b60008051602061444d83398151915255565b93929093606092838201848352865180915260809485840191868160051b860101966020809a0193600091825b8484106117d157505050505050506117c490610225959683019060018060a01b03169052565b60408184039101526101ef565b90919293949599607f198982030184528c8b51918881019160018060a01b038451168252830151600381101561175a578f93929180859283899301528b6040809601519582015284518094520192019084905b8082106118445750505090806001929c019401940192959493919061179e565b9193806001929463ffffffff60e01b875116815201940192018f939291611824565b92909261189f6118987f208c70ce3ff0f2071151e1534b966d96504b04b4e1fbd394455c7a7db215e2cf5461ffff1690565b61ffff1690565b91829360009560078516611a55575b6000945b84518610156119b4576118c58686611726565b519060208201516118d581611750565b604080840151511561196157506118eb81611750565b806119095750906001986118fe92611ae6565b9790955b01946118b2565b6119168198939298611750565b6001810361193057509061192b600192611ee6565b611902565b8061193c600292611750565b1461194b575b50600190611902565b6001986119589297611cbb565b97909590611942565b5162461bcd60e51b815260206004820152602760248201527f4469616d6f6e645772697461626c653a2053656c6563746f72204e6f742053706044820152661958da599a595960ca1b6064820152608490fd5b819491929550967f8faa70878671ccd212d20771b795c50af8fd3ff6cf27f4bde57e5d4de0aeb67393976115ef978103611a20575b60078116611a0c575b5050611a048560405193849384611771565b0390a161202c565b611a189060031c610d48565b5538806119f2565b7f208c70ce3ff0f2071151e1534b966d96504b04b4e1fbd394455c7a7db215e2cf805461ffff191661ffff83161790556119e9565b9550611a638460031c610d48565b54956118ae565b60809060208152602360208201527f4469616d6f6e645772697461626c653a2054617267657420486173204e6f20436040820152626f646560e81b60608201520190565b63ffffffff60e01b166000527f208c70ce3ff0f2071151e1534b966d96504b04b4e1fbd394455c7a7db215e2ce602052604060002090565b82519091906001600160a01b03166001600160a01b0381163014159081611c6a575b50611c515760009384925b6040808601518051861015611c4557611b2f86611b3d92611726565b516001600160e01b03191690565b90611b70611b64611b5e611b5085611aae565b546001600160601b03191690565b60601c90565b6001600160a01b031690565b611bf25750855182906001600160601b031990611ba1906001600160a01b03165b60601b6001600160601b03191690565b1617611bac82611aae565b5560e090818360051b169463ffffffff60e01b809216861c91861c1916179314611bdd575b60019384019301611b13565b91611bea8360031c610d48565b558491611bd1565b5162461bcd60e51b815260206004820152602760248201527f4469616d6f6e645772697461626c653a2053656c6563746f7220416c726561646044820152661e48105919195960ca1b6064820152608490fd5b50509250925092509190565b60405162461bcd60e51b815280610ed860048201611a6a565b3b15905038611b08565b60809060208152602660208201527f4469616d6f6e645772697461626c653a2053656c6563746f7220497320496d6d604082015265757461626c6560d01b60608201520190565b82519293929091906001600160a01b0316611e895790600780821691600390600090821c5b604095868901518051841015611e7a57611b2f84611cfd92611726565b95611d0787611aae565b54978860601c8015611e2a573014611e13575081611e015750506000190190611d2f82610d48565b5494849687915b60e063ffffffff811b926000611d5d858c600598891b1b16948681168603611dcb57611aae565b5580881c611fff16941b1691858414611db95790611d8e9291611d7f85610d48565b5491831c921c19161791610d48565b555b8515611da3575b60010190949394611ce0565b93506000611db082610d48565b55600093611d97565b9180949893501c921c19161793611d90565b611de7611dda611b5088611aae565b6001600160601b03191690565b6001600160601b03851617611dfb87611aae565b55611aae565b60001901969095919291879190611d36565b5162461bcd60e51b815280610ed860048201611c74565b505162461bcd60e51b815260206004820152602360248201527f4469616d6f6e645772697461626c653a2053656c6563746f72204e6f7420466f6044820152621d5b9960ea1b6064820152608490fd5b5097509394505090501b179190565b60405162461bcd60e51b815260206004820152602f60248201527f4469616d6f6e645772697461626c653a2052656d6f766520546172676574204e60448201526e6f74205a65726f204164647265737360881b6064820152608490fd5b80516001600160a01b03163b15611c515760005b6040808301518051831015611ff657611b2f83611f1692611726565b90611f2082611aae565b54908160601c8015611e2a57308114611fde578551611f47906001600160a01b0316611b64565b14611f87575083516001939291611f80916001600160601b0390611f7790611dda906001600160a01b0316611b91565b91161791611aae565b5501611efa565b5162461bcd60e51b815260206004820152602b60248201527f4469616d6f6e645772697461626c653a205265706c616365546172676574204960448201526a1cc81259195b9d1a58d85b60aa1b6064820152608490fd5b505162461bcd60e51b815280610ed860048201611c74565b50505050565b3d15612027573d9061200d8261150c565b9161201b60405193846105ad565b82523d6000602084013e565b606090565b81516001600160a01b0382169081159015810361209c571561204d57505050565b300361207d575b816000929160208493519201905af461206b611ffc565b501561207357565b3d6000803e3d6000fd5b803b6120545760405162461bcd60e51b815280610ed860048201611a6a565b60405162461bcd60e51b815260206004820152603260248201527f4469616d6f6e645772697461626c653a20496e76616c696420496e697469616c604482015271697a6174696f6e20506172616d657465727360701b6064820152608490fd5b90600182811c9216801561212c575b602083101461211657565b634e487b7160e01b600052602260045260246000fd5b91607f169161210b565b818110612141575050565b60008155600101612136565b90601f821161215a575050565b6115ef9160008051602061452d8339815191526000527fd57194acb5baf0f96f13d0ba472666d84b214d5a2f06884ca10e9b1f1d7bcf02906020601f840160051c830193106121b1575b601f0160051c0190612136565b90915081906121a4565b90601f82116121c8575050565b6115ef9160008051602061450d8339815191526000527fd1f99be46ae477d48e362562b50439d9697e6c7575c4317b1393eeb6c1388fbf906020601f840160051c830193106121b157601f0160051c0190612136565b90601f821161222b575050565b6115ef9160008051602061446d8339815191526000527f4ff84e76aeded3538c0732987ce9e49e04fc1ac1cad06e9f5f3190af947b6db6906020601f840160051c830193106121b157601f0160051c0190612136565b90601f821161228e575050565b6115ef916000805160206144ed8339815191526000527fcc3d774b7bc1a58e8bd3903296d0f2a63069a7a4ea32e07e7f4ed8d805a9c2eb906020601f840160051c830193106121b157601f0160051c0190612136565b91906001600160401b03811161058d5760008051602061450d833981519152906123178161231284546120fc565b6121bb565b6000601f82116001146123515781929394600092612346575b50508160011b916000199060031b1c1916179055565b013590503880612330565b60008051602061450d833981519152600052601f198216947fd1f99be46ae477d48e362562b50439d9697e6c7575c4317b1393eeb6c1388fbf91805b8781106123c55750836001959697106123ab575b505050811b019055565b0135600019600384901b60f8161c191690553880806123a1565b9092602060018192868601358155019401910161238d565b91906001600160401b03811161058d5760008051602061446d833981519152906124108161240b84546120fc565b61221e565b6000601f821160011461243e57819293946000926123465750508160011b916000199060031b1c1916179055565b60008051602061446d833981519152600052601f198216947f4ff84e76aeded3538c0732987ce9e49e04fc1ac1cad06e9f5f3190af947b6db691805b8781106124975750836001959697106123ab57505050811b019055565b9092602060018192868601358155019401910161247a565b91906001600160401b03811161058d576000805160206144ed833981519152906124e2816124dd84546120fc565b612281565b6000601f821160011461251057819293946000926123465750508160011b916000199060031b1c1916179055565b6000805160206144ed833981519152600052601f198216947fcc3d774b7bc1a58e8bd3903296d0f2a63069a7a4ea32e07e7f4ed8d805a9c2eb91805b8781106125695750836001959697106123ab57505050811b019055565b9092602060018192868601358155019401910161254c565b634e487b7160e01b600052601160045260246000fd5b8051906001600160401b03821161058d57600160401b821161058d5760008051602061440d83398151915290815483835580841061261c575b5060208091019160005260005b8381106125ea5750505050565b82517f226149a3cef8f8257adde2603ff728efb20416199df5016f2e10e6696ab27a04820155918101916001016125dd565b61264c90847f226149a3cef8f8257adde2603ff728efb20416199df5016f2e10e6696ab27a049182019101612136565b386125d0565b6005111561175a57565b908060209392818452848401376000828201840152601f01601f1916010190565b929061269690610225959360408652604086019161265c565b92602081850391015261265c565b9060009160008051602061446d8339815191529081546126c3816120fc565b8083529260019180831690811561274157506001146126e25750505050565b90929394506000527f4ff84e76aeded3538c0732987ce9e49e04fc1ac1cad06e9f5f3190af947b6db6916000925b8484106127295750506020925001019038808080611ff6565b80546020858501810191909152909301928101612710565b92505050602093945060ff929192191683830152151560051b01019038808080611ff6565b919060608352600060008051602061450d833981519152908154612789816120fc565b92836060880152600191828116908160001461282657506001146127cc575b50506127bc915084810360208601526126a4565b92600582101561175a5760400152565b60009081529291507fd1f99be46ae477d48e362562b50439d9697e6c7575c4317b1393eeb6c1388fbf5b8284106128105750505060806127bc9185010138806127a8565b80546080858901015260209093019281016127f6565b915050608092506127bc93915060ff191682870152151560051b85010138806127a8565b9190820180921161285757565b612581565b612865426129a2565b5060008051602061440d8339815191525490600082821015612968575061288b81610f5c565b90549060031b1c916001820180921161285757811015612940576128ae90610f5c565b90549060031b1c5b7fe02854d75ca0f6b56099fb1e1546a75ef76f441f4e6082f2e3cbb1e8dc5591ab5482018083116128575760008051602061442d8339815191525492808414612903576115ef9350613162565b505061291d6000805160206143ed8339815191525461340b565b8103612927575050565b60008051602061444d833981519152546115ef92613162565b507fe02854d75ca0f6b56099fb1e1546a75ef76f441f4e6082f2e3cbb1e8dc5591a9546128b6565b9150507fe02854d75ca0f6b56099fb1e1546a75ef76f441f4e6082f2e3cbb1e8dc5591a954906128b6565b60001981146128575760010190565b60008051602061440d833981519152546000915b8183106129c557509160009150565b806129cf84610f5c565b905460039291831b1c036129e65750505090600190565b9083916129f4829495610f5c565b9054911b1c11612a0e57612a0790612993565b91906129b6565b91505090600090565b60008051602061454d833981519152806000526000805160206144cd83398151915260205260026040600020018181549155816000805160206143cd833981519152600080a4565b7ff698af62c65280e4949bceec64b760f3b7738217cbc536cdfc4c9463676b05c2806000526000805160206144cd83398151915260205260026040600020019081549060008051602061454d8339815191528093556000805160206143cd833981519152600080a4565b7f6ba6f588bcdc2df8426603a466c98ab15e79f7fb7f37b53581ce39c1d01b7249806000526000805160206144cd83398151915260205260026040600020019081549060008051602061454d8339815191528093556000805160206143cd833981519152600080a4565b7fd7aa2ddfa4e381128202bf365b7e0a176f2fca6cdf2f23c2b0a6f43937695890806000526000805160206144cd83398151915260205260026040600020019081549060008051602061454d8339815191528093556000805160206143cd833981519152600080a4565b15612ba457565b60405162461bcd60e51b815260206004820152602e60248201527f43616c6c6572206d7573742062652043414b206f722041444d494e20746f207360448201526d657420616e6f746865722043414b60901b6064820152608490fd5b60405162461bcd60e51b8152602060048201526024808201527f5573652066756e6374696f6e206368616e676541646d696e526f6c6520696e736044820152631d19585960e21b6064820152608490fd5b6001600160a01b031660008181527f50b3f923c5a6856525e4c909aeb0ca298445e09ab2763b3edcaf4569b7b61a2b602052604081205490919060008051602061454d833981519152907f50b3f923c5a6856525e4c909aeb0ca298445e09ab2763b3edcaf4569b7b61a2a9015155b15612cee575b507f2f8788117e7eff1d82e926ec794901d17c78024a50270940304540a733656f0d339380a4565b8054600160401b81101561058d57612d27612d10826001879401855584610fe2565b819391549060031b91821b91600019901b19161790565b9055600181549184865201602052604084205538612cc6565b906000918083526000805160206144cd833981519152602052604083209160018060a01b031691612cc0838260019160005201602052604060002054151590565b15612d8857565b60405162461bcd60e51b8152602060048201526024808201527f43616c6c6572206d7573742062652041444d494e20746f2072656d6f766520616044820152632043414b60e01b6064820152608490fd5b908115612ecd5760008051602061454d833981519152828103612e3b57503360009081527f49954ab00355d427d0ed155d763a8dbf20297b7dde63ccd80a8bd10bb555baef60205260409020546115ef9290612e36901515612d81565b612ed2565b6000526000805160206144cd833981519152602052612e6e33604060002060019160005201602052604060002054151590565b15612e7c576115ef91612ed2565b60405162461bcd60e51b815260206004820152602360248201527f43616c6c6572206d7573742062652043414b20746f2072656d6f7665206120726044820152626f6c6560e81b6064820152608490fd5b612c00565b906000918083526000805160206144cd833981519152602052604083209160018060a01b031691600181019083855281602052604085205480612f3a575b5050507ff6391f5c32d9c69d2a47ea670b442974b53935d1edc7fd64eb21e047a839171b339380a4565b60001990612f4b8284540184610fe2565b90549060031b1c80612f62612d1085850187610fe2565b9055875283602052604087205581548015612fbc5792612fb392869288950190612fa1612f8f8383610fe2565b81929154906000199060031b1b191690565b90555590600052602052604060002090565b55388080612f10565b634e487b7160e01b87526031600452602487fd5b600090815260008051602061448d83398151915260205260409020548015612ffb576102259061404f565b507fbbbdc1476a0878f2ef9a893c81f5b6f6ea1b3acaf18ff47ccb69cd4267d50c885490565b1561302857565b60405162461bcd60e51b815260206004820152603c60248201527f696e76616c6964206e6578742064617465207768656e2073657474696e67207460448201527f68652063757272656e7420736e617073686f74206461746574696d65000000006064820152608490fd5b1561309a57565b60405162461bcd60e51b815260206004820152602860248201527f44617465206f6620636f75706f6e206f72206d6174757269747920616c726561604482015267323c903a30b5b2b760c11b6064820152608490fd5b156130f757565b60405162461bcd60e51b815260206004820152603d60248201527f796f75206861766520746f20646566696e652061206e657720706572696f642060448201527f656e64696e67206166746572207468652063757272656e742074696d650000006064820152608490fd5b8061316c8361340b565b11613292578261319261321894159283159384613289575b61318d90613021565b61340b565b908092613270575b506131f461320692936131ce6131c78460005260008051602061448d833981519152602052604060002090565b5415613093565b6131d98142106130f0565b6131e16132f3565b5060008051602061444d83398151915255565b60008051602061442d83398151915255565b6000805160206143ed83398151915255565b60008051602061442d8339815191525460008051602061444d833981519152546000805160206143ed83398151915254917f4d1d74d5cbfc13e02ef05af3a30d8721e87a00d20bc3dc42198917139944def3600080a4565b6132069250613282846131f49261341d565b925061319a565b50808311613184565b60405162461bcd60e51b815260206004820152603360248201527f746865207265636f726420646174652063616e6e6f742062652061667465722060448201527274686520736574746c656d656e74206461746560681b6064820152608490fd5b60008051602061444d833981519152805480151590816133d1575b816133c6575b50156133c057613322614061565b9060008051602061442d83398151915282613355825460005260008051602061448d833981519152602052604060002090565b556000805160206143ed8339815191529061338582546000908015156000146131e15761175f915085549061341d565b6133926131f4845461340b565b5491549054917f4d1d74d5cbfc13e02ef05af3a30d8721e87a00d20bc3dc42198917139944def3600080a490565b50600090565b905042101538613314565b905061340360008051602061442d8339815191525460005260008051602061448d833981519152602052604060002090565b54159061330e565b62015180810681039081116128575790565b9062015180908183068303928311612857570681018091116128575790565b1561344357565b606460405162461bcd60e51b815260206004820152602060248201527f5468697320636f6e7472616374206973206e6f742077686974656c69737465646044820152fd5b1561348e57565b60405162461bcd60e51b815260206004820152603360248201527f4e6f207472616e736665722063616e20626520646f6e65207768656e20746865604482015272103932b3b4b9ba32b91034b990233937bd32b760691b6064820152608490fd5b156134f657565b60405162461bcd60e51b815260206004820152601b60248201527f546865207265636569766572206973206e6f7420616c6c6f77656400000000006044820152606490fd5b1561354257565b60405162461bcd60e51b815260206004820152601960248201527f5468652073656e646572206973206e6f7420616c6c6f776564000000000000006044820152606490fd5b91906135953361074a610d00565b156135a9576135a392613976565b50600190565b6135a3926135be6135b93361372f565b61343c565b60008051602061456d83398151915260016135da825460ff1690565b6135e381612652565b6135f06004821415613487565b6135f981612652565b148061371d575b806136d8575b156136715760008051602061456d833981519152805460ff19166002179055613639906136328461382f565b5460ff1690565b7fda2010acfda7a262372331cb3b57e3f648f63eb009a423a2b5602cfa4f9bff5160405180613669339482612766565b0390a2613976565b50613695600161368d613683856137f6565b5460a01c60ff1690565b1515146134ef565b60016136ab6136a6613683846137f6565b151590565b1480156136c1575b6136bc9061353b565b613976565b506136bc6136d18261074a610d77565b90506136b3565b507fe02854d75ca0f6b56099fb1e1546a75ef76f441f4e6082f2e3cbb1e8dc5591ac5461370d906001600160a01b0316611b64565b6001600160a01b03831614613606565b5061372a8361074a610d77565b613600565b803b60405190601f19603f820116820160405280825260006020830180943c5190206000527f3ab46f175c5f1d1c97765e87ec0d68e6241fafc1b077d060ce0c29744cd3616d60205260ff6040600020541690565b6001600160a01b031660009081527fbbbdc1476a0878f2ef9a893c81f5b6f6ea1b3acaf18ff47ccb69cd4267d50c876020526040902090565b6001600160a01b031660009081527fbbbdc1476a0878f2ef9a893c81f5b6f6ea1b3acaf18ff47ccb69cd4267d50c866020526040902090565b6001600160a01b031660009081527f332cf6b129284e49df93f4be38bb1959bb5fa7d7d0ce3d4ad668f566f35f6fd56020526040902090565b7f332cf6b129284e49df93f4be38bb1959bb5fa7d7d0ce3d4ad668f566f35f6fd4908154600160401b81101561058d5760018101808455811015610f2a576138eb92600052807f3b5a704516de56a4fa30eb29b0bf899a47de4e07d715ffde30cee9d593da4416019060018060a01b038316906001600160601b0360a01b92828482541617905560016138c1856137f6565b01556138cc836137f6565b908282541617905560026138df836137f6565b019081541690556137f6565b805460ff60a01b19169055565b6001600160a01b03808216929190831561396457821693841561395357806139467f8c5be1e5ebec7d5bd14f71427d1e84f3dd0314c0f7b2291e5b200ac8c7c3b92594610896602095613784565b55604051908152a3600190565b6040516262920b60e91b8152600490fd5b604051635a68b7ab60e01b8152600490fd5b6001600160a01b038082169291908315613a33578216938415613a215761399e818484613ba7565b6139a7826137bd565b54808211613a0f577fddf252ad1be2c89b69c2b068fc378daa952ba7f163c4a11628f55a4df523b3ef93613a07936139e4846139ea9403916137bd565b556137bd565b6139f582825461284a565b90556040519081529081906020820190565b0390a3600190565b604051637183160b60e01b8152600490fd5b6040516320a2645160e21b8152600490fd5b6040516368551d5f60e01b8152600490fd5b15613a4c57565b60405162461bcd60e51b81526020600482015260166024820152751d1a1948149959da5cdd195c881a5cc818db1bdcd95960521b6044820152606490fd5b15613a9157565b60405162461bcd60e51b815260206004820152600c60248201526b105cdcd95d08131bd8dad95960a21b6044820152606490fd5b15613acc57565b60405162461bcd60e51b815260206004820152604f60248201527f746865207265676973746572206973206c6f636b65642062656361757365206e60448201527f6f20636f75706f6e206973207072657061726564206f7220746865206d61747560648201526e1c9a5d1e481a5cc81c995858da1959608a1b608482015260a490fd5b15613b5657565b60405162461bcd60e51b8152602060048201526024808201527f746865206d61747572697479206375742d6f66662074696d65206861732070616044820152631cdcd95960e21b6064820152608490fd5b613bf56115ef93613bdc6003613bcc60008051602061456d8339815191525460ff1690565b613bd581612652565b1415613a45565b6001600160a01b03831615908115613c97575b50613a8a565b7f95d8298a3d25370298f52eb5e4c2caa68ca2492c02741ad9ada9443a021d75905460ff1615613c57577f95d8298a3d25370298f52eb5e4c2caa68ca2492c02741ad9ada9443a021d7590805460ff191690555b613c516132f3565b506140aa565b60008051602061444d83398151915254613c72811515613ac5565b4210613c4957613c926000805160206143ed833981519152541515613b4f565b613c49565b9050613ce6613ca5846137bd565b546001600160a01b03851660009081527f95d8298a3d25370298f52eb5e4c2caa68ca2492c02741ad9ada9443a021d7592602052604090209092905461284a565b111538613bef565b93929190936001600160401b03851161058d5760008051602061452d83398151915290613d2486613d1f84546120fc565b61214d565b600090601f8711600114613d9157958091613d5b9697600092613d86575b50508160011b916000199060031b1c19161790556124af565b7f8c998f45074727a62053813302c526655913012298b223f931495bf68495bf68805460ff19169055565b013590503880613d42565b60008051602061452d8339815191526000527fd57194acb5baf0f96f13d0ba472666d84b214d5a2f06884ca10e9b1f1d7bcf0291601f198816815b818110613e0d5750916001939189613d5b999a9410613df3575b505050811b0190556124af565b0135600019600384901b60f8161c19169055388080613de6565b91936020600181928787013581550195019201613dcc565b8015613ed0576000805160206144ad833981519152548111613ebe57613e4a90613f34565b6000805160206145ad833981519152548103613e695750600090600090565b7fcd7a55ef023eb5931cc022a9bdc64cb5b46c3a6e53bcaa84915eea6084f1c7b68054821015610f2a576000527f78cc72d8a5d41810ecdf17a54bbe351019608f72af6235ad66f0cdd94cce8ba30154600191565b604051631b049b9560e11b8152600490fd5b604051636e6ae24760e01b8152600490fd5b8015613ed0576000805160206144ad833981519152548111613ebe57613f089082613fca565b81548103613f1a575050600090600090565b6001613f269201610fe2565b90549060031b1c9060019190565b6000805160206145ad83398151915254908115613fc3576000915b808310613f9157508115159081613f6e575b5015610225576000190190565b9050613f8a613f806000198401610f9f565b90549060031b1c90565b1438613f61565b600190808418821c818516019183613fab613f8085610f9f565b1115613fb8575050613f4f565b919093500191613f4f565b5050600090565b8054918215614047576000925b80841061401457508215159182613ff7575b505015610225576000190190565b61400c919250613f8090600019850190610fe2565b143880613fe9565b600190808518821c81861601918361402f613f808588610fe2565b111561403c575050613fd7565b919094500192613fd7565b505050600090565b61405890613e25565b9015612ffb5790565b6000805160206144ad83398151915261407a8154612993565b8091557f8030e83b04d87bef53480e26263266d6ca66863aa8506aca6f2559d18aa1cb676020604051838152a190565b6001600160a01b038181166140cc5750506140c4906140e4565b6115ef614185565b82166140dc576140c491506140e4565b6140e46115ef925b6001600160a01b03811660009081527fcd7a55ef023eb5931cc022a9bdc64cb5b46c3a6e53bcaa84915eea6084f1c7b46020526040902061412590916137bd565b546000805160206144ad8339815191525482548061416257508060005b1061414c57505050565b8261415c6001926115ef956142dd565b016142dd565b600019810190811161285757614179829185610fe2565b90549060031b1c614142565b7fbbbdc1476a0878f2ef9a893c81f5b6f6ea1b3acaf18ff47ccb69cd4267d50c88546000805160206144ad83398151915254906000805160206145ad8339815191529182546000811560001461423757508160005b106141e55750505050565b600160401b81101561058d5760018101808555811015610f2a5761422e936000527ff5a3bcbc6b6d041d725e0cd57d56807470e3ad7b22c8030b45ce347aacbb094c0155614277565b38808080611ff6565b600019820182811161285757821115610f2a57849052817ff5a3bcbc6b6d041d725e0cd57d56807470e3ad7b22c8030b45ce347aacbb094b8201546141da565b7fcd7a55ef023eb5931cc022a9bdc64cb5b46c3a6e53bcaa84915eea6084f1c7b6805490600160401b82101561058d5760018201808255821015610f2a576000527f78cc72d8a5d41810ecdf17a54bbe351019608f72af6235ad66f0cdd94cce8ba30155565b805490600160401b82101561058d5781612d109160016142ff94018155610fe2565b9055565b6040519061431082610572565b602a82526040366020840137565b805115610f2a5760200190565b805160011015610f2a5760210190565b908151811015610f2a570160200190565b6040519061435982610592565b60428252606036602084013760306143708361431e565b53607861437c8361432b565b5360415b600181116143905750610edc5790565b90600f81166010811015610f2a576f181899199a1a9b1b9c1cb0b131b232b360811b901a6143be838561433b565b5360041c906000190161438056febd79b86ffe0ab8e8776151514217cd7cacd52c909f66475c3af44e129f0b00ff95d8298a3d25370298f52eb5e4c2caa68ca2492c02741ad9ada9443a021d758ee02854d75ca0f6b56099fb1e1546a75ef76f441f4e6082f2e3cbb1e8dc5591aa95d8298a3d25370298f52eb5e4c2caa68ca2492c02741ad9ada9443a021d758f95d8298a3d25370298f52eb5e4c2caa68ca2492c02741ad9ada9443a021d758de02854d75ca0f6b56099fb1e1546a75ef76f441f4e6082f2e3cbb1e8dc5591a295d8298a3d25370298f52eb5e4c2caa68ca2492c02741ad9ada9443a021d7591cd7a55ef023eb5931cc022a9bdc64cb5b46c3a6e53bcaa84915eea6084f1c7b72e59e4c2e927cdddbb64e181e0668d9a0fa70dd88f94d999cd87d5496a20da628c998f45074727a62053813302c526655913012298b223f931495bf68495bf67e02854d75ca0f6b56099fb1e1546a75ef76f441f4e6082f2e3cbb1e8dc5591a18c998f45074727a62053813302c526655913012298b223f931495bf68495bf66a75205b8583660bdad375c0ccde11af17668d76a408a9a5e739251b0f7c59870e02854d75ca0f6b56099fb1e1546a75ef76f441f4e6082f2e3cbb1e8dc5591a0706f5b3610458a854faedcfccda0d32d725b0f3daa90cb330f41cc280a9715cacd7a55ef023eb5931cc022a9bdc64cb5b46c3a6e53bcaa84915eea6084f1c7b5a264697066735822122078b0ff119fa3e06078e65898c3a36dfbeb872ef996a812b1d5d214d1106dac1064736f6c63430008140033",
  "linkReferences": {},
  "deployedLinkReferences": {}
}