{
  "_format": "hh-sol-artifact-1",
  "contractName": "ArrayUtilsMock",
  "sourceName": "src/utils/ArrayUtilsMock.sol",
  "abi": [
    {
      "inputs": [
        {
          "internalType": "uint256[]",
          "name": "array",
          "type": "uint256[]"
        }
      ],
      "name": "max",
      "outputs": [
        {
          "internalType": "uint256",
          "name": "",
          "type": "uint256"
        }
      ],
      "stateMutability": "pure",
      "type": "function"
    },
    {
      "inputs": [
        {
          "internalType": "bytes32[]",
          "name": "array",
          "type": "bytes32[]"
        }
      ],
      "name": "max",
      "outputs": [
        {
          "internalType": "bytes32",
          "name": "",
          "type": "bytes32"
        }
      ],
      "stateMutability": "pure",
      "type": "function"
    },
    {
      "inputs": [
        {
          "internalType": "address[]",
          "name": "array",
          "type": "address[]"
        }
      ],
      "name": "max",
      "outputs": [
        {
          "internalType": "address",
          "name": "",
          "type": "address"
        }
      ],
      "stateMutability": "pure",
      "type": "function"
    },
    {
      "inputs": [
        {
          "internalType": "bytes32[]",
          "name": "array",
          "type": "bytes32[]"
        }
      ],
      "name": "min",
      "outputs": [
        {
          "internalType": "bytes32",
          "name": "",
          "type": "bytes32"
        }
      ],
      "stateMutability": "pure",
      "type": "function"
    },
    {
      "inputs": [
        {
          "internalType": "address[]",
          "name": "array",
          "type": "address[]"
        }
      ],
      "name": "min",
      "outputs": [
        {
          "internalType": "address",
          "name": "",
          "type": "address"
        }
      ],
      "stateMutability": "pure",
      "type": "function"
    },
    {
      "inputs": [
        {
          "internalType": "uint256[]",
          "name": "array",
          "type": "uint256[]"
        }
      ],
      "name": "min",
      "outputs": [
        {
          "internalType": "uint256",
          "name": "",
          "type": "uint256"
        }
      ],
      "stateMutability": "pure",
      "type": "function"
    }
  ],
  "bytecode": "0x608080604052346100165761044b908161001c8239f35b600080fdfe604060808152600436101561001357600080fd5b600090813560e01c80631bfe664d146102455780633bf6de96146101fa57806377c5ca71146101af57806386d6e59414610141578063abf91ea4146100bc5763d834e6191461006157600080fd5b346100b85761006f366102e7565b600019925b81518110156100ae578361008882846103eb565b5110610097575b600101610074565b925060016100a584836103eb565b5193905061008f565b6020848451908152f35b5080fd5b50903461013e576100cc36610366565b6001600160a01b03915b815181101561012b576001600160a01b036100f182846103eb565b51166001600160a01b0384161161010b575b6001016100d6565b915060016001600160a01b0361012184846103eb565b5116929050610103565b83516001600160a01b0384168152602090f35b80fd5b50903461013e5761015136610366565b90805b825181101561019c576001600160a01b038061017083866103eb565b511681841610610184575b50600101610154565b819250610193600192856103eb565b5116919061017b565b83516001600160a01b0383168152602090f35b50346100b8576101be366102e7565b825b81518110156100ae57836101d482846103eb565b51116101e3575b6001016101c0565b925060016101f184836103eb565b519390506101db565b50346100b857610209366102e7565b825b81518110156100ae578361021f82846103eb565b511161022e575b60010161020b565b9250600161023c84836103eb565b51939050610226565b50346100b857610254366102e7565b600019925b81518110156100ae578361026d82846103eb565b511061027c575b600101610259565b9250600161028a84836103eb565b51939050610274565b6040519190601f01601f1916820167ffffffffffffffff8111838210176102b957604052565b634e487b7160e01b600052604160045260246000fd5b67ffffffffffffffff81116102b95760051b60200190565b602080600319830112610361576004359167ffffffffffffffff83116103615780602384011215610361578260040135610328610323826102cf565b610293565b9360248486848152019260051b82010192831161036157602401905b828210610352575050505090565b81358152908301908301610344565b600080fd5b602080600319830112610361576004359167ffffffffffffffff831161036157806023840112156103615782600401356103a2610323826102cf565b9360248486848152019260051b82010192831161036157602401905b8282106103cc575050505090565b81356001600160a01b03811681036103615781529083019083016103be565b80518210156103ff5760209160051b010190565b634e487b7160e01b600052603260045260246000fdfea26469706673582212201f2032059aee77a088664bcafba88eaa92fb1cfde95e84564d09bcf66050c80964736f6c63430008140033",
  "linkReferences": {},
  "deployedLinkReferences": {}
}