{
  "_format": "hh-sol-artifact-1",
  "contractName": "BinaryHeapBytes32Mock",
  "sourceName": "src/data/BinaryHeapBytes32Mock.sol",
  "abi": [
    {
      "inputs": [
        {
          "internalType": "bytes32",
          "name": "value",
          "type": "bytes32"
        }
      ],
      "name": "add",
      "outputs": [
        {
          "internalType": "bool",
          "name": "",
          "type": "bool"
        }
      ],
      "stateMutability": "nonpayable",
      "type": "function"
    },
    {
      "inputs": [
        {
          "internalType": "uint256",
          "name": "index",
          "type": "uint256"
        }
      ],
      "name": "at",
      "outputs": [
        {
          "internalType": "bytes32",
          "name": "",
          "type": "bytes32"
        }
      ],
      "stateMutability": "view",
      "type": "function"
    },
    {
      "inputs": [
        {
          "internalType": "bytes32",
          "name": "value",
          "type": "bytes32"
        }
      ],
      "name": "contains",
      "outputs": [
        {
          "internalType": "bool",
          "name": "",
          "type": "bool"
        }
      ],
      "stateMutability": "view",
      "type": "function"
    },
    {
      "inputs": [
        {
          "internalType": "bytes32",
          "name": "value",
          "type": "bytes32"
        }
      ],
      "name": "indexOf",
      "outputs": [
        {
          "internalType": "uint256",
          "name": "",
          "type": "uint256"
        }
      ],
      "stateMutability": "view",
      "type": "function"
    },
    {
      "inputs": [],
      "name": "length",
      "outputs": [
        {
          "internalType": "uint256",
          "name": "",
          "type": "uint256"
        }
      ],
      "stateMutability": "view",
      "type": "function"
    },
    {
      "inputs": [
        {
          "internalType": "bytes32",
          "name": "value",
          "type": "bytes32"
        }
      ],
      "name": "remove",
      "outputs": [
        {
          "internalType": "bool",
          "name": "",
          "type": "bool"
        }
      ],
      "stateMutability": "nonpayable",
      "type": "function"
    },
    {
      "inputs": [],
      "name": "root",
      "outputs": [
        {
          "internalType": "bytes32",
          "name": "",
          "type": "bytes32"
        }
      ],
      "stateMutability": "view",
      "type": "function"
    },
    {
      "inputs": [],
      "name": "toArray",
      "outputs": [
        {
          "internalType": "bytes32[]",
          "name": "",
          "type": "bytes32[]"
        }
      ],
      "stateMutability": "view",
      "type": "function"
    }
  ],
  "bytecode": "0x608080604052346100165761062a908161001c8239f35b600080fdfe608060408181526004918236101561001657600080fd5b600090813560e01c9081631d1a696d1461042c575080631f7b6d321461040b578063446bffba146103565780636f4ce56a14610325578063908ff3031461025c57806395bc267314610115578063e0886f90146100c65763ebf0c7171461007c57600080fd5b346100c357806003193601126100c3578054156100b0576020925080526000805160206105d5833981519152549051908152f35b634e487b7160e01b815260328352602490fd5b80fd5b50346100c35760203660031901126100c3578235908054821015610102576020935080526000805160206105d583398151915201549051908152f35b634e487b7160e01b815260328452602490fd5b508290346100c35760203660031901126100c3578135918192808352600160205284832054918261014d575b60208587519015158152f35b9091929350600019809301610192848654016101c861016b84610458565b90549060031b1c9361019a856101b161018386610458565b90549060031b1c968794610458565b939096610458565b819391549060031b91821b91600019901b19161790565b905583549060031b91821b91600019901b19161790565b905580865260016020528686205491865286862090815490875287872055558354908115610249575082016101fc81610458565b8482549160031b1b1916905583558252600160205281838120558154908160011c805b610236575050505060209060019091838080610141565b8101806102448185876104be565b61021f565b634e487b7160e01b855260319052602484fd5b50346100c357806003193601126100c35781518091805493848352602080930180958380526000805160206105d583398151915290845b868282106103115750505050849003601f01601f191684019567ffffffffffffffff8711858810176102fe575085815282865292518583018190528594938501939290915b8281106102e757505050500390f35b8351855286955093810193928101926001016102d8565b634e487b7160e01b835260419052602482fd5b835485529093019260019283019201610293565b50913461035257602036600319011261035257916020923581526001835281600019912054019051908152f35b8280fd5b508290346100c35760203660031901126100c357813581928183526001602052848320541561038c575b60208486519015158152f35b90918093505490680100000000000000008210156103f857506103b861019a8260018594018655610458565b90558154908252600160205280838320558060011c805b6103e3575060019150602090508380610380565b60001901806103f38184866104be565b6103cf565b634e487b7160e01b845260419052602483fd5b509034610428578160031936011261042857602091549051908152f35b5080fd5b9050828434610454576020366003190112610454579260209335815260018452205415158152f35b8380fd5b90600091825481101561047c578280526000805160206105d5833981519152019190565b634e487b7160e01b83526032600452602483fd5b80548210156104a85760005260206000200190600090565b634e487b7160e01b600052603260045260246000fd5b908291600184811b176001810190838110806105ab575b6105a3575b508281108061057a575b610572575b508383036104f8575b50505050565b8361052e6105096105699684610490565b90549060031b1c9161053f61051e8786610490565b90549060031b1c92839286610490565b856101b161019a8b8a979597610490565b905560009080825260018401602052604082205492825260408083209283549281522055556104be565b388080806104f2565b9250386104e9565b506105858483610490565b90546105918385610490565b90549060031b1c9160031b1c106104e4565b9350386104da565b506105b68684610490565b90546105c28386610490565b90549060031b1c9160031b1c106104d556fe290decd9548b62a8d60345a988386fc84ba6bc95484008f6362f93160ef3e563a2646970667358221220ebcc333607efa988509f67717ed46bb79858c0df79e5f40a3ae3f433c126999964736f6c63430008140033",
  "linkReferences": {},
  "deployedLinkReferences": {}
}