{
  "_format": "hh-sol-artifact-1",
  "contractName": "RegisterDiamondReadable",
  "sourceName": "src/register/RegisterDiamondReadable.sol",
  "abi": [
    {
      "inputs": [
        {
          "internalType": "bytes4",
          "name": "selector",
          "type": "bytes4"
        }
      ],
      "name": "facetAddress",
      "outputs": [
        {
          "internalType": "address",
          "name": "facet",
          "type": "address"
        }
      ],
      "stateMutability": "view",
      "type": "function"
    },
    {
      "inputs": [],
      "name": "facetAddresses",
      "outputs": [
        {
          "internalType": "address[]",
          "name": "addresses",
          "type": "address[]"
        }
      ],
      "stateMutability": "view",
      "type": "function"
    },
    {
      "inputs": [
        {
          "internalType": "address",
          "name": "facet",
          "type": "address"
        }
      ],
      "name": "facetFunctionSelectors",
      "outputs": [
        {
          "internalType": "bytes4[]",
          "name": "selectors",
          "type": "bytes4[]"
        }
      ],
      "stateMutability": "view",
      "type": "function"
    },
    {
      "inputs": [],
      "name": "facets",
      "outputs": [
        {
          "components": [
            {
              "internalType": "address",
              "name": "target",
              "type": "address"
            },
            {
              "internalType": "bytes4[]",
              "name": "selectors",
              "type": "bytes4[]"
            }
          ],
          "internalType": "struct IDiamondReadable.Facet[]",
          "name": "diamondFacets",
          "type": "tuple[]"
        }
      ],
      "stateMutability": "view",
      "type": "function"
    }
  ],
  "bytecode": "0x608080604052346100165761097a908161001c8239f35b600080fdfe6080604052600436101561001257600080fd5b6000803560e01c90816352ef6b2c1461005a575080637a0ed62714610055578063adfca15e146100505763cdffacc61461004b57600080fd5b610745565b6105f3565b610321565b346102205780600319360112610220576100a06100997f208c70ce3ff0f2071151e1534b966d96504b04b4e1fbd394455c7a7db215e2cf5461ffff1690565b61ffff1690565b906100aa82610866565b908080815b8582106100cb57838552604051806100c78782610223565b0390f35b6100fe816000527f208c70ce3ff0f2071151e1534b966d96504b04b4e1fbd394455c7a7db215e2d0602052604060002090565b5483905b6008821061011b575b5050610116906108a4565b6100af565b91959396909261012a906108a4565b948186116102135761016861016261014f63ffffffff60e01b868860051b1b166108b8565b546bffffffffffffffffffffffff191690565b60601c90565b886001600160a01b038216815b8481106101ca575b50506101bf57816101a76101ac926101986101b2958a610918565b6001600160a01b039091169052565b6108a4565b936108a4565b9096939591949294610102565b50926101b2906108a4565b6101f36101e76101da838c610918565b516001600160a01b031690565b6001600160a01b031690565b821461020757610202906108a4565b610175565b50505060018a8061017d565b949281979496925061010b565b80fd5b6020908160408183019282815285518094520193019160005b82811061024a575050505090565b83516001600160a01b03168552938101939281019260010161023c565b90815180825260208080930193019160005b828110610287575050505090565b83516001600160e01b03191685529381019392810192600101610279565b602080820190808352835180925260409283810182858560051b8401019601946000925b8584106102da575050505050505090565b909192939495968580610310600193603f1986820301885286838d51878060a01b03815116845201519181858201520190610267565b9901940194019295949391906102c9565b346105da57600080600319360112610220576103626100997f208c70ce3ff0f2071151e1534b966d96504b04b4e1fbd394455c7a7db215e2cf5461ffff1690565b61036b816107fd565b9061037581610866565b92809181825b8282106103d9575050505b81811061039e57818352604051806100c785826102a5565b806103bf6103b96103b26103d49488610918565b5160ff1690565b60ff1690565b60206103cb8387610918565b510151526108a4565b610386565b61040c816000527f208c70ce3ff0f2071151e1534b966d96504b04b4e1fbd394455c7a7db215e2d0602052604060002090565b5484905b60088210610429575b5050610424906108a4565b61037b565b909391969261043a909895986108a4565b958287116105cd5763ffffffff60e01b828660051b1b1661046061016261014f836108b8565b8a6001600160a01b038216815b858110610517575b505061050b57916104e36104f6926104a46104fc95610494858b610918565b516001600160a01b039091169052565b6104d36104b088610866565b602090816104be878d610918565b5101526104cb858b610918565b510151610906565b6001600160e01b03199091169052565b6101a76104f0828a610918565b60019052565b946108a4565b90979497969193959296610410565b5050936104fc906108a4565b8a858a846105396101e761052b8785610918565b51516001600160a01b031690565b1461054f5750505061054a906108a4565b61046d565b6105c49550838095506105b5936105916105b0946104d360206105786105bc9a6103b298610918565b51015161058b6103b96103b28888610918565b90610918565b6105ab60ff806105a46103b28686610918565b161061092c565b610918565b610933565b918b610918565b9060ff169052565b60013880610475565b9592969193979497610419565b600080fd5b9060206105f0928181520190610267565b90565b346105da5760203660031901126105da576004356001600160a01b038116908190036105da576106486100997f208c70ce3ff0f2071151e1534b966d96504b04b4e1fbd394455c7a7db215e2cf5461ffff1690565b9061065282610866565b906000908190825b85831061067257838552604051806100c787826105df565b6106a5816000527f208c70ce3ff0f2071151e1534b966d96504b04b4e1fbd394455c7a7db215e2d0602052604060002090565b546000905b600882106106c3575b50506106be906108a4565b61065a565b919690959294936106d3906108a4565b958187116107375763ffffffff60e01b838260051b1b166106fc6101e761016261014f846108b8565b871461071a575b5061070d906108a4565b90969195939492956106aa565b856101a7610730926104d361070d959989610918565b9490610703565b8197925095939492956106b3565b346105da5760203660031901126105da5760043563ffffffff60e01b81168091036105da576000527f208c70ce3ff0f2071151e1534b966d96504b04b4e1fbd394455c7a7db215e2ce602052602060406000205460601c604051908152f35b634e487b7160e01b600052604160045260246000fd5b6040519190601f01601f1916820167ffffffffffffffff8111838210176107e057604052565b6107a4565b67ffffffffffffffff81116107e05760051b60200190565b9061080f61080a836107e5565b6107ba565b8281528092610820601f19916107e5565b016000805b8281106108325750505050565b604090815182810181811067ffffffffffffffff8211176107e0576020935283815282606081830152828701015201610825565b9061087361080a836107e5565b8281528092610884601f19916107e5565b0190602036910137565b634e487b7160e01b600052601160045260246000fd5b60001981146108b35760010190565b61088e565b63ffffffff60e01b166000527f208c70ce3ff0f2071151e1534b966d96504b04b4e1fbd394455c7a7db215e2ce602052604060002090565b634e487b7160e01b600052603260045260246000fd5b8051156109135760200190565b6108f0565b80518210156109135760209160051b010190565b156105da57565b60ff1660ff81146108b3576001019056fea26469706673582212201dd053ccf7041287d7087220461afc8931d9853b57d4c8899b9b6c30e6eb20e964736f6c63430008140033",
  "linkReferences": {},
  "deployedLinkReferences": {}
}