{
  "_format": "hh-sol-artifact-1",
  "contractName": "CouponSnapshotManagement",
  "sourceName": "src/register/snapshot/CouponSnapshotManagement.sol",
  "abi": [
    {
      "inputs": [],
      "name": "ERC20Base__ApproveFromZeroAddress",
      "type": "error"
    },
    {
      "inputs": [],
      "name": "ERC20Base__ApproveToZeroAddress",
      "type": "error"
    },
    {
      "inputs": [],
      "name": "ERC20Base__BurnExceedsBalance",
      "type": "error"
    },
    {
      "inputs": [],
      "name": "ERC20Base__BurnFromZeroAddress",
      "type": "error"
    },
    {
      "inputs": [],
      "name": "ERC20Base__InsufficientAllowance",
      "type": "error"
    },
    {
      "inputs": [],
      "name": "ERC20Base__MintToZeroAddress",
      "type": "error"
    },
    {
      "inputs": [],
      "name": "ERC20Base__TransferExceedsBalance",
      "type": "error"
    },
    {
      "inputs": [],
      "name": "ERC20Base__TransferFromZeroAddress",
      "type": "error"
    },
    {
      "inputs": [],
      "name": "ERC20Base__TransferToZeroAddress",
      "type": "error"
    },
    {
      "inputs": [],
      "name": "ERC20Snapshot__SnapshotIdDoesNotExists",
      "type": "error"
    },
    {
      "inputs": [],
      "name": "ERC20Snapshot__SnapshotIdIsZero",
      "type": "error"
    },
    {
      "inputs": [],
      "name": "EnumerableSet__IndexOutOfBounds",
      "type": "error"
    },
    {
      "inputs": [],
      "name": "ReentrancyGuard__ReentrantCall",
      "type": "error"
    },
    {
      "inputs": [],
      "name": "UintUtils__InsufficientHexLength",
      "type": "error"
    },
    {
      "anonymous": false,
      "inputs": [
        {
          "indexed": true,
          "internalType": "address",
          "name": "_addressForNewAdmin",
          "type": "address"
        }
      ],
      "name": "AdminChanged",
      "type": "event"
    },
    {
      "anonymous": false,
      "inputs": [
        {
          "indexed": true,
          "internalType": "address",
          "name": "owner",
          "type": "address"
        },
        {
          "indexed": true,
          "internalType": "address",
          "name": "spender",
          "type": "address"
        },
        {
          "indexed": false,
          "internalType": "uint256",
          "name": "value",
          "type": "uint256"
        }
      ],
      "name": "Approval",
      "type": "event"
    },
    {
      "anonymous": false,
      "inputs": [
        {
          "indexed": true,
          "internalType": "bytes32",
          "name": "txId",
          "type": "bytes32"
        },
        {
          "indexed": true,
          "internalType": "address",
          "name": "from",
          "type": "address"
        },
        {
          "indexed": true,
          "internalType": "address",
          "name": "to",
          "type": "address"
        },
        {
          "indexed": false,
          "internalType": "bytes32",
          "name": "hL",
          "type": "bytes32"
        },
        {
          "indexed": false,
          "internalType": "enum ICouponSnapshotManagementInternal.LStatus",
          "name": "status",
          "type": "uint8"
        }
      ],
      "name": "AssetHTLC",
      "type": "event"
    },
    {
      "anonymous": false,
      "inputs": [
        {
          "indexed": false,
          "internalType": "bytes32",
          "name": "contractHash",
          "type": "bytes32"
        }
      ],
      "name": "DisableContract",
      "type": "event"
    },
    {
      "anonymous": false,
      "inputs": [
        {
          "indexed": false,
          "internalType": "address",
          "name": "investor",
          "type": "address"
        }
      ],
      "name": "DisableInvestor",
      "type": "event"
    },
    {
      "anonymous": false,
      "inputs": [
        {
          "indexed": false,
          "internalType": "bytes32",
          "name": "contractHash",
          "type": "bytes32"
        }
      ],
      "name": "EnableContract",
      "type": "event"
    },
    {
      "anonymous": false,
      "inputs": [
        {
          "indexed": false,
          "internalType": "address",
          "name": "investor",
          "type": "address"
        }
      ],
      "name": "EnableInvestor",
      "type": "event"
    },
    {
      "anonymous": false,
      "inputs": [
        {
          "indexed": false,
          "internalType": "uint64",
          "name": "version",
          "type": "uint64"
        }
      ],
      "name": "Initialized",
      "type": "event"
    },
    {
      "anonymous": false,
      "inputs": [
        {
          "indexed": true,
          "internalType": "address",
          "name": "creator",
          "type": "address"
        },
        {
          "indexed": false,
          "internalType": "string",
          "name": "name",
          "type": "string"
        },
        {
          "indexed": false,
          "internalType": "string",
          "name": "isin",
          "type": "string"
        }
      ],
      "name": "NewBondDrafted",
      "type": "event"
    },
    {
      "anonymous": false,
      "inputs": [
        {
          "indexed": true,
          "internalType": "address",
          "name": "sender",
          "type": "address"
        },
        {
          "indexed": true,
          "internalType": "address",
          "name": "target",
          "type": "address"
        },
        {
          "indexed": false,
          "internalType": "string",
          "name": "message",
          "type": "string"
        }
      ],
      "name": "PublicMessage",
      "type": "event"
    },
    {
      "anonymous": false,
      "inputs": [
        {
          "indexed": true,
          "internalType": "address",
          "name": "emiter",
          "type": "address"
        },
        {
          "indexed": false,
          "internalType": "string",
          "name": "name",
          "type": "string"
        },
        {
          "indexed": false,
          "internalType": "string",
          "name": "isin",
          "type": "string"
        },
        {
          "indexed": false,
          "internalType": "enum IRegisterMetadataInternal.Status",
          "name": "status",
          "type": "uint8"
        }
      ],
      "name": "RegisterStatusChanged",
      "type": "event"
    },
    {
      "anonymous": false,
      "inputs": [
        {
          "indexed": true,
          "internalType": "bytes32",
          "name": "role",
          "type": "bytes32"
        },
        {
          "indexed": true,
          "internalType": "bytes32",
          "name": "previousAdminRole",
          "type": "bytes32"
        },
        {
          "indexed": true,
          "internalType": "bytes32",
          "name": "newAdminRole",
          "type": "bytes32"
        }
      ],
      "name": "RoleAdminChanged",
      "type": "event"
    },
    {
      "anonymous": false,
      "inputs": [
        {
          "indexed": true,
          "internalType": "bytes32",
          "name": "role",
          "type": "bytes32"
        },
        {
          "indexed": true,
          "internalType": "address",
          "name": "account",
          "type": "address"
        },
        {
          "indexed": true,
          "internalType": "address",
          "name": "sender",
          "type": "address"
        }
      ],
      "name": "RoleGranted",
      "type": "event"
    },
    {
      "anonymous": false,
      "inputs": [
        {
          "indexed": true,
          "internalType": "bytes32",
          "name": "role",
          "type": "bytes32"
        },
        {
          "indexed": true,
          "internalType": "address",
          "name": "account",
          "type": "address"
        },
        {
          "indexed": true,
          "internalType": "address",
          "name": "sender",
          "type": "address"
        }
      ],
      "name": "RoleRevoked",
      "type": "event"
    },
    {
      "anonymous": false,
      "inputs": [
        {
          "indexed": false,
          "internalType": "uint256",
          "name": "id",
          "type": "uint256"
        }
      ],
      "name": "Snapshot",
      "type": "event"
    },
    {
      "anonymous": false,
      "inputs": [
        {
          "indexed": true,
          "internalType": "uint256",
          "name": "couponDate",
          "type": "uint256"
        },
        {
          "indexed": true,
          "internalType": "uint256",
          "name": "currentTimestamp",
          "type": "uint256"
        },
        {
          "indexed": true,
          "internalType": "uint256",
          "name": "nextTimestamp",
          "type": "uint256"
        }
      ],
      "name": "SnapshotTimestampChange",
      "type": "event"
    },
    {
      "anonymous": false,
      "inputs": [
        {
          "indexed": true,
          "internalType": "address",
          "name": "from",
          "type": "address"
        },
        {
          "indexed": true,
          "internalType": "address",
          "name": "to",
          "type": "address"
        },
        {
          "indexed": false,
          "internalType": "uint256",
          "name": "value",
          "type": "uint256"
        }
      ],
      "name": "Transfer",
      "type": "event"
    },
    {
      "anonymous": false,
      "inputs": [
        {
          "indexed": true,
          "internalType": "address",
          "name": "toBeAdded",
          "type": "address"
        }
      ],
      "name": "WalletAddedToWhitelist",
      "type": "event"
    },
    {
      "anonymous": false,
      "inputs": [
        {
          "indexed": true,
          "internalType": "address",
          "name": "toBeDeleted",
          "type": "address"
        }
      ],
      "name": "WalletDeletedFromWhitelist",
      "type": "event"
    },
    {
      "inputs": [],
      "name": "BND_ROLE",
      "outputs": [
        {
          "internalType": "bytes32",
          "name": "",
          "type": "bytes32"
        }
      ],
      "stateMutability": "view",
      "type": "function"
    },
    {
      "inputs": [],
      "name": "CAK_ROLE",
      "outputs": [
        {
          "internalType": "bytes32",
          "name": "",
          "type": "bytes32"
        }
      ],
      "stateMutability": "view",
      "type": "function"
    },
    {
      "inputs": [],
      "name": "CST_ROLE",
      "outputs": [
        {
          "internalType": "bytes32",
          "name": "",
          "type": "bytes32"
        }
      ],
      "stateMutability": "view",
      "type": "function"
    },
    {
      "inputs": [],
      "name": "PAY_ROLE",
      "outputs": [
        {
          "internalType": "bytes32",
          "name": "",
          "type": "bytes32"
        }
      ],
      "stateMutability": "view",
      "type": "function"
    },
    {
      "inputs": [
        {
          "internalType": "uint256",
          "name": "_couponDate",
          "type": "uint256"
        }
      ],
      "name": "_totalSupplyAtCoupon",
      "outputs": [
        {
          "internalType": "uint256",
          "name": "",
          "type": "uint256"
        }
      ],
      "stateMutability": "view",
      "type": "function"
    },
    {
      "inputs": [
        {
          "internalType": "address",
          "name": "holder",
          "type": "address"
        },
        {
          "internalType": "address",
          "name": "spender",
          "type": "address"
        }
      ],
      "name": "allowance",
      "outputs": [
        {
          "internalType": "uint256",
          "name": "",
          "type": "uint256"
        }
      ],
      "stateMutability": "view",
      "type": "function"
    },
    {
      "inputs": [
        {
          "internalType": "address",
          "name": "",
          "type": "address"
        },
        {
          "internalType": "uint256",
          "name": "",
          "type": "uint256"
        }
      ],
      "name": "approve",
      "outputs": [
        {
          "internalType": "bool",
          "name": "",
          "type": "bool"
        }
      ],
      "stateMutability": "nonpayable",
      "type": "function"
    },
    {
      "inputs": [
        {
          "internalType": "address",
          "name": "account",
          "type": "address"
        }
      ],
      "name": "balanceOf",
      "outputs": [
        {
          "internalType": "uint256",
          "name": "",
          "type": "uint256"
        }
      ],
      "stateMutability": "view",
      "type": "function"
    },
    {
      "inputs": [
        {
          "internalType": "address",
          "name": "account",
          "type": "address"
        },
        {
          "internalType": "uint256",
          "name": "snapshotId",
          "type": "uint256"
        }
      ],
      "name": "balanceOfAt",
      "outputs": [
        {
          "internalType": "uint256",
          "name": "",
          "type": "uint256"
        }
      ],
      "stateMutability": "view",
      "type": "function"
    },
    {
      "inputs": [
        {
          "internalType": "address",
          "name": "account",
          "type": "address"
        },
        {
          "internalType": "uint256",
          "name": "_couponDate",
          "type": "uint256"
        }
      ],
      "name": "balanceOfCoupon",
      "outputs": [
        {
          "internalType": "uint256",
          "name": "",
          "type": "uint256"
        }
      ],
      "stateMutability": "view",
      "type": "function"
    },
    {
      "inputs": [
        {
          "internalType": "uint256",
          "name": "amount_",
          "type": "uint256"
        }
      ],
      "name": "burn",
      "outputs": [],
      "stateMutability": "nonpayable",
      "type": "function"
    },
    {
      "inputs": [],
      "name": "currentCouponDate",
      "outputs": [
        {
          "internalType": "uint256",
          "name": "",
          "type": "uint256"
        }
      ],
      "stateMutability": "view",
      "type": "function"
    },
    {
      "inputs": [],
      "name": "currentSnapshotDatetime",
      "outputs": [
        {
          "internalType": "uint256",
          "name": "",
          "type": "uint256"
        }
      ],
      "stateMutability": "view",
      "type": "function"
    },
    {
      "inputs": [
        {
          "internalType": "address",
          "name": "",
          "type": "address"
        },
        {
          "internalType": "uint256",
          "name": "",
          "type": "uint256"
        }
      ],
      "name": "decreaseAllowance",
      "outputs": [
        {
          "internalType": "bool",
          "name": "",
          "type": "bool"
        }
      ],
      "stateMutability": "nonpayable",
      "type": "function"
    },
    {
      "inputs": [
        {
          "internalType": "uint256",
          "name": "CouponDate",
          "type": "uint256"
        }
      ],
      "name": "getInvestorListAtCoupon",
      "outputs": [
        {
          "internalType": "address[]",
          "name": "",
          "type": "address[]"
        }
      ],
      "stateMutability": "view",
      "type": "function"
    },
    {
      "inputs": [
        {
          "internalType": "bytes32",
          "name": "role",
          "type": "bytes32"
        }
      ],
      "name": "getRoleAdmin",
      "outputs": [
        {
          "internalType": "bytes32",
          "name": "",
          "type": "bytes32"
        }
      ],
      "stateMutability": "view",
      "type": "function"
    },
    {
      "inputs": [
        {
          "internalType": "bytes32",
          "name": "role",
          "type": "bytes32"
        },
        {
          "internalType": "uint256",
          "name": "index",
          "type": "uint256"
        }
      ],
      "name": "getRoleMember",
      "outputs": [
        {
          "internalType": "address",
          "name": "",
          "type": "address"
        }
      ],
      "stateMutability": "view",
      "type": "function"
    },
    {
      "inputs": [
        {
          "internalType": "bytes32",
          "name": "role",
          "type": "bytes32"
        }
      ],
      "name": "getRoleMemberCount",
      "outputs": [
        {
          "internalType": "uint256",
          "name": "",
          "type": "uint256"
        }
      ],
      "stateMutability": "view",
      "type": "function"
    },
    {
      "inputs": [
        {
          "internalType": "bytes32",
          "name": "role",
          "type": "bytes32"
        },
        {
          "internalType": "address",
          "name": "account",
          "type": "address"
        }
      ],
      "name": "grantRole",
      "outputs": [],
      "stateMutability": "nonpayable",
      "type": "function"
    },
    {
      "inputs": [
        {
          "internalType": "bytes32",
          "name": "role",
          "type": "bytes32"
        },
        {
          "internalType": "address",
          "name": "account",
          "type": "address"
        }
      ],
      "name": "hasRole",
      "outputs": [
        {
          "internalType": "bool",
          "name": "",
          "type": "bool"
        }
      ],
      "stateMutability": "view",
      "type": "function"
    },
    {
      "inputs": [
        {
          "internalType": "address",
          "name": "",
          "type": "address"
        },
        {
          "internalType": "uint256",
          "name": "",
          "type": "uint256"
        }
      ],
      "name": "increaseAllowance",
      "outputs": [
        {
          "internalType": "bool",
          "name": "",
          "type": "bool"
        }
      ],
      "stateMutability": "nonpayable",
      "type": "function"
    },
    {
      "inputs": [
        {
          "internalType": "address",
          "name": "from",
          "type": "address"
        },
        {
          "internalType": "address",
          "name": "to",
          "type": "address"
        },
        {
          "internalType": "uint256",
          "name": "amount",
          "type": "uint256"
        },
        {
          "internalType": "bytes32",
          "name": "txId",
          "type": "bytes32"
        },
        {
          "internalType": "bytes32",
          "name": "hL",
          "type": "bytes32"
        },
        {
          "internalType": "bytes32",
          "name": "hR",
          "type": "bytes32"
        },
        {
          "internalType": "bytes32",
          "name": "hC",
          "type": "bytes32"
        },
        {
          "internalType": "uint256",
          "name": "pDate",
          "type": "uint256"
        },
        {
          "internalType": "uint256",
          "name": "dDate",
          "type": "uint256"
        },
        {
          "internalType": "bytes32",
          "name": "proof",
          "type": "bytes32"
        }
      ],
      "name": "lock",
      "outputs": [],
      "stateMutability": "nonpayable",
      "type": "function"
    },
    {
      "inputs": [
        {
          "internalType": "uint256",
          "name": "amount_",
          "type": "uint256"
        }
      ],
      "name": "mint",
      "outputs": [],
      "stateMutability": "nonpayable",
      "type": "function"
    },
    {
      "inputs": [],
      "name": "nextSnapshotDatetime",
      "outputs": [
        {
          "internalType": "uint256",
          "name": "",
          "type": "uint256"
        }
      ],
      "stateMutability": "view",
      "type": "function"
    },
    {
      "inputs": [
        {
          "internalType": "bytes32",
          "name": "txId",
          "type": "bytes32"
        },
        {
          "internalType": "bytes32",
          "name": "secret",
          "type": "bytes32"
        },
        {
          "internalType": "bytes32",
          "name": "proof",
          "type": "bytes32"
        },
        {
          "internalType": "enum ICouponSnapshotManagementInternal.LStatus",
          "name": "status_",
          "type": "uint8"
        }
      ],
      "name": "release",
      "outputs": [],
      "stateMutability": "nonpayable",
      "type": "function"
    },
    {
      "inputs": [
        {
          "internalType": "bytes32",
          "name": "role",
          "type": "bytes32"
        }
      ],
      "name": "renounceRole",
      "outputs": [],
      "stateMutability": "nonpayable",
      "type": "function"
    },
    {
      "inputs": [
        {
          "internalType": "bytes32",
          "name": "role",
          "type": "bytes32"
        },
        {
          "internalType": "address",
          "name": "account",
          "type": "address"
        }
      ],
      "name": "revokeRole",
      "outputs": [],
      "stateMutability": "nonpayable",
      "type": "function"
    },
    {
      "inputs": [],
      "name": "totalSupply",
      "outputs": [
        {
          "internalType": "uint256",
          "name": "",
          "type": "uint256"
        }
      ],
      "stateMutability": "view",
      "type": "function"
    },
    {
      "inputs": [
        {
          "internalType": "uint256",
          "name": "snapshotId",
          "type": "uint256"
        }
      ],
      "name": "totalSupplyAt",
      "outputs": [
        {
          "internalType": "uint256",
          "name": "",
          "type": "uint256"
        }
      ],
      "stateMutability": "view",
      "type": "function"
    },
    {
      "inputs": [
        {
          "internalType": "uint256",
          "name": "_couponDate",
          "type": "uint256"
        }
      ],
      "name": "totalSupplyAtCoupon",
      "outputs": [
        {
          "internalType": "uint256",
          "name": "",
          "type": "uint256"
        }
      ],
      "stateMutability": "view",
      "type": "function"
    },
    {
      "inputs": [
        {
          "internalType": "address",
          "name": "",
          "type": "address"
        },
        {
          "internalType": "uint256",
          "name": "",
          "type": "uint256"
        }
      ],
      "name": "transfer",
      "outputs": [
        {
          "internalType": "bool",
          "name": "",
          "type": "bool"
        }
      ],
      "stateMutability": "nonpayable",
      "type": "function"
    },
    {
      "inputs": [
        {
          "internalType": "address",
          "name": "from_",
          "type": "address"
        },
        {
          "internalType": "address",
          "name": "to_",
          "type": "address"
        },
        {
          "internalType": "uint256",
          "name": "amount_",
          "type": "uint256"
        }
      ],
      "name": "transferFrom",
      "outputs": [
        {
          "internalType": "bool",
          "name": "",
          "type": "bool"
        }
      ],
      "stateMutability": "nonpayable",
      "type": "function"
    }
  ],
  "bytecode": "0x60808060405234610016576131f7908161001c8239f35b600080fdfe6080604052600436101561001257600080fd5b60003560e01c8063074790791461021257806307b2d9e31461020d578063095ea7b31461020857806318160ddd146102035780631c67a363146101fe57806323b872dd146101f9578063248a9ca3146101f45780632682ac91146101ef5780632f2ff15d146101ea57806339509351146101e55780633bf2a9f4146101e05780633e0abded1461019057806342966c68146101db5780634ee2cd7e146101d657806370a08231146101d15780637c5d728a146101cc5780637cc7bcce146101c75780638865f1e2146101c25780638bb9c5bf146101bd5780639010d07c146101b857806391d14854146101b3578063981b24d0146101ae5780639ef986de146101a9578063a0712d68146101a4578063a457c2d71461019f578063a9059cbb1461019a578063ca15c87314610195578063cf5b362814610190578063d547741f1461018b578063dd62ed3e14610186578063e5bf6dc8146101815763eeb4cee91461017c57600080fd5b611135565b61110a565b61109a565b61104e565b610820565b611015565b610fbf565b610f60565b610e9e565b610e73565b610e55565b610dfd565b610d8c565b610d6d565b610d44565b610c16565b610958565b61092c565b610905565b61083e565b6107e5565b610786565b61064c565b610611565b6105d5565b61059c565b610561565b610536565b6104e1565b6104b2565b610248565b600435906001600160a01b038216820361022d57565b600080fd5b602435906001600160a01b038216820361022d57565b3461022d576101408060031936011261022d57610263610217565b9061026c610232565b7f04534360b58fb9f50d72d53f647fb2bba1ea9367c2dfebc1a40179968b6e043b6104326044359261040c606435946103d46084359760e43561010435906102d9336102b6611160565b6001600160a01b0390911660009081526001919091016020526040902054151590565b80156104a0575b8015610484575b8015610470575b6102f790612138565b610337600a61032f8c6000527f95d8298a3d25370298f52eb5e4c2caa68ca2492c02741ad9ada9443a021d7593602052604060002090565b015460ff1690565b61034081611a7a565b158061044a575b80610441575b80610437575b61035c90612181565b6103658c61203d565b610370868254612174565b905561037a61192b565b6001600160a01b038d168152946001600160a01b038816602087015260408601528960608601528a608086015260a43560a086015260c43560c086015260e085015261010084015261012435610120840152820160019052565b610407866000527f95d8298a3d25370298f52eb5e4c2caa68ca2492c02741ad9ada9443a021d7593602052604060002090565b6121d4565b60408051958652600160208701526001600160a01b039182169690911694918291820190565b0390a4005b5080821015610353565b5042811161034d565b508b61046961046261045b83611fcb565b549261203d565b5487612174565b1115610347565b506102f761047d33611f76565b90506102ee565b5061049b61049133612004565b5460a01c60ff1690565b6102e7565b506104ad336102b66111a8565b6102e0565b3461022d57604036600319011261022d5760206104d96104d0610217565b602435906118b2565b604051908152f35b3461022d57604036600319011261022d576104fa610217565b5060405162461bcd60e51b8152602060048201526013602482015272185c1c1c9bdd99481a5cc8191a5cd8589b1959606a1b6044820152606490fd5b3461022d57600036600319011261022d57602060008051602061318283398151915254604051908152f35b3461022d57600036600319011261022d5760206040517f6ba6f588bcdc2df8426603a466c98ab15e79f7fb7f37b53581ce39c1d01b72498152f35b3461022d57606036600319011261022d5760206105cb6105ba610217565b6105c2610232565b60443591611de1565b6040519015158152f35b3461022d57602036600319011261022d576004356000526000805160206131028339815191526020526020600260406000200154604051908152f35b3461022d57600036600319011261022d5760206040517ff698af62c65280e4949bceec64b760f3b7738217cbc536cdfc4c9463676b05c28152f35b3461022d57604036600319011261022d57600435610668610232565b90600091818352600080516020613102833981519152806020526106926002604086200154611202565b821560000361153d576000805160206131428339815191528381036107125750506106d8916106c3336102b6611160565b80156106db575b6106d3906114da565b61158e565b80f35b503360009081527f49954ab00355d427d0ed155d763a8dbf20297b7dde63ccd80a8bd10bb555baef602052604090205415156106ca565b8452602052610734336040852060019160005201602052604060002054151590565b15610742576106d89161158e565b606460405162461bcd60e51b815260206004820152602060248201527f43616c6c6572206d7573742062652043414b20746f20736574206120726f6c656044820152fd5b3461022d57604036600319011261022d5761079f610217565b5060405162461bcd60e51b815260206004820152601d60248201527f696e637265617365416c6c6f77616e63652069732064697361626c65640000006044820152606490fd5b3461022d57600036600319011261022d5760206040517fd7aa2ddfa4e381128202bf365b7e0a176f2fca6cdf2f23c2b0a6f439376958908152f35b3461022d57602036600319011261022d5760206104d96004356118ec565b3461022d57602036600319011261022d5760043533156108f35761086281336125a6565b61086b33611fcb565b54908181116108e157806000920361088233611fcb565b556108b161089f8260008051602061318283398151915254612311565b60008051602061318283398151915255565b60405190815233907fddf252ad1be2c89b69c2b068fc378daa952ba7f163c4a11628f55a4df523b3ef90602090a3005b60405163b1d35b2360e01b8152600490fd5b6040516378f1627760e11b8152600490fd5b3461022d57604036600319011261022d5760206104d9610923610217565b60243590612972565b3461022d57602036600319011261022d57602061094f61094a610217565b611fcb565b54604051908152f35b3461022d57608036600319011261022d57606435602435600435600583101561022d57610987336102b6611160565b8015610bc0575b8015610bae575b8015610b9a575b6109a590612138565b6109d8816000527f95d8298a3d25370298f52eb5e4c2caa68ca2492c02741ad9ada9443a021d7593602052604060002090565b92600a8401906109fd60016109ee845460ff1690565b6109f781611a7a565b1461228b565b600080610a0983611a7a565b60028303610b56575050600485015460005b60206000610a53604051610a4781610a398c87830160209181520190565b03601f1981018352826113c3565b60405191828092611375565b039060025afa15610b51577f04534360b58fb9f50d72d53f647fb2bba1ea9367c2dfebc1a40179968b6e043b93610a9a8492610a9f94600051149081610b47575b506122d4565b6121bc565b60443560098601556002850180548654610acd90610ac5906001600160a01b031661203d565b918254612311565b9055610ad882611a7a565b60048203610b1f575b508454610b03906001906001600160a01b03169601546001600160a01b031690565b61043260405192839260018060a01b0380911698169683612275565b855460018701549154610b409290916001600160a01b0391821691166128a3565b5038610ae1565b9050421138610a94565b6122c8565b610b5f83611a7a565b60038303610b7857505060058501546008860154610a1b565b610b8183611a7a565b60048303610a1b57505060068501546007860154610a1b565b506109a5610ba733611f76565b905061099c565b50610bbb61049133612004565b610995565b50610bcd336102b66111a8565b61098e565b6020908160408183019282815285518094520193019160005b828110610bf9575050505090565b83516001600160a01b031685529381019392810192600101610beb565b3461022d57602036600319011261022d577f332cf6b129284e49df93f4be38bb1959bb5fa7d7d0ce3d4ad668f566f35f6fd454600435610c5582611964565b91600091825b828110610ccf57505050610c6e81611964565b9160005b828110610c8b5760405180610c878682610bd2565b0390f35b80610cc5610cac610c9f610cca94866119c0565b516001600160a01b031690565b610cb683886119c0565b6001600160a01b039091169052565b6119ac565b610c72565b610cf382610cdc8361142a565b905460039190911b1c6001600160a01b03166118b2565b610d06575b610d01906119ac565b610c5b565b92610d3c610d0191610cc5610d32610d1d8861142a565b905460039190911b1c6001600160a01b031690565b610cb6838a6119c0565b939050610cf8565b3461022d57600036600319011261022d5760206040516000805160206131428339815191528152f35b3461022d57602036600319011261022d57610d8a336004356116b9565b005b3461022d57604036600319011261022d5760243560043560005260008051602061310283398151915260205260406000208054821015610deb57602091610dd2916114c2565b905460405160039290921b1c6001600160a01b03168152f35b60405163e637bf3b60e01b8152600490fd5b3461022d57604036600319011261022d5760206105cb610e1b610232565b6004356000908152600080516020613102833981519152845260408082206001600160a01b03909316825260019092016020522054151590565b3461022d57602036600319011261022d5760206104d9600435612bf4565b3461022d57600036600319011261022d5760206000805160206130a283398151915254604051908152f35b3461022d57602036600319011261022d573360009081527f50b3f923c5a6856525e4c909aeb0ca298445e09ab2763b3edcaf4569b7b61a2b602052604090205415610f26577fe02854d75ca0f6b56099fb1e1546a75ef76f441f4e6082f2e3cbb1e8dc5591ac54610d8a906001600160a01b0316610f1d8115156119d4565b6004359061231e565b60405162461bcd60e51b815260206004820152601260248201527143616c6c6572206d7573742062652043414b60701b6044820152606490fd5b3461022d57604036600319011261022d57610f79610217565b5060405162461bcd60e51b815260206004820152601d60248201527f6465637265617365416c6c6f77616e63652069732064697361626c65640000006044820152606490fd5b3461022d57604036600319011261022d57610fd8610217565b5060405162461bcd60e51b81526020600482015260146024820152731d1c985b9cd9995c881a5cc8191a5cd8589b195960621b6044820152606490fd5b3461022d57602036600319011261022d576004356000526000805160206131028339815191526020526020604060002054604051908152f35b3461022d57604036600319011261022d57610d8a60043561106d610232565b9080600052600080516020613102833981519152602052611095600260406000200154611202565b6116b9565b3461022d57604036600319011261022d576110b3610217565b6110bb610232565b9060018060a01b038091166000527fbbbdc1476a0878f2ef9a893c81f5b6f6ea1b3acaf18ff47ccb69cd4267d50c87602052604060002091166000526020526020604060002054604051908152f35b3461022d57600036600319011261022d57602060008051602061308283398151915254604051908152f35b3461022d57600036600319011261022d57602060008051602061306283398151915254604051908152f35b6000805160206131428339815191526000526000805160206131028339815191526020527f50b3f923c5a6856525e4c909aeb0ca298445e09ab2763b3edcaf4569b7b61a2a90565b7ff698af62c65280e4949bceec64b760f3b7738217cbc536cdfc4c9463676b05c26000526000805160206131028339815191526020527fabd61a76922391e052347881b66bf46d3dcbf17e7d4372fe4f5b73d5552bd1c190565b8060005260008051602061310283398151915260205261123633604060002060019160005201602052604060002054151590565b1561123e5750565b33611247612f86565b90603061125383612fb3565b53607861125f83612fc0565b5360295b6001811161131157506112ff576112e36112c691610a396112866112fb95612fe1565b6112c06040519586946112c0602087016017907f416363657373436f6e74726f6c3a206163636f756e742000000000000000000081520190565b90611375565b7001034b99036b4b9b9b4b733903937b6329607d1b815260110190565b60405162461bcd60e51b8152918291600483016113e5565b0390fd5b60405163c913478560e01b8152600490fd5b90600f8116601081101561134d576f181899199a1a9b1b9c1cb0b131b232b360811b901a61133f8385612fd0565b5360041c9060001901611263565b611414565b60005b8381106113655750506000910152565b8181015183820152602001611355565b9061138860209282815194859201611352565b0190565b634e487b7160e01b600052604160045260246000fd5b6080810190811067ffffffffffffffff8211176113be57604052565b61138c565b90601f8019910116810190811067ffffffffffffffff8211176113be57604052565b604091602082526114058151809281602086015260208686019101611352565b601f01601f1916010190565b90565b634e487b7160e01b600052603260045260246000fd5b7f332cf6b129284e49df93f4be38bb1959bb5fa7d7d0ce3d4ad668f566f35f6fd4805482101561134d576000527f3b5a704516de56a4fa30eb29b0bf899a47de4e07d715ffde30cee9d593da44160190600090565b6000805160206131a2833981519152805482101561134d576000527ff5a3bcbc6b6d041d725e0cd57d56807470e3ad7b22c8030b45ce347aacbb094c0190600090565b805482101561134d5760005260206000200190600090565b156114e157565b60405162461bcd60e51b815260206004820152602e60248201527f43616c6c6572206d7573742062652043414b206f722041444d494e20746f207360448201526d657420616e6f746865722043414b60901b6064820152608490fd5b60405162461bcd60e51b8152602060048201526024808201527f5573652066756e6374696f6e206368616e676541646d696e526f6c6520696e736044820152631d19585960e21b6064820152608490fd5b90600091808352600080516020613102833981519152602052604083209160018060a01b0316916115cf838260019160005201602052604060002054151590565b156115fd575b507f2f8788117e7eff1d82e926ec794901d17c78024a50270940304540a733656f0d339380a4565b8054600160401b8110156113be5761163661161f8260018794018555846114c2565b819391549060031b91821b91600019901b19161790565b90556001815491848652016020526040842055386115d5565b6000805160206130a283398151915255565b1561166857565b60405162461bcd60e51b8152602060048201526024808201527f43616c6c6572206d7573742062652041444d494e20746f2072656d6f766520616044820152632043414b60e01b6064820152608490fd5b9081156117af5760008051602061314283398151915282810361171d57503360009081527f49954ab00355d427d0ed155d763a8dbf20297b7dde63ccd80a8bd10bb555baef602052604090205461171b9290611716901515611661565b6117b4565b565b60005260008051602061310283398151915260205261175033604060002060019160005201602052604060002054151590565b1561175e5761171b916117b4565b60405162461bcd60e51b815260206004820152602360248201527f43616c6c6572206d7573742062652043414b20746f2072656d6f7665206120726044820152626f6c6560e81b6064820152608490fd5b61153d565b90600091808352600080516020613102833981519152602052604083209160018060a01b03169160018101908385528160205260408520548061181c575b5050507ff6391f5c32d9c69d2a47ea670b442974b53935d1edc7fd64eb21e047a839171b339380a4565b6000199061182d82845401846114c2565b90549060031b1c8061184461161f858501876114c2565b905587528360205260408720558154801561189e57926118959286928895019061188361187183836114c2565b81929154906000199060031b1b191690565b90555590600052602052604060002090565b553880806117f2565b634e487b7160e01b87526031600452602487fd5b60009182526000805160206130c283398151915260205260409091205480156118de5761141191612972565b506118e890611fcb565b5490565b60009081526000805160206130c2833981519152602052604090205480156119175761141190612bf4565b506000805160206131828339815191525490565b60405190610160820182811067ffffffffffffffff8211176113be57604052565b67ffffffffffffffff81116113be5760051b60200190565b9061196e8261194c565b61197b60405191826113c3565b828152809261198c601f199161194c565b0190602036910137565b634e487b7160e01b600052601160045260246000fd5b60001981146119bb5760010190565b611996565b805182101561134d5760209160051b010190565b156119db57565b60405162461bcd60e51b815260206004820152602660248201527f596f75206d7573742073657420746865206d696e74207265636569766572206160448201526564647265737360d01b6064820152608490fd5b15611a3657565b606460405162461bcd60e51b815260206004820152602060248201527f5468697320636f6e7472616374206973206e6f742077686974656c69737465646044820152fd5b60051115611a8457565b634e487b7160e01b600052602160045260246000fd5b15611aa157565b60405162461bcd60e51b815260206004820152603360248201527f4e6f207472616e736665722063616e20626520646f6e65207768656e20746865604482015272103932b3b4b9ba32b91034b990233937bd32b760691b6064820152608490fd5b15611b0957565b60405162461bcd60e51b815260206004820152601b60248201527f546865207265636569766572206973206e6f7420616c6c6f77656400000000006044820152606490fd5b15611b5557565b60405162461bcd60e51b815260206004820152601960248201527f5468652073656e646572206973206e6f7420616c6c6f776564000000000000006044820152606490fd5b906000917fe02854d75ca0f6b56099fb1e1546a75ef76f441f4e6082f2e3cbb1e8dc5591a25460019181831c92808316928315611ca1575b6020928386108514611c8b5785815260200193908115611c705750600114611bfb575b50505050565b7fe02854d75ca0f6b56099fb1e1546a75ef76f441f4e6082f2e3cbb1e8dc5591a260009081529495509192917f4ff84e76aeded3538c0732987ce9e49e04fc1ac1cad06e9f5f3190af947b6db65b838610611c5f5750505050019038808080611bf5565b805485870152948201948101611c49565b60ff1916845250505090151560051b01915038808080611bf5565b634e487b7160e01b600052602260045260246000fd5b93607f1693611bd2565b91906060835260007fe02854d75ca0f6b56099fb1e1546a75ef76f441f4e6082f2e3cbb1e8dc5591a15490600182811c90808416908115611dd7575b6020948584108314611dc357606089018490526080890192908115611da75750600114611d33575b5050508060409286611d25930390870152611b9a565b93611d2f83611a7a565b0152565b7fe02854d75ca0f6b56099fb1e1546a75ef76f441f4e6082f2e3cbb1e8dc5591a16000529250907fd1f99be46ae477d48e362562b50439d9697e6c7575c4317b1393eeb6c1388fbf926000935b828510611d96575050500181611d256040611d0f565b805484860152938501938101611d80565b60ff19168352505090151560051b01905081611d256040611d0f565b634e487b7160e01b85526022600452602485fd5b91607f1691611ce7565b9190611def336102b6611160565b15611e0357611dfd926128a3565b50600190565b611dfd92611e18611e1333611f76565b611a2f565b6000805160206131628339815191526001611e34825460ff1690565b611e3d81611a7a565b611e4a6004821415611a9a565b611e5381611a7a565b1480611f64575b80611f28575b15611ecb57600080516020613162833981519152805460ff19166002179055611e9390611e8c84612076565b5460ff1690565b7fda2010acfda7a262372331cb3b57e3f648f63eb009a423a2b5602cfa4f9bff5160405180611ec3339482611cab565b0390a26128a3565b50611ee56001611edd61049185612004565b151514611b02565b6001611efb611ef661049184612004565b151590565b148015611f11575b611f0c90611b4e565b6128a3565b50611f0c611f21826102b66111a8565b9050611f03565b507fe02854d75ca0f6b56099fb1e1546a75ef76f441f4e6082f2e3cbb1e8dc5591ac546001600160a01b03166001600160a01b03831614611e60565b50611f71836102b66111a8565b611e5a565b803b60405190601f19603f820116820160405280825260006020830180943c5190206000527f3ab46f175c5f1d1c97765e87ec0d68e6241fafc1b077d060ce0c29744cd3616d60205260ff6040600020541690565b6001600160a01b031660009081527fbbbdc1476a0878f2ef9a893c81f5b6f6ea1b3acaf18ff47ccb69cd4267d50c866020526040902090565b6001600160a01b031660009081527f332cf6b129284e49df93f4be38bb1959bb5fa7d7d0ce3d4ad668f566f35f6fd56020526040902090565b6001600160a01b031660009081527f95d8298a3d25370298f52eb5e4c2caa68ca2492c02741ad9ada9443a021d75926020526040902090565b7f332cf6b129284e49df93f4be38bb1959bb5fa7d7d0ce3d4ad668f566f35f6fd4908154600160401b8110156113be5761212b926001820190556120b98161142a565b81549060031b9060018060a01b03808616831b921b191617905560016120de83612004565b015561210c816120ed81612004565b80546001600160a01b0319166001600160a01b03909216919091179055565b600261211782612004565b0180546001600160a01b0319169055612004565b805460ff60a01b19169055565b1561213f57565b60405162461bcd60e51b815260206004820152600d60248201526c1058d8d95cdcc811195b9a5959609a1b6044820152606490fd5b919082018092116119bb57565b1561218857565b60405162461bcd60e51b815260206004820152600c60248201526b496e76616c6964206461746560a01b6044820152606490fd5b906121c681611a7a565b60ff80198354169116179055565b815181546001600160a01b039182166001600160a01b0319918216178355602084015160018401805491909316911617905560408201516002820155606082015160038201556080820151600482015560a0820151600582015560c0820151600682015560e08201516007820155610100820151600882015561012082015160098201556101409091015161171b91600a9061226f83611a7a565b016121bc565b90815260408101929190602090611d2f83611a7a565b1561229257565b60405162461bcd60e51b815260206004820152600e60248201526d496e76616c69642053746174757360901b6044820152606490fd5b6040513d6000823e3d90fd5b156122db57565b60405162461bcd60e51b815260206004820152600e60248201526d125b9d985b1a590814d958dc995d60921b6044820152606490fd5b919082039182116119bb57565b6001600160a01b0381169190821561243257612358600360ff600080516020613162833981519152541661235181611a7a565b1415612444565b600080516020613122833981519152805460ff8116156123f05760ff191690555b612381612735565b5061238b81612c4f565b6000805160206131828339815191529081548381018091116119bb576123b19255611fcb565b8054908282018092116119bb57556040519081526000907fddf252ad1be2c89b69c2b068fc378daa952ba7f163c4a11628f55a4df523b3ef90602090a3565b50506000805160206130a28339815191525461240d8115156124c4565b42106123795761242d60008051602061306283398151915254151561254e565b612379565b60405163da007acd60e01b8152600490fd5b1561244b57565b60405162461bcd60e51b81526020600482015260166024820152751d1a1948149959da5cdd195c881a5cc818db1bdcd95960521b6044820152606490fd5b1561249057565b60405162461bcd60e51b815260206004820152600c60248201526b105cdcd95d08131bd8dad95960a21b6044820152606490fd5b156124cb57565b60405162461bcd60e51b815260206004820152604f60248201527f746865207265676973746572206973206c6f636b65642062656361757365206e60448201527f6f20636f75706f6e206973207072657061726564206f7220746865206d61747560648201526e1c9a5d1e481a5cc81c995858da1959608a1b608482015260a490fd5b1561255557565b60405162461bcd60e51b8152602060048201526024808201527f746865206d61747572697479206375742d6f66662074696d65206861732070616044820152631cdcd95960e21b6064820152608490fd5b6125ed61171b926125d460036125cb6000805160206131628339815191525460ff1690565b61235181611a7a565b6001600160a01b0383161590811561266b575b50612489565b6000805160206131228339815191525460ff161561262b57600080516020613122833981519152805460ff191690555b612625612735565b50612c60565b6000805160206130a2833981519152546126468115156124c4565b421061261d5761266660008051602061306283398151915254151561254e565b61261d565b905061268a61267984611fcb565b54916126848561203d565b54612174565b1115386125e7565b6126b761171b936125d460036125cb6000805160206131628339815191525460ff1690565b6000805160206131228339815191525460ff16156126f557600080516020613122833981519152805460ff191690555b6126ef612735565b50612d4d565b6000805160206130a2833981519152546127108115156124c4565b42106126e75761273060008051602061306283398151915254151561254e565b6126e7565b6000805160206130a283398151915280548015159081612838575b8161282d575b501561282757612764612c06565b906000805160206130828339815191528261279782546000526000805160206130c2833981519152602052604060002090565b55600080516020613062833981519152906127c782546000908015156000146128145761164f9150855490612884565b6127e66127d48454612872565b60008051602061308283398151915255565b5491549054917f4d1d74d5cbfc13e02ef05af3a30d8721e87a00d20bc3dc42198917139944def3600080a490565b506000805160206130a283398151915255565b50600090565b905042101538612756565b905061286a600080516020613082833981519152546000526000805160206130c2833981519152602052604060002090565b541590612750565b62015180810681039081116119bb5790565b90620151809081830683039283116119bb570681018091116119bb5790565b6001600160a01b03808216929190831561296057821693841561294e576128cb818484612692565b6128d482611fcb565b5480821161293c577fddf252ad1be2c89b69c2b068fc378daa952ba7f163c4a11628f55a4df523b3ef936129349361291184612917940391611fcb565b55611fcb565b612922828254612174565b90556040519081529081906020820190565b0390a3600190565b604051637183160b60e01b8152600490fd5b6040516320a2645160e21b8152600490fd5b6040516368551d5f60e01b8152600490fd5b6001600160a01b03811660009081527fcd7a55ef023eb5931cc022a9bdc64cb5b46c3a6e53bcaa84915eea6084f1c7b46020526040902090916129b59190612a87565b9190156129c0575090565b6118e89150611fcb565b8015612a75576000805160206130e2833981519152548111612a63576129ef90612ad9565b6000805160206131a2833981519152548103612a0e5750600090600090565b7fcd7a55ef023eb5931cc022a9bdc64cb5b46c3a6e53bcaa84915eea6084f1c7b6805482101561134d576000527f78cc72d8a5d41810ecdf17a54bbe351019608f72af6235ad66f0cdd94cce8ba30154600191565b604051631b049b9560e11b8152600490fd5b604051636e6ae24760e01b8152600490fd5b8015612a75576000805160206130e2833981519152548111612a6357612aad9082612b6f565b81548103612abf575050600090600090565b6001612acb92016114c2565b90549060031b1c9060019190565b6000805160206131a283398151915254908115612b68576000915b808310612b3657508115159081612b13575b5015611411576000190190565b9050612b2f612b25600019840161147f565b90549060031b1c90565b1438612b06565b600190808418821c818516019183612b50612b258561147f565b1115612b5d575050612af4565b919093500191612af4565b5050600090565b8054918215612bec576000925b808410612bb957508215159182612b9c575b505015611411576000190190565b612bb1919250612b25906000198501906114c2565b143880612b8e565b600190808518821c818616019183612bd4612b2585886114c2565b1115612be1575050612b7c565b919094500192612b7c565b505050600090565b612bfd906129ca565b90156119175790565b6000805160206130e2833981519152612c1f81546119ac565b8091557f8030e83b04d87bef53480e26263266d6ca66863aa8506aca6f2559d18aa1cb676020604051838152a190565b612c5890612d7f565b61171b612e1a565b6001600160a01b038116612c4f575060008080527fbbbdc1476a0878f2ef9a893c81f5b6f6ea1b3acaf18ff47ccb69cd4267d50c866020527f5a41dbc90622ed82c642ffd35e59b3402ad0fb9fbfeed6ca5d38262b620300e8546000805160206130e2833981519152547f47c7415e15faf94fccc09c6aad755d4bbb41ce96e65e336a616481aacac5f5ca80549093829180612d2757505b10612d09575b50505061171b612e1a565b82612d19600192612d1f95612f60565b01612f60565b388080612cfe565b60001981019250821190506119bb57612d418291856114c2565b90549060031b1c612cf8565b6001600160a01b03818116612d67575050612c5890612d7f565b8216612d7757612c589150612d7f565b612d7f61171b925b6001600160a01b03811660009081527fcd7a55ef023eb5931cc022a9bdc64cb5b46c3a6e53bcaa84915eea6084f1c7b460205260409020612dc09091611fcb565b546000805160206130e283398151915254825480612df757508060005b10612de757505050565b82612d1960019261171b95612f60565b60001981019081116119bb57612e0e8291856114c2565b90549060031b1c612ddd565b600080516020613182833981519152546000805160206130e283398151915254906000805160206131a283398151915291825460008115600014612eba57508160005b10612e685750505050565b600160401b8110156113be576001810180855581101561134d57612eb1936000527ff5a3bcbc6b6d041d725e0cd57d56807470e3ad7b22c8030b45ce347aacbb094c0155612efa565b38808080611bf5565b60001982018281116119bb5782111561134d57849052817ff5a3bcbc6b6d041d725e0cd57d56807470e3ad7b22c8030b45ce347aacbb094b820154612e5d565b7fcd7a55ef023eb5931cc022a9bdc64cb5b46c3a6e53bcaa84915eea6084f1c7b6805490600160401b8210156113be576001820180825582101561134d576000527f78cc72d8a5d41810ecdf17a54bbe351019608f72af6235ad66f0cdd94cce8ba30155565b805490600160401b8210156113be578161161f916001612f82940181556114c2565b9055565b604051906060820182811067ffffffffffffffff8211176113be57604052602a8252604082602036910137565b80511561134d5760200190565b80516001101561134d5760210190565b90815181101561134d570160200190565b60405190612fee826113a2565b604282526060366020840137603061300583612fb3565b53607861301183612fc0565b5360415b6001811161302557506112ff5790565b90600f8116601081101561134d576f181899199a1a9b1b9c1cb0b131b232b360811b901a6130538385612fd0565b5360041c906000190161301556fe95d8298a3d25370298f52eb5e4c2caa68ca2492c02741ad9ada9443a021d758e95d8298a3d25370298f52eb5e4c2caa68ca2492c02741ad9ada9443a021d758f95d8298a3d25370298f52eb5e4c2caa68ca2492c02741ad9ada9443a021d758d95d8298a3d25370298f52eb5e4c2caa68ca2492c02741ad9ada9443a021d7591cd7a55ef023eb5931cc022a9bdc64cb5b46c3a6e53bcaa84915eea6084f1c7b72e59e4c2e927cdddbb64e181e0668d9a0fa70dd88f94d999cd87d5496a20da6295d8298a3d25370298f52eb5e4c2caa68ca2492c02741ad9ada9443a021d7590a75205b8583660bdad375c0ccde11af17668d76a408a9a5e739251b0f7c59870e02854d75ca0f6b56099fb1e1546a75ef76f441f4e6082f2e3cbb1e8dc5591a0bbbdc1476a0878f2ef9a893c81f5b6f6ea1b3acaf18ff47ccb69cd4267d50c88cd7a55ef023eb5931cc022a9bdc64cb5b46c3a6e53bcaa84915eea6084f1c7b5a2646970667358221220f658891092e1fa652dc38aa4930b21cb98b6bfcab9b81df0e712792c767e7dd864736f6c63430008140033",
  "linkReferences": {},
  "deployedLinkReferences": {}
}