{
  "_format": "hh-sol-artifact-1",
  "contractName": "BinaryHeapUintMock",
  "sourceName": "src/data/BinaryHeapUintMock.sol",
  "abi": [
    {
      "inputs": [
        {
          "internalType": "uint256",
          "name": "value",
          "type": "uint256"
        }
      ],
      "name": "add",
      "outputs": [
        {
          "internalType": "bool",
          "name": "",
          "type": "bool"
        }
      ],
      "stateMutability": "nonpayable",
      "type": "function"
    },
    {
      "inputs": [
        {
          "internalType": "uint256",
          "name": "index",
          "type": "uint256"
        }
      ],
      "name": "at",
      "outputs": [
        {
          "internalType": "uint256",
          "name": "",
          "type": "uint256"
        }
      ],
      "stateMutability": "view",
      "type": "function"
    },
    {
      "inputs": [
        {
          "internalType": "uint256",
          "name": "value",
          "type": "uint256"
        }
      ],
      "name": "contains",
      "outputs": [
        {
          "internalType": "bool",
          "name": "",
          "type": "bool"
        }
      ],
      "stateMutability": "view",
      "type": "function"
    },
    {
      "inputs": [
        {
          "internalType": "uint256",
          "name": "value",
          "type": "uint256"
        }
      ],
      "name": "indexOf",
      "outputs": [
        {
          "internalType": "uint256",
          "name": "",
          "type": "uint256"
        }
      ],
      "stateMutability": "view",
      "type": "function"
    },
    {
      "inputs": [],
      "name": "length",
      "outputs": [
        {
          "internalType": "uint256",
          "name": "",
          "type": "uint256"
        }
      ],
      "stateMutability": "view",
      "type": "function"
    },
    {
      "inputs": [
        {
          "internalType": "uint256",
          "name": "value",
          "type": "uint256"
        }
      ],
      "name": "remove",
      "outputs": [
        {
          "internalType": "bool",
          "name": "",
          "type": "bool"
        }
      ],
      "stateMutability": "nonpayable",
      "type": "function"
    },
    {
      "inputs": [],
      "name": "root",
      "outputs": [
        {
          "internalType": "uint256",
          "name": "",
          "type": "uint256"
        }
      ],
      "stateMutability": "view",
      "type": "function"
    },
    {
      "inputs": [],
      "name": "toArray",
      "outputs": [
        {
          "internalType": "uint256[]",
          "name": "",
          "type": "uint256[]"
        }
      ],
      "stateMutability": "view",
      "type": "function"
    }
  ],
  "bytecode": "0x6080806040523461001657610624908161001c8239f35b600080fdfe6040608081526004908136101561001557600080fd5b6000803560e01c80631003e2d21461039d5780631f7b6d321461037c5780634cc8221514610235578063908ff3031461016c57806391ac7e651461013f578063c34052e014610111578063e0886f90146100c25763ebf0c7171461007857600080fd5b346100bf57806003193601126100bf578054156100ac576020925080526000805160206105cf833981519152549051908152f35b634e487b7160e01b815260328352602490fd5b80fd5b50346100bf5760203660031901126100bf5782359080548210156100fe576020935080526000805160206105cf83398151915201549051908152f35b634e487b7160e01b815260328452602490fd5b50913461013b57602036600319011261013b57602092829135815260018452205415159051908152f35b8280fd5b50913461013b57602036600319011261013b57916020923581526001835281600019912054019051908152f35b50346100bf57806003193601126100bf5781518091805493848352602080930180958380526000805160206105cf83398151915290845b868282106102215750505050849003601f01601f191684019567ffffffffffffffff87118588101761020e575085815282865292518583018190528594938501939290915b8281106101f757505050500390f35b8351855286955093810193928101926001016101e8565b634e487b7160e01b835260419052602482fd5b8354855290930192600192830192016101a3565b508290346100bf5760203660031901126100bf578135918192808352600160205284832054918261026d575b60208587519015158152f35b90919293506000198093016102b2848654016102e861028b84610452565b90549060031b1c936102ba856102d16102a386610452565b90549060031b1c968794610452565b939096610452565b819391549060031b91821b91600019901b19161790565b905583549060031b91821b91600019901b19161790565b9055808652600160205286862054918652868620908154908752878720555583549081156103695750820161031c81610452565b8482549160031b1b1916905583558252600160205281838120558154908160011c805b610356575050505060209060019091838080610261565b8101806103648185876104b8565b61033f565b634e487b7160e01b855260319052602484fd5b509034610399578160031936011261039957602091549051908152f35b5080fd5b508290346100bf5760203660031901126100bf5781358192818352600160205284832054156103d3575b60208486519015158152f35b909180935054906801000000000000000082101561043f57506103ff6102ba8260018594018655610452565b90558154908252600160205280838320558060011c805b61042a5750600191506020905083806103c7565b600019018061043a8184866104b8565b610416565b634e487b7160e01b845260419052602483fd5b906000918254811015610476578280526000805160206105cf833981519152019190565b634e487b7160e01b83526032600452602483fd5b80548210156104a25760005260206000200190600090565b634e487b7160e01b600052603260045260246000fd5b908291600184811b176001810190838110806105a5575b61059d575b5082811080610574575b61056c575b508383036104f2575b50505050565b83610528610503610563968461048a565b90549060031b1c91610539610518878661048a565b90549060031b1c9283928661048a565b856102d16102ba8b8a97959761048a565b905560009080825260018401602052604082205492825260408083209283549281522055556104b8565b388080806104ec565b9250386104e3565b5061057f848361048a565b905461058b838561048a565b90549060031b1c9160031b1c106104de565b9350386104d4565b506105b0868461048a565b90546105bc838661048a565b90549060031b1c9160031b1c106104cf56fe290decd9548b62a8d60345a988386fc84ba6bc95484008f6362f93160ef3e563a26469706673582212201dad283c6a4a7ca4c5bfe544fe0d247cf360aa405d443c18370fa51302a3711264736f6c63430008140033",
  "linkReferences": {},
  "deployedLinkReferences": {}
}