{
  "_format": "hh-sol-artifact-1",
  "contractName": "EIP712Mock",
  "sourceName": "src/cryptography/EIP712Mock.sol",
  "abi": [
    {
      "inputs": [
        {
          "internalType": "bytes32",
          "name": "nameHash",
          "type": "bytes32"
        },
        {
          "internalType": "bytes32",
          "name": "versionHash",
          "type": "bytes32"
        }
      ],
      "name": "calculateDomainSeparator",
      "outputs": [
        {
          "internalType": "bytes32",
          "name": "",
          "type": "bytes32"
        }
      ],
      "stateMutability": "view",
      "type": "function"
    }
  ],
  "bytecode": "0x608080604052346100155760b1908161001b8239f35b600080fdfe6004361015600c57600080fd5b60003560e01c638ec98aff14602057600080fd5b3460765760403660031901126076577f8b73c3c69bb8fe3d512ecc4cf759cc79239f7b179b0ffacaa9a75d522b39400f60805260043560a05260243560c0524660e052306101005260a060802060805260206080f35b600080fdfea2646970667358221220a07b880188b174e7fce9dd47456ed95c7a83466e0cf835645d1d1b4ee58d6d1264736f6c63430008140033",
  "linkReferences": {},
  "deployedLinkReferences": {}
}