{
  "_format": "hh-sol-artifact-1",
  "contractName": "PrimaryIssuance",
  "sourceName": "src/trade/issuance/PrimaryIssuance.sol",
  "abi": [
    {
      "inputs": [
        {
          "internalType": "contract IRegister",
          "name": "_register",
          "type": "address"
        },
        {
          "internalType": "uint256",
          "name": "_offerPrice",
          "type": "uint256"
        }
      ],
      "stateMutability": "nonpayable",
      "type": "constructor"
    },
    {
      "anonymous": false,
      "inputs": [
        {
          "indexed": true,
          "internalType": "address",
          "name": "seller",
          "type": "address"
        },
        {
          "indexed": true,
          "internalType": "address",
          "name": "buyer",
          "type": "address"
        },
        {
          "indexed": true,
          "internalType": "enum ITrade.Status",
          "name": "status",
          "type": "uint8"
        },
        {
          "indexed": false,
          "internalType": "uint256",
          "name": "quantity",
          "type": "uint256"
        }
      ],
      "name": "NotifyTrade",
      "type": "event"
    },
    {
      "anonymous": false,
      "inputs": [
        {
          "indexed": false,
          "internalType": "address",
          "name": "contractAddress",
          "type": "address"
        }
      ],
      "name": "PrimaryIssuanceCreated",
      "type": "event"
    },
    {
      "inputs": [],
      "name": "account",
      "outputs": [
        {
          "internalType": "address",
          "name": "",
          "type": "address"
        }
      ],
      "stateMutability": "view",
      "type": "function"
    },
    {
      "inputs": [],
      "name": "buyerAccount",
      "outputs": [
        {
          "internalType": "address",
          "name": "",
          "type": "address"
        }
      ],
      "stateMutability": "view",
      "type": "function"
    },
    {
      "inputs": [],
      "name": "getDetails",
      "outputs": [
        {
          "components": [
            {
              "internalType": "uint256",
              "name": "quantity",
              "type": "uint256"
            },
            {
              "internalType": "address",
              "name": "buyer",
              "type": "address"
            },
            {
              "internalType": "uint256",
              "name": "tradeDate",
              "type": "uint256"
            },
            {
              "internalType": "uint256",
              "name": "valueDate",
              "type": "uint256"
            },
            {
              "internalType": "uint256",
              "name": "price",
              "type": "uint256"
            }
          ],
          "internalType": "struct ITrade.TradeDetail",
          "name": "",
          "type": "tuple"
        }
      ],
      "stateMutability": "view",
      "type": "function"
    },
    {
      "inputs": [],
      "name": "offerPrice",
      "outputs": [
        {
          "internalType": "uint256",
          "name": "",
          "type": "uint256"
        }
      ],
      "stateMutability": "view",
      "type": "function"
    },
    {
      "inputs": [],
      "name": "paymentID",
      "outputs": [
        {
          "internalType": "bytes8",
          "name": "",
          "type": "bytes8"
        }
      ],
      "stateMutability": "view",
      "type": "function"
    },
    {
      "inputs": [],
      "name": "register",
      "outputs": [
        {
          "internalType": "contract IRegister",
          "name": "",
          "type": "address"
        }
      ],
      "stateMutability": "view",
      "type": "function"
    },
    {
      "inputs": [],
      "name": "reject",
      "outputs": [],
      "stateMutability": "nonpayable",
      "type": "function"
    },
    {
      "inputs": [],
      "name": "sellerAccount",
      "outputs": [
        {
          "internalType": "address",
          "name": "",
          "type": "address"
        }
      ],
      "stateMutability": "view",
      "type": "function"
    },
    {
      "inputs": [],
      "name": "status",
      "outputs": [
        {
          "internalType": "enum ITrade.Status",
          "name": "",
          "type": "uint8"
        }
      ],
      "stateMutability": "view",
      "type": "function"
    },
    {
      "inputs": [],
      "name": "validate",
      "outputs": [],
      "stateMutability": "nonpayable",
      "type": "function"
    }
  ],
  "bytecode": "0x6080604081815234620002bd57808262000d6c8038038091620000238285620002c2565b833981010312620002bd5781516001600160a01b03929083811690819003620002bd57602080920151600094600186558451916314aa469760e31b835260049233848201528581602481885afa9081156200020f57889162000280575b50156200023d57600180546001600160a01b03199081168617825560028054909116331790559083556005805460ff1916909117905584516310f09fe360e31b80825285828581885afa9182156200020f57889262000219575b5086516370a0823160e01b8152918316848301528582602481885afa9384156200020f5786928995620001d4575b508460035587518096819382525afa928315620001ca57600193929185917ff3907ebf6f6c38d243f9cbf61f50741cad6bf3507e2be4526ee2a5e1d1e4549197989462000181575b509060008051602062000d4c83398151915291885193845233941692a48251308152a151610a2e90816200031e8239f35b82919450620001b99060008051602062000d4c833981519152933d8411620001c2575b620001b08183620002c2565b810190620002fc565b93909162000150565b503d620001a4565b85513d88823e3d90fd5b8381949296503d831162000207575b620001ef8183620002c2565b810103126200020357859151933862000108565b8780fd5b503d620001e3565b87513d8a823e3d90fd5b62000235919250863d8811620001c257620001b08183620002c2565b9038620000da565b855162461bcd60e51b8152808401869052601460248201527f53656e646572206d7573742062652061204226440000000000000000000000006044820152606490fd5b90508581813d8311620002b5575b6200029a8183620002c2565b81010312620002035751801515810362000203573862000080565b503d6200028e565b600080fd5b601f909101601f19168101906001600160401b03821190821017620002e657604052565b634e487b7160e01b600052604160045260246000fd5b90816020910312620002bd57516001600160a01b0381168103620002bd579056fe6080604081815260048036101561001557600080fd5b600092833560e01c90816310547851146108ee575080631aa3a008146108c5578063200d2ed2146108855780633bf19e2914610868578063489147d71461068f5780634dc415de146106b85780635dab24201461068f5780636901f66814610217578063d84ffb41146101eb5763fbbf93a01461009157600080fd5b346101e757826003193601126101e7578151906100ad82610968565b8382528360806020938285820152828682015282606082015201526003549260018060a01b0380600254169381600154169183519263b90c1dbb60e01b845282848781845afa9384156101aa579086918a956101b4575b508390865197888092632877d47360e01b82525afa9586156101aa578996610173575b5060a0985054956080855161013b81610968565b898152848101928352868101958652606081019788520196875284519788525116908601525190840152516060830152516080820152f35b9095508281813d83116101a3575b61018b818361099a565b8101031261019f5760a09850519438610127565b8880fd5b503d610181565b85513d8b823e3d90fd5b84809296508193503d83116101e0575b6101ce818361099a565b8101031261019f575192859083610104565b503d6101c4565b8280fd5b505034610213578160031936011261021357513060c01b6001600160c01b0319168152602090f35b5080fd5b5090346101e757826003193601126101e757600283541461064c576002835560015481516314aa469760e31b815233848201526001600160a01b0392916020919084169060249083818381865afa9081156104a457889161062f575b50156105f75784600254168033036105a45760ff600554166006811015610592578760038214159182610587575b50501561052b5784516310f09fe360e31b80825293899186818b81855afa90811561050457839161050e575b5087516370a0823160e01b81529089168a82015286818681855afa9081156105045783916104d7575b508060035580610309575b826001815580f35b87519386855287858c81865afa9485156104cd57938a936064938d97938b9784956104ae575b508c5198899788966323b872dd60e01b885216908601528985015260448401525af19081156104a4578891610477575b501561043657508190600360ff19600554161760055584600154169584518097819382525afa92831561042c5760039486946103d9575b5090817fb04efa95c2e317d8afba4237350a971f1ce59ef6fbbf2eb3f1a7e3f3f106a8f4926002541694865494519485521692a438808080808080878180610301565b8291945061041d907fb04efa95c2e317d8afba4237350a971f1ce59ef6fbbf2eb3f1a7e3f3f106a8f4933d8411610425575b610415818361099a565b8101906109d9565b939091610396565b503d61040b565b82513d87823e3d90fd5b8560176064928587519362461bcd60e51b85528401528201527f746865207472616e7366657220686173206661696c65640000000000000000006044820152fd5b6104979150843d861161049d575b61048f818361099a565b8101906109bc565b3861035f565b503d610485565b85513d8a823e3d90fd5b6104c6919550883d8a1161042557610415818361099a565b933861032f565b89513d86823e3d90fd5b90508681813d83116104fd575b6104ee818361099a565b810103126101e75751386102f6565b503d6104e4565b88513d85823e3d90fd5b6105259150873d891161042557610415818361099a565b386102cd565b845162461bcd60e51b81528088018590526031818401527f546865207072696d61727920636f6e74726163742073686f756c6420626520696044820152706e20696e6974696174656420737461746560781b6064820152608490fd5b1415905087386102a1565b634e487b7160e01b8952602188528289fd5b845162461bcd60e51b81528088018590526028818401527f6f6e6c79207468652062656e6566696369617279204226442073686f756c642060448201526766696e616c697a6560c01b6064820152608490fd5b8560146064928587519362461bcd60e51b85528401528201527314d95b99195c881b5d5cdd08189948184810899160621b6044820152fd5b6106469150843d861161049d5761048f818361099a565b38610273565b906020606492519162461bcd60e51b8352820152601f60248201527f5265656e7472616e637947756172643a207265656e7472616e742063616c6c006044820152fd5b50503461021357816003193601126102135760025490516001600160a01b039091168152602090f35b50346101e757826003193601126101e7576002546001600160a01b03908116913383900361081957600260ff1960055416176005558160015416918451926310f09fe360e31b80855260209384868281865afa9586156107f05789966107fa575b5087516370a0823160e01b8152958416818701528486602481865afa9586156107f05789966107bf575b509084918660035588518094819382525afa9081156107b557906002967fb04efa95c2e317d8afba4237350a971f1ce59ef6fbbf2eb3f1a7e3f3f106a8f49493928992610796575b50519485521692a480f35b6107ae919250843d861161042557610415818361099a565b903861078b565b86513d89823e3d90fd5b919095508482813d83116107e9575b6107d8818361099a565b8101031261019f5790519484610743565b503d6107ce565b88513d8b823e3d90fd5b610812919650853d871161042557610415818361099a565b9438610719565b608490602085519162461bcd60e51b8352820152602360248201527f6f6e6c79207468652062656e6566696369617279204226442063616e20726576604482015262195c9d60ea1b6064820152fd5b50346101e757826003193601126101e75760209250549051908152f35b5091903461021357816003193601126102135760ff6005541690519160068210156108b257602083838152f35b634e487b7160e01b815260218452602490fd5b50503461021357816003193601126102135760015490516001600160a01b039091168152602090f35b929050346109645783600319360112610964576001546310f09fe360e31b84526001600160a01b0392602091859190829086165afa92831561095a576020949361093b575b505191168152f35b610953919350843d811161042557610415818361099a565b9138610933565b81513d86823e3d90fd5b8380fd5b60a0810190811067ffffffffffffffff82111761098457604052565b634e487b7160e01b600052604160045260246000fd5b90601f8019910116810190811067ffffffffffffffff82111761098457604052565b908160209103126109d4575180151581036109d45790565b600080fd5b908160209103126109d457516001600160a01b03811681036109d4579056fea2646970667358221220b7a7761c5c90e2171a4bdcd15e121d2024b293256a3f876bed6c1466d4c35b6164736f6c63430008140033b04efa95c2e317d8afba4237350a971f1ce59ef6fbbf2eb3f1a7e3f3f106a8f4",
  "linkReferences": {},
  "deployedLinkReferences": {}
}